:020000040040BA
:10000000582E0020D12F4000CF2F4000CF2F40008E
:10001000CF2F4000CF2F4000CF2F40000000000026
:10002000000000000000000000000000CF2F400092
:10003000CF2F400000000000CF2F4000CF2F400006
:10004000CF2F4000CF2F4000CF2F4000CF2F4000B8
:10005000CF2F4000CF2F4000CF2F4000CF2F4000A8
:10006000CF2F4000CF2F4000CF2F4000450F400042
:10007000590F4000CF2F4000CF2F4000CF2F40001E
:10008000CF2F4000CF2F4000CF2F4000CF2F400078
:10009000CF2F4000CF2F4000CF2F400081284000BD
:1000A000CF2F4000CF2F4000CF2F4000CF2F400058
:1000B000CF2F400065274000CF2F4000CF2F4000BA
:1000C000CF2F4000CF2F400029154000CF2F4000F8
:1000D00010B5054C237833B9044B13B10448AFF382
:1000E00000800123237010BD380B002000000000A9
:1000F0001C7F40000C4B43B10C4810B50C49AFF3CA
:1001000000800C48036823B910BD0A48036833B95E
:100110007047094B002BF7D0BDE810401847064B3D
:10012000002BF5D0184700BF000000001C7F4000E6
:100130003C0B00201C7F4000000000000E49002303
:100140000B700E4A13800E4AA120107020205070B0
:10015000538093800220D08013810A4A4FF4E1300B
:10016000106013715371082393710B780133DBB264
:100170000B700120704700BF5F0B0020F40B0020C4
:100180008C0C0020580B0020024A1378013BDBB294
:10019000137070475F0B0020044A1378013BDBB2F9
:1001A000137013780022024B1A707047600B002006
:1001B000560B002000207047002070471D4B1B7815
:1001C00013F0800F05D103F06003202B18D000201E
:1001D000704703F06003202B01D000207047154BBF
:1001E0005B78212B24D1134BDB88072B01D0002017
:1001F0007047104B104A9A6007229A81012070477D
:100200000C4B5878202804D0222814BF002001204D
:100210007047084BDB88072B01D000207047054B47
:10022000064A1A61044A9A6007229A81012070479F
:1002300000207047B40D0020580B00204102400000
:1002400070470000444B1B7803B1704770B584B011
:10025000424B9847002841D0414B1C88414B98475E
:10026000844276D0EFF31083B3FA83F35B090393F0
:1002700072B6BFF35F8F00223B4B1A70039D3B4B5E
:100280001C78E4B23A4B33F81430002B2DD0002206
:10029000384B1A80384B1B78002B42D1B4FA84F3C8
:1002A0005B09324A137001222B4B1A7025B12E4B79
:1002B0001A70BFF35F8F62B626462D4B33F81430A9
:1002C000402B14BF0125002534D0244B984700282B
:1002D0002BD0244B9847224B18802EE0204B1C88B3
:1002E000264B98478442BDD133E0224A138801331C
:1002F00013801A4B984718B91E4B1B88632B08D9DB
:10030000164B98470028C2D01A4B1B88B3F5487F7C
:10031000BDD2F5B10122144B1A70BFF35F8F62B6E4
:1003200017E0B4FA84F46409BDE7144B98470C4B0A
:10033000188002E000220A4B1A800D4B33F8163069
:100340000F4A00920F4A02EB8412294681200E4C7C
:10035000A04704B070BD00BF880C0020891F40007A
:10036000840C0020F51F400084010020800C002038
:100370007C0C0020540B0020F80B0020E51F4000EF
:100380008D034000FC0B00204D23400000B170475E
:1003900008B5074B1B78B3FA83F35B09054A22F8CB
:1003A0001300054B1870054B1870054B984708BD96
:1003B000800C00207C0C0020F80B0020880C002012
:1003C0004502400008B50020014B984708BD00BF1A
:1003D0004502400082B0EFF31083B3FA83F35B0968
:1003E000019372B6BFF35F8F00220B4B1A70019915
:1003F0000A4B188883B20A4A1278D2B2094830F8F8
:10040000120080B2C01A29B10122034B1A70BFF347
:100410005F8F62B602B0704784010020EC0B0020B1
:10042000E80B0020E40B002008B50020014B9847A2
:1004300008BD00BFD503400008B5034B9847003006
:1004400018BF012008BD00BFD503400010B584B01F
:10045000EFF31083B3FA83F35B09039372B6BFF330
:100460005F8F00221E4B1A70039B1E4A14781E4A8F
:1004700012784AB9E4B21D4A118889B21C4A32F88E
:10048000142092B2914209D23BB30122144B1A704C
:10049000BFF35F8F62B6002004B010BD0021134A85
:1004A0001180B4FA84F252090E490A7001210E4AF1
:1004B000117023B10A4B1970BFF35F8F62B6002031
:1004C0000C4B98470C4B009340230C4A02EB8412D0
:1004D000012102200A4CA047DEE70020DCE700BF34
:1004E00084010020E80B0020F00B0020EC0B002022
:1004F000E40B00203904400099054000640B002003
:100500004D23400010B50024164B1C70164B1C7078
:10051000164B1C70164B1C70164B1C805C80164BC7
:100520001C802046154B9847154B1C70154B1C70B2
:10053000154B1C805C80154B1C802046144B984743
:10054000014640B1074A13780133DBB213701378C8
:10055000DBB2012B01D0084610BD01220D4B1A70F1
:10056000F9E700BF600B0020880C0020F80B00208A
:10057000800C00207C0C0020840C002045024000F0
:10058000F00B0020E80B0020E40B0020EC0B002017
:100590004D044000560B0020E8B910B582B010465B
:1005A0000D4B1C78B4FA84F4640951B189B20B4B39
:1005B00023F8141000200A4B18700A4B984702B019
:1005C00010BD094B00934023084A02EB841201211D
:1005D000074CA047F3E77047E80B0020E40B00202E
:1005E000F00B00204D04400099054000640B0020F2
:1005F0004D2340002DE9F04782B0254B93F806804B
:10060000B8F1090F14BF4FF000084FF001084FF088
:10061000000A204CD14657461F4D204E04E08B4225
:1006200023D31F4B1B78D3B1EFF31083B3FA83F3BB
:100630005B09019372B6BFF35F8F277001982B8817
:100640009BB23278D2B2174931F8121089B2002821
:10065000E5D001202070BFF35F8F62B6DFE74FF077
:10066000000A504602B0BDE8F0870F4901EB821244
:10067000D25C42EA0A0A01339BB22B8048460B4BFC
:100680009847B8F1000FECD04FEA0A2AC846CBE7EA
:10069000580B002084010020EC0B0020E80B002008
:1006A000560B0020E40B0020640B00204D0440009A
:1006B00008B50020014B984708BD00BFF505400074
:1006C00082B0EFF31083B3FA83F35B09019372B640
:1006D000BFF35F8F0022144B1A70019A134B1B78E3
:1006E000DBB2134931F8130040280AD0C0F14000B2
:1006F0002AB101220C4B1A70BFF35F8F62B602B0B1
:1007000070470C4909780029F0D10B490978002974
:10071000ECD1012008490870B3FA83F35B0903495F
:100720000B700020E2E700BF84010020800C002055
:100730007C0C0020880C0020F80B002008B5034B2F
:100740009847003018BF012008BD00BFC106400017
:100750002DE9F04F83B01746224B9B79092B08BF38
:1007600057008846DFF894A030E0EFF31083B3FA27
:1007700083F35B09019372B6BFF35F8F00231A4ABC
:100780001370DDF804B0194B1D78EDB2DFF87090EE
:1007900039F81560C6F14004BC4228BF3C4606EB60
:1007A00085132246414612481844124B9847264466
:1007B00029F81560BBF1000F05D001230A4A137018
:1007C000BFF35F8F62B6A0443F1B07D00020D04725
:1007D0000028CAD1084B1B78002BF7D1384603B04C
:1007E000BDE8F08F580B002084010020800C002011
:1007F000FC0B0020C9324000560B00203D07400092
:100800007C0C002008B50A4601460020014B9847A1
:1008100008BD00BF51074000104B1B681A68538881
:100820001A4403781844904211D24378042B10D014
:100830008B4209D003781844904206D24378042BA7
:1008400009D08B42F6D107E07047002070470020A6
:100850007047002070470020704700BFA40C0020A4
:1008600008B5034B987800F07F00024B984708BD0D
:10087000B40D00208D1F4000194B1B784BB3194B52
:100880001B681B681A79824225D970B4164A136016
:100890005C881C44A34220D20025012607E0124AAE
:1008A00013600FE01A7813443546A3420CD25A78ED
:1008B000042AF7D19A788242F4D1DA788A42F1D1C7
:1008C000002DECD1012002E0074A1360002070BC2B
:1008D000704700207047002070470020F7E700BFF6
:1008E000A00C0020A40C0020A80C00202DE9F84347
:1008F00004460021134B9847804610B94046BDE896
:10090000F883114B1B685B6853F82490D9F80C30BE
:100910009847014620460B4B984780460028EDD06B
:100920000A4B1C6805260A4D0A4F31462046A84747
:10093000044610B18078B847F7E7D9F804309847F3
:10094000DCE700BF79084000A40C0020A80C0020C0
:1009500019084000FD2040002DE9F0418046104B71
:1009600098470346C8B10F4B1C6805260E4D0F4F24
:1009700031462046A847044638B18288C17880783D
:10098000B84703460028F3D107E0094B1B685B68B2
:1009900053F828301B68984703461846BDE8F08195
:1009A00079084000A80C00201908400005204000EC
:1009B000A40C002008B5014B984708BDAD1E4000AF
:1009C00070B50D4B1B7883B10C4B1B681B681B79F2
:1009D0005BB100240A4E094D2046B0470134E4B211
:1009E0002B681B681B79A342F6D80022024B1A70B1
:1009F0000122044B1A8070BDA00C0020A40C002022
:100A0000ED084000960C002038B50D4B1B78B3B1B3
:100A10000C4B1B681A6812798AB10024094D06E054
:100A20000134E4B22B681A681279A24207D95B68D4
:100A300053F824301B69002BF2D09847F0E738BDFB
:100A4000A00C0020A40C0020F8B5964B00229A813F
:100A50001A615A611B7813F0800F14D113F0600FE4
:100A600000F0B8808F4B1B7803F01F03012B00F0C0
:100A70008B818C4B1B7803F01F03022B00F0AC81A1
:100A800000231846F8BD874AD288002A00F0CD819D
:100A900013F0600FE6D113F01F0306D181494978A6
:100AA000062913D0082958D049B1012B5CD0022B5C
:100AB000D8D17C4B5B78002B7ED0002360E1022AEA
:100AC000D0D102217848794B98479FE0754B5A88DE
:100AD000130A013B0E2B00F25081DFE813F00F00E8
:100AE0001C0036004E014E014E014E014E014E01DA
:100AF0004E014E014E014E014E012E006C4B186806
:100B000001786A4B9847674BDA889B8993427DD975
:100B1000644B9A817AE0D2B2654B1B685B7C93424E
:100B2000A0D9634B5B6853F8320041885F4B98470C
:100B30005C4B9B6802225A70E5E75D4B9868002881
:100B400090D04188594B9847DDE712F0FF0F89D1CB
:100B500004215848554B9847D5E7012A82D10121F5
:100B60005548524B984751E04E4949780A299ED141
:100B7000012A7FF477AF504B1B78002B3FF472AF04
:100B8000484B1C794D4B1D682B681B79A3427FF69F
:100B900069AF002120464A4B984700283FF462AFD6
:100BA0006B6853F82430DB689847464B1870012176
:100BB00018463E4B984729E0022A7FF453AF394B41
:100BC0001879414B9847414B188002211846374B02
:100BD00098471BE013F01F0340F08280314A52789F
:100BE000013A082A7CD8DFE812F013007B00CA0023
:100BF0007B0009007B007B007B002300294BDB8806
:100C0000002B7FF42FAF324A264B1A61012338E7BD
:100C1000244BDB88002B7FF425AF224B5B88012B14
:100C20007FF420AF204A138823F002031380EDE7FE
:100C30001C4BDB88002B7FF415AF264B9847002810
:100C40003FF410AF174B9A78194B1B685B7C9A42A4
:100C50003FF708AF204B9847124B9B78164A13700A
:100C6000002BD3D003F10053013B114A526802EB31
:100C7000C3001249086052F833301B79002BC5D0ED
:100C800000242646154D0F4631462046A847002829
:100C90003FF4E8AE0134E4B23B681B681B79A34221
:100CA000F2D8B3E7B40D0020960C0020F91F4000E5
:100CB000100100200C010020A00C0020A40C00203A
:100CC000790840009C0C002055214000980C002021
:100CD00061084000C91F4000C10940005909400097
:100CE000012B0AD0022B7FF4BDAE524B5B78012B57
:100CF00020D0032B2ED0002342E04E4A52780B2AFC
:100D0000F0D14C4BDB88002B7FF4ACAE4A4B1B7808
:100D1000002B3FF4A7AE474B1C795D882046474B1C
:100D2000984700283FF49EAEE9B22046444B9847CE
:100D3000034625E03F4BDB88002B7FF493AE3D4B11
:100D40005B88002B7FF48EAE3A4B18793D4B984769
:100D5000034615E0374BDB88002B7FF483AE354B21
:100D60005B88002B7FF47EAE324C2079364B98475F
:100D70002079364B9847034602E0002300E0002329
:100D8000002B7FF47EAE6DE62B4B1B78002B4ED0F4
:100D9000284B1C792E4B1D682B681B79A34201D868
:100DA00000236EE6002120462A4B984700283FF496
:100DB00060AE6B6853F82450EB68984701462046B4
:100DC000244B984700283FF454AEAB68984703463D
:100DD00000287FF456AE4CE6174B1B780BB31C4B28
:100DE0001A6813681B79F3B100241A4E184F536820
:100DF00053F82450EB68984701462046B047034615
:100E000000283FF43EAEAB689847034600287FF4C5
:100E100038AE0134E4B23A6811680979A142E6D8E3
:100E20002FE600232DE600232BE6002329E60023EE
:100E300027E600BFB40D0020A00C0020ED08400004
:100E40005909400075224000C92440009521400006
:100E5000A40C00207908400030B401240460002470
:100E6000446040F20225C0F82051C0F80441C0F8A7
:100E7000144145685200B1FBF2F2013A120292B2FB
:100E80002B431A434260204630BC70474368D2016E
:100E9000D2B219430A434260704710B4446809064D
:100EA00001F0706121430A43190701F040511143D9
:100EB000416010BC7047022303607047006B7047AD
:100EC000D0F89430090201F440711943C0F894102D
:100ED0007047000000487047008103402DE9F84347
:100EE00081460F46124B984705464846114B984796
:100EF000054013D0104C04F1600603E0B4420DD05D
:100F000010345DB12068B842F8D161682942F5D04B
:100F1000E3689847636825EA0305EFE7074B1B681A
:100F200023B1074B1B680BB148469847BDE8F883CF
:100F30008F2D4000932D4000AC0C0020140E00209B
:100F40001C0D002008B50B210148024B984708BD35
:100F5000000E0E40DD0E400008B50C210148024B8A
:100F6000984708BD00100E40DD0E400082B00146DB
:100F700028BB244B1B781BB9224B197002B0704759
:100F8000214B9B7803B9FEE7EFF31083B3FA83F3A9
:100F90005B09009372B6BFF35F8F00221B4B1A7080
:100FA0000098194A9378013B93700028E4D00122FD
:100FB000164B1A70BFF35F8F62B6DDE7FEE7114B89
:100FC0001B78002BD8D1104B9B78FF2BF6D0EFF37A
:100FD0001083B3FA83F35B09019372B6BFF35F8F9B
:100FE00000220A4B1A700198074A937801339370D4
:100FF0000028C1D00122054B1A70BFF35F8F62B683
:10100000BAE700BF210D0020AC0D002084010020B4
:10101000034A0023136153619381024A137070479E
:10102000B40D0020260D002082B005220A4B1A7054
:101030000A4A136B0193019B43F04F030193019BF9
:1010400043F020030193019B1363136B13F0200FF4
:10105000FBD002B0704700BF260D002000400340C7
:1010600082B003220A4B1A700A4A136B0193019B48
:1010700043F04F030193019B43F010030193019B45
:101080001363136B13F0100FFBD002B0704700BF57
:10109000260D00200040034008B5024B1B6903B138
:1010A000984708BDB40D002030B587B0634B1B785E
:1010B000032B29D0624B1B88624A9489E41AA4B29C
:1010C000002C44D1604A11880B449BB213805D4AC6
:1010D000D2889A4203D05D4B1B78002B2BD0042280
:1010E000564B1A705A4A136B0193019B43F04F03FE
:1010F0000193019B23F001030193019B1363136B85
:1011000013F0010FFBD114E0514A136B0093009BC5
:1011100043F04F030093009B23F001030093009BD7
:101120001363136B13F0010FFBD14A4B98474A4BE3
:10113000984707B030BD434B5B69002B5DD09847A3
:1011400000285AD000223E4B1A803E4B9C893F2CEF
:1011500053D900223D4B1A7040243A4B9968384BC2
:101160001888EFF31083B3FA83F35B09059372B623
:10117000BFF35F8F0022394B1A70059D344B1B6BF8
:1011800013F0020F3DD14CB101440A46304812F829
:10119000013B0365531ADBB2A342F8D3284B1A88EC
:1011A00014441C802A4A136B0393039B43F04F03A0
:1011B0000393039B43F010030393039B1363136B8D
:1011C00013F0100FFBD0224A136B0493049B43F0DF
:1011D0004F030493049B23F001030493049B1363C4
:1011E000136B13F0010FFBD1002DA2D001221B4B7A
:1011F0001A70BFF35F8F62B69BE70122134B1A7020
:10120000ABE72DB10122154B1A70BFF35F8F62B6A9
:1012100004220A4B1A700E4A136B0293029B43F08E
:101220004F030293029B23F001030293029B13637B
:10123000136B13F0010FFBD17BE700BF260D0020DD
:10124000220D0020B40D0020240D0020200D0020D0
:10125000004003409910400011104000840100201C
:1012600038B5437C13F0100F16D00D46437C6FF356
:101270000413437404687CB102F10C03074951F86C
:10128000233013F4806F18BF42F080028168012D73
:1012900014BF00200120A04738BD00BF004003401C
:1012A00030B482B0411E830003F1402303F5403384
:1012B0001A6B1C6B12F0020F32D014F0400F08D1E1
:1012C00001EB81022A4C04EB8202547C6FF383040D
:1012D000547401EB8102264C04EB8202527C12F022
:1012E0000C0F28D11A6B0092009A42F04F02009224
:1012F000009A22F002020092009A1A631A6B12F00E
:10130000020FFBD180B303282ED001EB8101184BD3
:1013100003EB81035A7C012161F383025A7423E0B9
:1013200001EB8102124C04EB8202547C012565F32F
:1013300083045474CDE71A6B0192019A42F04F0274
:101340000192019A22F040020192019A1A631A6BEB
:1013500012F0400FFBD101EB8101054B03EB810142
:101360004B7C6FF383034B7402B030BC704700BFFB
:10137000280D00202DE9F04383B088468146461EA3
:1013800006EB8602664B03EB820393F811C0CCF3A5
:10139000810C002800F0B78003280CBF0123022332
:1013A000634540F3B28006EB86035D4A02EB83039C
:1013B000DA689B689A4209D306EB8601584C04EB25
:1013C0008101497C11F0400F00F0A38006EB8605F7
:1013D000534901EB85056C681444991A2B8AC3F3B1
:1013E0000907B9423ABF0F464FF0010E4FF0000E09
:1013F00006EB86034A4901EB83033A44DA60072F80
:101400002BD904F108033D46820002F1402202F587
:10141000403213F8081C116513F8071C116513F806
:10142000061C116513F8051C116513F8041C1165E1
:1014300013F8031C116513F8021C116513F8011C45
:101440001165083D0833072DE3D8A7F1080323F001
:10145000070308331C4407F007074FB1E31931496C
:1014600009F1140914F8012B41F829209C42F9D103
:1014700006EB86032A4A02EB83030CF1010C5A7C2B
:101480006CF383025A74B8F1000F14D0800000F19D
:10149000402000F54030036B0193019B43F04F0364
:1014A0000193019B43F010030193019B0363036BC2
:1014B00013F0100FFBD0BEF1000F08D006EB86032F
:1014C000174A02EB83035A7C6FF386125A7406EBB9
:1014D0008603134A02EB8303DA689B689A421AD3A5
:1014E00006EB86030E4A02EB83035B7C13F0400F8E
:1014F00013D106EB860602EB8606737C43F080036D
:101500007374002002E001234AE7012003B0BDE824
:10151000F0830020FAE70120F8E70120F6E700BF9A
:10152000280D0020004003402DE9F04F9BB0864B72
:10153000984720B9854BDB6913F4807F3BD022208C
:10154000834B9847814B9B6913F4006F04D07F4B0A
:10155000DB6913F4006F37D17C4BDB6913F0010FAB
:1015600000F0B681794B1B6B13F0040F33D1774B2E
:101570001B6B13F0010F40F0C380744B1B6B13F017
:10158000020F40F0C080714B1B6B13F0080F00F08E
:101590009F816E4A136B0093009B43F04F030093AF
:1015A000009B23F008030093009B1363136B13F05D
:1015B000080FFBD105E072B6BFF35F8F0022654BC9
:1015C0001A701BB0BDE8F08F4FF400625F4B1A62D7
:1015D000614B9847F5E7614B1B78CBB95B4B1B6BB5
:1015E000C3F30A43082B18D0584A136B0193019B8D
:1015F00043F04F030193019B23F004030193019BEC
:101600001363136B13F0040FFBD1554B9847D8E7C6
:10161000544B9847544B9847E0E7544B03F108006C
:101620004A490A6D03F8012F8342FAD1504B98477B
:1016300098B9464A136B0293029B43F04F030293FF
:10164000029B23F004030293029B1363136B13F0BA
:10165000040FFBD1424B9847B3E7464B93F9003058
:10166000002B1DDB394A136B0593059B43F04F0399
:101670000593059B23F004030593059B1363136BEC
:1016800013F0040FFBD13B4BDB88002B35D000233C
:10169000394A1380394A13800122304B1A7090E77F
:1016A0002A4A136B0393039B43F04F030393039B5B
:1016B00043F080030393039B1363136B13F0800FBA
:1016C000FBD0224A136B0493049B43F04F03049313
:1016D000049B23F004030493049B1363136B13F024
:1016E000040FFBD10023244A1380244A13800222D2
:1016F0001A4B1A70224B984763E7224B984760E7D2
:101700001F4B98475DE7154B1B78012B3CD0022BF4
:1017100004D0042B02D0124B984701E0114B98479C
:101720000A4A136B0693069B43F04F030693069BEE
:1017300023F002030693069B1363136B13F0020F4F
:10174000FBD1094B98473CE7BD2F400000400340C8
:10175000A92E400084010020090A4000260D002027
:10176000291040009910400011104000B30D0020D6
:10177000490A4000B40D0020240D0020220D002055
:10178000A910400061104000934B196BC1F30A414E
:10179000924B9B89924A15886A189342BCBF5B1B87
:1017A00099B28E4B9868284471B102468A4C236DD9
:1017B00002F8013B131ADBB28B42F8D30D44ADB2F1
:1017C000874B1D8040291AD0844B9D815B6913B1E2
:1017D0009847002830D0804A136B0893089B43F049
:1017E0004F030893089B23F002030893089B13639D
:1017F000136B13F0020FFBD17A4B9847E1E6774B5E
:10180000DA88794B1B882B449A42DDDD734B9B8928
:10181000AB4225D0704A136B0B930B9B43F04F03E5
:101820000B930B9B23F002030B930B9B1363136B24
:1018300013F0020FFBD1C4E66C4B9847664A136B5A
:101840000793079B43F04F030793079B23F0020383
:101850000793079B1363136B13F0020FFBD1B0E6E2
:101860005E4B5B6953B19847E8B15F495C4A0B88AE
:10187000108803440B8000231380CBE75B4B984711
:10188000554A136B0993099B43F04F030993099B36
:1018900023F002030993099B136313461A6B12F09A
:1018A000020FFBD18DE6514B98474B4A136B0A93BD
:1018B0000A9B43F04F030A930A9B23F002030A9307
:1018C0000A9B136313461A6B12F0020FFBD178E6E2
:1018D000474A0123DFF800E118467FE107EB870262
:1018E000434B03EB8203B3F810A0CAF3090A236B3E
:1018F000C3F30A49B9F1000F00F0DF813C4B03EB61
:101900008203D3F808E0DA68AEEB02005968484574
:1019100040F2C78107EB8700354B03EB800302EBF6
:101920000900D86048464FF0000B11440B46226D69
:1019300003F8012B5A1A8242F9D330462D4B9847AF
:10194000BBF1000F00F0BC81236B13F0200F7FF47C
:1019500038AE214B5D61264BBA00D11903EB8101F2
:10196000CB688B60324600214046234B984728E6DF
:1019700007EB87021E4B03EB8202537CC3F381010A
:10198000033161F383035374537C13F0200F5FD052
:1019900013F00C0F32D0236B0C930C9B43F04F03CE
:1019A0000C930C9B43F010030C930C9B2363236B51
:1019B00013F0100FFBD0236B0D930D9B43F04F03DF
:1019C0000D930D9B23F001030D930D9B2363236B5C
:1019D00013F0010FFBD1F4E500400340B40D0020EB
:1019E000220D002061104000240D0020291040002D
:1019F000280D0020A112400061124000236B0E93BD
:101A00000E9B43F04F030E930E9B23F001030E93A6
:101A10000E9B2363236B13F0010FFBD1236B0F93FA
:101A20000F9B43F04F030F930F9B43F020030F9343
:101A30000F9B2363236B13F0200FFBD007EB87076B
:101A4000A14B03EB87035A7C6FF345125A74B8E538
:101A500013F0800F38D107EB87029B4B03EB820317
:101A6000DA689B689A4241D307EB8702964B03EBF7
:101A700082035B7C13F04C0F38D1EFF31083B3FA81
:101A800083F35B09109372B6BFF35F8F00228F4B15
:101A90001A70109B8E4A55612BB101228B4B1A7024
:101AA000BFF35F8F62B6236B1193119B43F04F031B
:101AB0001193119B23F001031193119B2363236B5B
:101AC00013F0010FFBD17CE514237F4A03FB0723AE
:101AD000597C6FF3C7115974DA689A607C4B5D6169
:101AE0003246002140467B4B9847B4E7002E5BD03E
:101AF000032E59D007EB8702734B03EB82035B7C09
:101B000013F00C0F24D0236B1293129B43F04F035E
:101B10001293129B43F010031293129B2363236BC7
:101B200013F0100FFBD0236B1393139B43F04F0361
:101B30001393139B23F001031393139B2363236BD2
:101B400013F0010FFBD100213046634B984738E575
:101B500001213046604B9847A0B1236B1493149B2E
:101B600043F04F031493149B23F001031493149B2D
:101B70002363236B13F0010FFBD100213046564B3A
:101B800098471EE51423504A03FB07277A7C6FF31E
:101B9000C7127A74FB68BB604D4B5D613246002111
:101BA00040464C4B9847D8E7012130464A4B98476E
:101BB000236B1593159B43F04F031593159B23F04F
:101BC00001031593159B2363236B13F0010FFBD1C6
:101BD000F7E401331432042B00F08680DEB2DEF825
:101BE000181000FA03F52942F3D05F1E90469C00BE
:101BF00004F1402404F54034216B11F0420F7FF4CE
:101C00006DAE216B11F0010F7FF4B2AE216B11F0BC
:101C1000080FDED0236B1693169B43F04F031693E9
:101C2000169B23F008031693169B2363236B13F074
:101C3000080FFBD1236B03F4E063B3F5807F3FF41F
:101C4000C0AC236BBDE4224BDB6913F4005F50D0C2
:101C50001F4C4FF418532362636101201F4B9847B8
:101C60004FF48073236223614FF400632361A8E47F
:101C7000174B4FF480721A625A614FF400521A6186
:101C80004FF400721A614FF480621A612220144BE3
:101C900098470020114B984793E43046114B9847E2
:101CA00052E607EB870C084B03EB8C03C3F80CE000
:101CB0000028F2D04FF0010B37E63046094B984729
:101CC000CA453FF641AE7CE4280D00208401002087
:101CD0000040034061124000751340006D0F40004A
:101CE000FD2E4000A11240004B4B9B6913F4005F96
:101CF000A9D1494B9B6913F4007F04D0464BDB69A3
:101D000013F4007FA4D1444B9B6913F4806F04D07B
:101D1000414BDB6913F4806F9AD13F4B9B6913F4FD
:101D2000807F04D03C4BDB6913F4807FA0D13A4B19
:101D3000DB6913F4805F3FF444AC374C4FF48053BD
:101D40002362364E012211463046354DA847022205
:101D5000012106F11400A8470322012106F1280001
:101D6000A847304B9847636823F0010363606368BA
:101D700023F002036360A36843F48073A360A36845
:101D800023F07F03A360236B1893189B43F04F034A
:101D90001893189B23F4074323F080031893189B90
:101DA00043F400431893189B23632246136B13F4E8
:101DB000004FFBD0184A136B1993199B43F04F0344
:101DC0001993199B43F400431993199B1363136BE5
:101DD00013F4004FFBD0EFF31083B3FA83F35B09E6
:101DE000179372B6BFF35F8F00220F4B1A70179BC9
:101DF0000121094A116123B10B4B1970BFF35F8FA9
:101E000062B60A4B9847044B4FF480721A614FF444
:101E100000621A61FFF7D5BB00400340280D002087
:101E200061124000C10940008401002011104000EF
:101E300010B582B0EFF31083B3FA83F35B0901931B
:101E400072B6BFF35F8F0022144B1A70019C012001
:101E5000134B98472220134B9847134B5A6F22F489
:101E600080725A675A6F42F400725A674FF4807258
:101E70001A614FF400521A614FF400721A614FF464
:101E800080621A614FF400621A612CB10122034B87
:101E90001A70BFF35F8F62B602B010BD84010020DC
:101EA0006D0F4000A92E40000040034030B583B0C4
:101EB000EFF31083B3FA83F35B09009372B6BFF3B9
:101EC0005F8F0024274B1C70009D2220264B9847D3
:101ED000264B9847264B502283F8222304225A602F
:101EE000234624489A00D11800EB8101497C1A440A
:101EF00000EB820201F083016FF3C71151740133CB
:101F0000032BEFD14FF480201B4B984700221B4B33
:101F10001A701B4B1B78FF2B22D0EFF31083B3FA00
:101F200083F35B09019372B6BFF35F8F00220D4B01
:101F30001A700199124A13780133137029B10122E2
:101F4000084B1A70BFF35F8F62B60E4B98472DB1E6
:101F50000122044B1A70BFF35F8F62B603B030BD2D
:101F6000FEE700BF84010020A92E4000752C400030
:101F700000E100E0280D0020712F4000210D00201D
:101F8000AC0D0020311E4000002070470D4B5A68F8
:101F900022F001025A609A6822F480729A60024626
:101FA00070B1986820F07F0002F07F0210439860C3
:101FB0009A6842F480729A605A6842F001025A604C
:101FC000704700BF00400340054B5B6813F0010FF2
:101FD0001DBF034B986800F07F000020704700BFD2
:101FE00000400340024B1868C0F30A00704700BF6E
:101FF0000040034000207047014B98609981704772
:10200000B40D0020F0B583B000F00F04032C67D8A6
:10201000A30003F1402303F540331D6B15F4004F7B
:1020200061D101F00305012D50D0251FEDB2022D25
:1020300034BF4FF400754025954258DB40B2661E10
:1020400006EB86072B4D05EB870505F11007B5F864
:1020500010E062F3090EA5F810E06A7C02F07F023E
:102060006FF345126A74002835DB234EB56A0122EE
:1020700002FA04F42543B5623546AA6A1442FCD03C
:102080001D4DAA6A22EA0404AC621A6B0192019AFD
:1020900042F04F020192019A22F4074222F080029C
:1020A000019200284FEA012202F44072B4BF42F4C8
:1020B000044242F4004201991143019101991963CC
:1020C000196B32EA0101FBD101200AE06CB1032C4B
:1020D000ABD1002005E07A786FF383027A70C4E711
:1020E000002003B0F0BD0020FBE70020F9E700204E
:1020F000F7E700BF280D00200040034000F00F026A
:10210000032A22D800B583B0910001F1402101F5E6
:1021100040310B6B0193019B43F04F030193019BF3
:1021200023F400430193019B0B630B6B13F4004FEB
:10213000FBD1501E00EB80000121044B03EB80001B
:10214000034B984703B05DF804FB7047280D00204F
:102150006112400000F00F00032815D8431E03EB66
:1021600083030A4A02EB83035B7C13F0200F09D13F
:102170000C30074B53F8203013F0280F14BF012008
:10218000002070470120704700207047280D002074
:102190000040034000F00F0103295FD810B483B062
:1021A000EFF31083B3FA83F35B09019372B6BFF3C5
:1021B0005F8F00222C4B1A70019C10F0800F24D1ED
:1021C0008A0002F1402202F54032136B0093009B1B
:1021D00043F04F030093009B43F020030093009BC8
:1021E0001363136B13F0200FFBD0012303FA01F1EB
:1021F0001E4B1961002C35D001201B4B1870BFF30A
:102200005F8F62B603B010BC70474B1E01F10C0229
:10221000164850F8222012F0100F09D103EB830268
:10222000134800EB8202527CC2F38102012AC7DD0F
:1022300003EB83020E4B03EB82035A7C42F0200235
:102240005A74012303FA01F1084B196144B10120CA
:10225000054B1870BFF35F8F62B6D3E7002070475D
:102260000120CFE70120CDE784010020004003409A
:10227000280D002000F00F0003285ED830B583B091
:10228000441E04EB84022F4B03EB82035A7C6FF352
:1022900045125A74830003F1402303F540331A6B4F
:1022A00012F0200F4BD01A6B0092009A42F04F02AE
:1022B0000092009A22F020020092009A1A631A6B90
:1022C00012F0200FFBD1204DA96A012202FA00F082
:1022D0000143A96229468A6A1042FCD01A498A6AD7
:1022E00022EA000088621A6B0192019A42F04F02C2
:1022F0000192019A22F008020192019A1A631A6B64
:1023000012F0080FFBD104EB84030E4A02EB8303A7
:102310005B7C13F0100F01D1012011E01146A200E7
:10232000131901EB8303587C6FF3041058741444A1
:1023300051F824309847012002E000207047012026
:1023400003B030BD280D002000400340F0B583B03D
:1023500000F00F07032F00F2A280BC0004F140241C
:1023600004F54034256B15F4004F00F09B807D1E72
:1023700005EB850E504E06EB8E06767C16F0200F90
:1023800040F09280266B16F0200F40F08F80EFF324
:102390001086B6FA86F67609009672B6BFF35F8F9E
:1023A0004FF0000E454E86F800E0DDF800C005EB6A
:1023B000850E414E06EB8E06767C16F0100F0AD085
:1023C000BCF1000F74D001223C4B1A70BFF35F8F39
:1023D00062B6002064E005EB850E374E06EB8E06F4
:1023E00096F811E04EF0100E86F811E0BCF1000FE7
:1023F00007D04FF0010E314E86F800E0BFF35F8F3B
:1024000062B6DFF8B4C005EB8506B6000CEB060E2D
:10241000CEF80420CEF808300022CEF80C20089A1E
:102420004CF8062011B9B3FA83F14909224AAE00EB
:10243000731902EB83035B7C61F38613354402EB73
:1024400085026FF3C7135374EFF31083B3FA83F36A
:102450005B09019372B6BFF35F8F0022174B1A70AE
:10246000019D0123BB40164A136110F0800F07D174
:1024700005B30120114B1870BFF35F8F62B60FE0F8
:10248000236B13F0110FF3D1012138460D4B984700
:102490000028EDD0002138460A4B9847E8E7002095
:1024A00003B0F0BD0020FBE70020F9E70020F7E7CC
:1024B0000020F5E70120F3E7280D0020840100202B
:1024C0000040034075134000F0B587B000F00F05E1
:1024D000032D40D8EFF31083B3FA83F35B09059320
:1024E00072B6BFF35F8F00224B4B1A70059B01241D
:1024F000AC404A4A54612BB10122474B1A70BFF3DA
:102500005F8F62B610F0800F27D1AE0006F1402633
:1025100006F54036336B13F0420F06D0404F284685
:10252000B847336B13F0420FF9D13C4A936A234307
:102530009362936A1C42FCD0384A936A23EA0404EB
:102540009462681E00EB80002A460121354B03EBA4
:102550008000354B984707B0F0BDAB0003F1402336
:1025600003F540331A6B12F0100F3AD04DB3032D20
:1025700027D01A6B0192019A42F04F020192019A00
:1025800022F010020192019A1A631A6B12F0100FD6
:10259000FBD11A6B12F0100FFBD11A6B0292029A48
:1025A00042F04F020292029A42F010020292029A04
:1025B0001A631A6B12F0100FFBD01A6B12F0100F87
:1025C000FBD01A6B0392039A42F04F020392039AD4
:1025D00022F010020392039A1A631A6B12F0100F82
:1025E000FBD11A6B0492049A42F04F020492049AAF
:1025F00022F001020492049A1A631A6B12F0010F7E
:10260000FBD16B1E03EB8302064B03EB82035A7C68
:102610006FF383025A7488E784010020004003406E
:10262000A1124000280D0020611240004FF4004329
:102630004360704770B582B00B200A4B98470A4E32
:1026400000240094234622464FF400713046074D83
:10265000A8470094234622464FF480613046A8479D
:1026600002B070BDA92E4000000E0E40692D400042
:1026700070B51D20274DA847274C0023274A28491D
:102680002046284EB04700231A460F212046264EEA
:10269000B047002211462046244B9847E36C43F490
:1026A0007F03E36445F25553A36401212046204B88
:1026B0009847204B984720461F4B98471F4B186060
:1026C0001F4A204B1A60204A204B1A60204C4FF0C2
:1026D0000053C4F88031402684F81D63236017201E
:1026E000A8471C4D4CF20302002128461A4B98477C
:1026F0004CF2503200212846184B984710220021F6
:102700002846174B984784F817634FF4000323605B
:1027100070BD00BFA92E4000008003400024F400DB
:10272000006CDC02590E40009B0E40008D0E4000F4
:10273000C10E400035264000D50E40000C0E002092
:10274000000E0020F40D0020E80D0020CC0D00202C
:1027500000E100E000000140852F4000A52F40006F
:10276000AD2F400010B53348334B984710F0006F41
:1027700000D110BD4FF400713048314B9847314BB8
:102780001B68002B38D1304C304A00212068304B78
:102790009847012120682F4B984726482E4B984791
:1027A0000122284B1A602D4B2D4903F1100431F8FA
:1027B000020B1A68024443F8042BA342F7D14FF4EA
:1027C00000711E48274B9847274A1368013B136046
:1027D000002BCED11C4C01212068244B98470022AD
:1027E000234920681A4B98470122224B1A60224B3A
:1027F0001A681D4B1A60BCE7134C1D4A0021206863
:10280000134B984701212068124B98470948124BF7
:10281000984700220B4B1A60104B184903F1100423
:1028200031F8020B1A68024443F8042BA342F7D193
:10283000C5E700BF00800340BD0E4000000E0E4003
:10284000612D4000680D00200C0E0020CC0D0020F2
:102850002D2D4000452D4000B70E4000D80D002022
:10286000000E0020652D4000F00D0020512D40008D
:10287000F40D00206C0D0020080E0020E80D002053
:1028800010B500211448154B984710F0100F00D1D7
:1028900010BD4FF480611248124B9847124A1368DA
:1028A000013B136033B90021104B19600A48104BEB
:1028B0009847EDE70F4C104A10492068104B984795
:1028C0000022104B1A60012120680F4B98470F48D7
:1028D0000F4B984710BD00BF00000140B52F4000CE
:1028E000000E0E40972D4000100E0020640D0020B9
:1028F0009D2F40000C0E0020CC0D0020F40D002078
:102900002D2D4000680D0020452D40000080034023
:10291000B70E400070B58EB00126CE7300230B7445
:1029200001AC084D0FCD0FC495E80F0007C424F883
:10293000023B1B0C23701E2101A8034B9847304615
:102940000EB070BDDC7B40000508400070B58EB055
:102950000126CE730E7401AC064D0FCD0FC495E861
:102960000F0084E80F001F2101A8034B9847304651
:102970000EB070BDFC7B40000508400030B58FB044
:102980000023CB7301AC074D0FCD0FC495E80300B6
:1029900044F8040B2180152101A8034B984701201E
:1029A0000FB030BD1C7C40000508400000B58FB062
:1029B00002880A80054901A8054B9847C1B201A8C1
:1029C000044B984701200FB05DF804FB987B400052
:1029D000513440000508400000B58FB002888A805D
:1029E000054901A8054B9847C1B201A8044B984777
:1029F00001200FB05DF804FB147B4000513440000F
:102A00000508400000B58FB002884A80054901A83A
:102A1000054B9847C1B201A8044B984701200FB05D
:102A20005DF804FB687B400051344000050840001D
:102A300010B590B0831E1131841D33F8022F01F8B8
:102A4000012BA342F9D143880288C1880191818872
:102A50000091054903A8054CA047C1B203A8044B47
:102A60009847012010B010BDB87B400051344000A1
:102A70000508400010B58EB04288038801EB430181
:102A8000CA8043880288054901A8054CA047C1B205
:102A900001A8044B984701200EB010BD487B4000B0
:102AA00051344000050840002DE9F84F82460F469A
:102AB00016460023138153819381D381984699460A
:102AC000244C254DDFF894B0002F3DD0A0470028BE
:102AD000FCD0A847C0B20D2812D02C281BD0082843
:102AE0001FD0A0F13003DBB2092B18D806EB480247
:102AF000138903EB830300EB4303303B13810EE0A8
:102B000008F101039A4522D08146BAF1000FDBD1CA
:102B10000120BDE8F88F08F101085FFA88F88146C6
:102B2000D2E7B9F12C0F07D006EB48021389ABFBB3
:102B30000313DB081381F2E7B8F1000FF4D008F1BA
:102B4000FF385FFA88F8EAE70020BDE8F88F012037
:102B5000BDE8F88F29044000B1064000CDCCCCCCB4
:102B600008B5413832286BD8DFE800F0426A6A6065
:102B7000564C6A6A6A6A6A6A6A6A6A6A6A381A2EA5
:102B80006A6A6A6A6A6A6A6A6A6A6A6A6A6A6A6AA5
:102B90006A6A6A6A6A6A6A6A6A6A6A6A6A6A240045
:102BA00053230B702A4B4B600A4664210020294BAB
:102BB000984708BD73230B70274B4B600A4664216E
:102BC0000020244B984708BD54230B70234B4B60C7
:102BD0000A46642100201F4B984708BD52230B7002
:102BE0001F4B4B600A46642101201A4B984708BDD1
:102BF00041230B701B4B4B600A4664210120154B8F
:102C0000984708BD46230B70174B4B600A4664215A
:102C10000120104B984708BD45230B70134B4B60A8
:102C20000A46642104200B4B984708BD44230B70CF
:102C30000F4B4B600A4664210220064B984708BDA3
:102C4000002008704860088148818881C88108BDDB
:102C500015294000A92A40004D2940007D29400047
:102C6000AD294000D9294000052A4000312A400002
:102C7000752A400010B53E2100200A4B98470A4CA7
:102C8000A0470028FCD0094B9847094A094BDA6253
:102C9000094CA0470028FCD00120084B9847084B5E
:102CA000984710BD092E40005D2E40008D2E40003B
:102CB000033F110000040E40992E4000512F4000A8
:102CC000652F400010B50E480E4B98473E2100205E
:102CD0000D4B98470D4CA0470028FCD00C4B984753
:102CE0000C4A0D4B9A620D4CA0470028FCD01020D6
:102CF0000B4B98470B4B98470B48024B984710BD1E
:102D00000090D003A1000020092E40005D2E40005D
:102D10006D2E4000033F172000040E407D2E400022
:102D2000A52D400069304000006CDC020B4619B153
:102D3000096801605B6843601AB1136803615368F6
:102D40004361704721F0FE01C905C90D016270475A
:102D500021F4FE7121F001018905890D016270479E
:102D6000016370474163704710B4019C416444B9EA
:102D7000016643B1016542B941630161016010BC64
:102D800070474166F5E74165F5E70163F5E7C06C1B
:102D90007047806C7047836B0B4214BF41630163C3
:102DA00070470000174A136B23F070031843106339
:102DB000936E13F0080F0AD14FF4006311498A6E25
:102DC00012F0080F03D1013BF9D1012070470D4AE1
:102DD000136B23F0030343F002031363936E13F0AA
:102DE000080F0AD14FF4006306498A6E12F0080FEB
:102DF00005D1013BF9D10120704700207047002028
:102E0000704700BF00040E40C8B9114A136A090296
:102E100089B223F45C1323F0030343F45C1343F0FF
:102E200001030B431362936E13F0010FFBD0084AAA
:102E3000136A43F09B7343F4803313627047044971
:102E40000B6A044A1A40044B13430B62704700BFDD
:102E500000040E40FCFFC8FE02003701024B986ED2
:102E600000F48030704700BF00040E404FF0005265
:102E7000014B9A62704700BF00040E40024B986EEF
:102E800000F00200704700BF00040E400022014B1A
:102E9000DA62704700040E40024B986E00F00400A6
:102EA000704700BF00040E4022281ED81F280CD8EF
:102EB000114B9A6901238340934318D0012303FAED
:102EC00000F00D4B18610020704720380A4BD3F8F2
:102ED00008210123834093430BD0012303FA00F020
:102EE000054BC3F800010020704701207047002007
:102EF00070470020704700BF00040E40222822D8EF
:102F00001F280ED8114B9A6901238340934301D0A7
:102F100000207047012303FA00F00C4B5861002099
:102F200070472038094BD3F808210123834093438D
:102F300001D000207047012303FA00F0034BC3F8CF
:102F40000401002070470120704700BF00040E40BC
:102F5000000200F4706040F00100014B986370477C
:102F600000040E408022014B1A60704700040E409E
:102F7000034B1A6FC0F3120010431867704700BF6D
:102F800000040E4010B489014318022444504FF04D
:102F9000FF319962196A5A6010BC70478901022397
:102FA0004350704700EB8111CA61704700EB8111FB
:102FB0004A62704700EB8111086A7047024B18782B
:102FC00080F00100704700BF700D00207047FEE7E1
:102FD00008B51C4B1C4A9A4210D01C4B194A9A4205
:102FE0000CD2013B9B1A23F003030433134416490C
:102FF00051F8040B42F8040B9A42F9D1144B154ACC
:103000009A420AD2013B9B1A23F003030433134470
:10301000002142F8041B9342FBD10F4B23F0604286
:1030200022F07F020D498A6003F16043B3F5804FBF
:1030300003D28B6843F000538B60094B9847094BD0
:103040009847FEE7000000201C7F4000380B00205E
:10305000580E0020380B00200000400000ED00E07A
:1030600079324000B13140003C4B1B6B03F003034D
:10307000032B0ED8DFE803F0021C3838384B5B69AD
:1030800013F0800F14BF4FF400424FF4FA42354B57
:103090001A60324B1B6B03F07003702B55D02F4B13
:1030A0001A6B3049C2F302120B68D3400B607047B1
:1030B0002A4B1B6A13F0807F03D02B4A294B1A60DE
:1030C000E7E72A4A274B1A60244B1B6A03F0700378
:1030D000102B05D0202BDCD1234A224B1A60D8E7D5
:1030E000234A204B1A60D4E71C4B1B6A13F0807FE5
:1030F00018D01D4A1B4B1A60184B1B6B03F00303BF
:10310000022B164A07BF916A926AD16AD26A1548A1
:10311000C1F30A41036801FB0333D2B2B3FBF2F3FC
:103120000360B6E7114A0F4B1A600C4B1B6A03F0A1
:103130007003102B05D0202BDED10B4A094B1A60EF
:10314000DAE70B4A074B1A60D6E7064A13680949C3
:10315000A1FB03135B081360704700BF00040E401F
:1031600010140E4088010020001BB70000093D002C
:1031700000127A00ABAAAAAA0A4B1B6853B1094BEA
:103180001B681A180849914208DB1046054A10606E
:1031900018467047054A034B1A60F0E74FF0FF30BE
:1031A000704700BF740D0020FCBF0020582E002087
:1031B0002DE9F04192B02348234B9847234B984781
:1031C000234B9847234B9847234B9847234B042284
:1031D0005A8042F210721A8006229A8001229A7353
:1031E0001F4EDFF890801F4F0FE005AC1E4D0FCD36
:1031F0000FC495E8030044F8040B24F8021B090CE3
:103200002170162105A8194B9847B0470028FCD01B
:10321000C04701A9C0B2B8470028E6D00F4903A8AB
:10322000029B98470028F0D105AC114D0FCD0FC47B
:1032300095E8030084E80300172105A80B4B984785
:10324000E3E700BF50140E402D264000C52C40007F
:10325000CD2F400071264000B5094000180E002017
:1032600029044000612B40004C7C400005084000D0
:10327000347C4000B106400070B50F4E0F4D761BF8
:10328000B61018BF002405D0013455F8043B984708
:10329000A642F9D10A4E0B4D04F02AFE761BB61059
:1032A00018BF002406D0013455F8043B9847A642C5
:1032B000F9D170BD70BD00BFFC7E4000FC7E4000B7
:1032C000047F4000FC7E4000844641EA000313F086
:1032D000030349D1403A23D30B6803604B68436032
:1032E0008B688360CB68C3600B6903614B69436182
:1032F0008B698361CB69C3610B6A03624B6A43626A
:103300008B6A8362CB6AC3620B6B03634B6B436351
:103310008B6B8363CB6BC36340304031403ADBD26D
:1033200030320BD30B6803604B6843608B6883605B
:10333000CB68C36010301031103AF3D20C3205D391
:1033400051F8043B40F8043B043AF9D2043208D067
:10335000D2071CBF11F8013B00F8013B01D30B88D9
:1033600003806046704700BF082A13D38B07B1D093
:1033700010F00303AED0C3F10403D21ADB071CBF65
:1033800011F8013B00F8013BA4D331F8023B20F8CF
:10339000023B9FE7043AD9D3013A11F8013B00F808
:1033A000013BF9D20B7803704B7843708B788370B4
:1033B0006046704770B4860746D0541E002A41D03C
:1033C000CAB2034602E014F1FF343BD303F8012BE9
:1033D0009D07F8D1032C2ED9CDB245EA05250F2C37
:1033E00045EA054519D9264603F11002103E0F2E75
:1033F00042F8105C42F80C5C42F8085C42F8045C4D
:1034000002F11002F2D8A4F1100222F00F0204F02F
:103410000F041032032C13440DD91E462246043AE1
:10342000032A46F8045BFAD8221F22F00302043272
:10343000134404F003042CB1C9B21C4403F8011B6B
:103440009C42FBD170BC704714460346C2E700BFE4
:103450000EB40146F0B56FF000454FF402774FF619
:10346000FF769CB021AC54F8042B0B4B02910691D3
:10347000186802A923460194ADF8147004950795C5
:10348000ADF8166000F038F80022029B1A701CB0EC
:10349000BDE8F04003B070478C01002020F003012C
:1034A00010F00300C0F1000051F8043B00F1040CDF
:1034B0004FEACC0C6FF000021CBF22FA0CF213434F
:1034C0004FF0010C4CEA0C2C4CEA0C4CA3EB0C0218
:1034D00022EA030212EACC1204BF51F8043B043082
:1034E000F4D0C2F1000102EA0102B2FA82F2C2F1A2
:1034F0001F0200EBD20070472DE9F04FC3B00C461D
:103500000B9192460F930C9002F08CFB03681846C7
:103510001A93FFF7C3FFA3891990190603D52369EE
:10352000002B01F0358000230DF1C809C846159322
:103530001393149318931B9309931693179327933C
:103540002693CDF894909AF800305446EBB1252B91
:1035500002D11AE0252B03D014F8013F002BF9D13A
:10356000A4EB0A058DB1269B279A01332A44072B29
:10357000C8F800A0C8F804502792269300F38A8068
:1035800008F10808099B2B4409932378002B00F0CD
:10359000898000234FF0FF301A468DF877301946A6
:1035A0000D939B46637804F1010A0A900AF1010A1F
:1035B000A3F12000582800F2B783DFE810F04C0395
:1035C000B503B5035403B503B503B503B503B5039C
:1035D000B50359005903B50366001402B5032F0261
:1035E000A503A503A503A503A503A503A503A5039B
:1035F000A503B503B503B503B503B503B503B5031B
:10360000B503B503B5038B02D302B503D302B503EB
:10361000B503B503B5031B03B503B5032003B50319
:10362000B503B503B503B5033402B503B5034B02C7
:10363000B503B503B503B503B503B503B503B503CA
:10364000B503B50376029E03D302D302D30263030C
:103650009E03B503B5036803B5037503DD018C0351
:103660005E03B503F201B5038700B503B50332036A
:103670000F9C236818460D932346002803F104038A
:103680000F9304DA0D9B5B420D934BF0040B9AF8F9
:1036900000308BE725AA0B990C9803F007FB40B983
:1036A000C8466FE7279B23B10C9825AA0B9903F016
:1036B000FDFA0B9B9B8913F0400F099B18BF4FF03D
:1036C000FF330993099843B0BDE8F08F1BF0200F3A
:1036D000119340F0AF810F9A1BF0100F134640F08A
:1036E0009A851BF0400F00F0968500250123148871
:1036F00004320F92002217468DF877200A994A1C4F
:1037000000F010822BF08002079254EA050240F08C
:103710000F82002940F03184002B40F039851BF0E6
:1037200001030E9300F06286302342AE06F8413D5D
:103730000A9B0E9A9342B8BF134608930023129334
:1037400017B1089B01330893079B13F002031093F2
:1037500002D0089B02330893079B13F0840540F0C6
:1037600010830D9B089AA3EB020BBBF1000F40F3F3
:103770000883BBF1100F40F3B287279C43462146D4
:10378000A8461027269A0C9C0B9D06E0ABF1100B67
:10379000BBF1100F03F1080318DD0132AB48103103
:1037A000072A2791269283E88100EFDD25AA294682
:1037B000204603F07BFA00287FF47BAFABF1100BBF
:1037C000BBF1100F4B462799269AE6DC45460C467E
:1037D000984601329D4B5C44072A2794269288E83C
:1037E000080800F3C3829DF8777008F1080887B1D4
:1037F0000121269B0C440B440DF17702072B2794E3
:103800002693C8F80410C8F8002000F3CD8308F10F
:103810000808109B7BB10221269B0C4401331EAA91
:10382000072B27942693C8F80410C8F8002000F34B
:10383000118408F10808802D00F004830A9B0E9A79
:103840009F1A002F37DD102F40F37986804D4246B6
:103850002146B0464FF0100B2E46269B0C9C0B9D2C
:1038600004E0103F102F02F1080215DD0133103182
:10387000072B2791269382E84008F2DD25AA2946E6
:10388000204603F013FA00287FF413AF103F102FE7
:103890004A462799269BE9DC35460C464646904623
:1038A00001333C44072B2794269388E8A00000F3BB
:1038B000708308F10808079BDF0500F16482269BEE
:1038C0000E9901330C44072B2794C8F80060C8F800
:1038D0000410269300F3B38308F10808079B5B07E5
:1038E0003BD50D9B089A9D1A002D36DD102D40F317
:1038F00021871026269B0C9FDDF82CB004E0103D9C
:10390000102D08F1080816DD0133504A1034072B3A
:103910002794269388E84400F1DD25AA59463846C5
:1039200003F0C4F900287FF4C4AE103D102DC84642
:10393000279C269BE8DC0133444A2C44072B279420
:10394000269388E8240008DD25AA0B990C9803F03B
:10395000ADF900287FF4ADAE279C099B0D9A08991C
:103960008A42ACBF9B185B180993002C40F0FB8285
:103970000023C8462693E6E511931BF0200340F090
:1039800045811BF0100240F066841BF0400300F0FC
:1039900062840F9913460A4604320C8800250F9260
:1039A000A8E600250F9A119316688DF87750141D1C
:1039B000002E00F0CD860A9A531C00F01B86294683
:1039C000304602F0F9FB002800F00D87831B0A95B2
:1039D0000E930F94CDF81CB023EAE373089312956D
:1039E0009DF87770ACE69AF800300AF101042A2BB2
:1039F00000F0C287A3F130000928A24600F2188720
:103A000000231C461AF8013B04EB840400EB440439
:103A1000A3F130000928F5D90A94C9E54BF0800BD1
:103A20009AF80030C2E54BF0100B1BF0200F1193F9
:103A30003FF451AE0F9C073424F0070303F1080252
:103A4000D3E900450F92012354E600BFAC7C40004F
:103A5000BC7C40001193002A40F0AD87BE4B1BF0A8
:103A6000200F189340F0E7800F9A1BF0100F1346B9
:103A700040F0D8831BF0400F00F0D48300250433BE
:103A800014880F931BF0010F00F0E38054EA050344
:103A900000F0DF8030239DF844208DF878308DF8D9
:103AA00079204BF0020B022324E60122119300231C
:103AB00011460F98089202681F468DF877300A93D6
:103AC0001293031DCDF81CB00E918DF8A0200F931A
:103AD00028AE39E61193002A40F084874BF0100B92
:103AE0001BF0200F40F075840F9A1BF0100F134647
:103AF00040F09D831BF0400F00F09983B2F9004025
:103B00000433E5170F9322462B46002A73F1000376
:103B1000C0F298830A999DF877704A1C4FF0010310
:103B20007FF4F0AD54EA050200F02982CDF81CB014
:103B3000012B00F00E83022B40F09C824E46189819
:103B4000230943EA0573290904F00F020D461C46B8
:103B5000835C06F8013D54EA0503F1D1A9EB0603A5
:103B60000E93E5E51193002A40F038870F9C1BF077
:103B7000080F04F1070400F0CF8424F0070303F1D9
:103B800008020F921A685B6815921493149B159D96
:103B900023F00044284621464FF0FF326F4B03F0DC
:103BA000F3FD002840F03484284621464FF0FF32D0
:103BB0006A4B03F0CBFD002840F02A8415A80DC8FD
:103BC000149903F0B9FD002840F0D4859DF8777072
:103BD00003231A4608930023614E19460A93614B4A
:103BE0000E92119A2BF0800007901291472AD8BFAD
:103BF0001E46A5E54BF0080B9AF80030D6E44BF0D2
:103C0000100B11931BF020033FF4BBAE0F9C073445
:103C100024F0070303F10802D3E900450F920023C3
:103C200068E51193002A40F0C2864F4B1BF0200F2D
:103C300018933FF419AF0F9C1BF0010F04F1070418
:103C400024F0070303F108020F92D3E900457FF443
:103C50001DAF02234EE59AF8003000297FF4A6AC90
:103C600001222021A2E44BF0010B9AF800309DE4E0
:103C70009AF8003001222B2198E44BF0200B9AF89F
:103C8000003093E44BF0400B9AF800308EE49AF841
:103C900000306C2B03BF9AF801304BF0200B0AF177
:103CA000010A4BF0100B81E4002A40F07C861BF0E7
:103CB000200F40F052841BF0100F40F038841BF0AE
:103CC000400F00F034840F9A136804320F92BDF84D
:103CD00024201A8037E4782330220F988DF8793029
:103CE0001193031D0F93204B046818934BF0020BA4
:103CF0008DF8782000250223FCE41193002A3FF47C
:103D0000EFAE8DF87710EBE600200446A3F130000B
:103D10001AF8013B04EB840400EB4404A3F13000E7
:103D20000928F5D90D9443E41193002A40F04A86FE
:103D3000119A002A3FF4B6AC002301211F460891D6
:103D40008DF8A020CDF81CB08DF877300A9312932F
:103D50000E9128AEF8E400BF787C4000FFFFEF7FB3
:103D60006C7C4000687C40008C7C400025AA0B994C
:103D70000C9802F09BFF00287FF49BACC8469DF88E
:103D80007770279C33E5119B652B40F39A8015A82B
:103D90000DC8149903F0C6FC002800F0938101219E
:103DA000269BB54A0B440C44072B27942693C8F84E
:103DB0000410C8F8002000F3C68308F108081F9B10
:103DC000139A279C934203DB079BDD077FF586ADA3
:103DD000269B199901331A9A0C44072BC8F8002026
:103DE000C8F804102794269300F3C48308F1080848
:103DF000139B5E1E002E7FF771AD102E40F375856C
:103E000022461027269B9D4DDDF830B00B9C05E027
:103E100008F10808103E102E40F3258201331032BD
:103E2000072B2792269388E8A000F1DD25AA2146DA
:103E3000584602F03BFF00287FF43BACC846279A67
:103E4000269BE7E70D9B089A9F1A002F7FF7F6AC99
:103E5000102F40F3A884894D42462146B0464FF0CA
:103E6000100B2E46269B0C9C0B9D04E0103F102F40
:103E700002F1080215DD01331031072B279126933B
:103E800082E84008F2DD25AA2946204602F00EFF0E
:103E900000287FF40EAC103F102F4A462799269B2E
:103EA000E9DC35460C464646904601333C44072B38
:103EB0002794269388E8A00000F39E8208F1080862
:103EC000BCE4139B012B40F34F820123269F1C442B
:103ED0001F44072F2794C8F800602697C8F80430BD
:103EE00000F35F8208F10808199A01371A9B1444FD
:103EF000072F27942697C8F80030C8F8042000F34D
:103F00005C8208F1080815A80DC8149903F00AFC92
:103F1000139B002840F04181013B013701361C44CE
:103F2000072FC8F8006026972794C8F8043000F3DC
:103F3000668108F108081B9A0137144421AB072F4A
:103F400027942697C8F80420C8F800307FF7C4AC3F
:103F500025AA0B990C9802F0A9FE00287FF4A9ABC2
:103F6000C846279CBAE425AA0B990C9802F09EFE3D
:103F700000283FF4FDACFFF79CBBDDF81CB0012B23
:103F800000F07E81022B71D1CDF81CB000240025F9
:103F9000D4E525AA0B990C9802F088FE00287FF43E
:103FA00088ABC846279C86E425AA0B990C9802F09A
:103FB0007DFE00287FF47DABC846279C29E40120C4
:103FC000269B2D4A03440444072B27942693C8F8C4
:103FD0000400C8F8002040F3D88225AA0B990C9859
:103FE00002F064FE00287FF464ABC8461F99279C4A
:103FF00029B9139B1BB9079BD8077FF56FAC19989C
:10400000269B0246013322441A9C072B2792C8F8AC
:104010000040C8F80400269300F3318408F1080832
:104020000029C0F20984139901338C18072B2794B7
:104030002693C8F80060C8F804107FF74DAC25AA95
:104040000B990C9802F032FE00287FF432AB279CCB
:10405000C84643E425AA0B990C9802F027FE0028D5
:104060007FF427ABC846279CFFF7E5BB002400255B
:10407000CDF81CB0494604E0A87C4000BC7C400060
:104080003146E20842EA4572E80804F007030546B3
:104090001446303354EA050201F8013C01F1FF36C1
:1040A000EED1079AD2077FF559AD302B3FF456ADCC
:1040B0003023023906F8013CA9EB01030E930E46AA
:1040C000FFF736BB1F9900297FF779AF129B139A30
:1040D0009342A8BF1346002B1F460BDD269B3C4492
:1040E0000133072B279488E8C000269300F3FB8256
:1040F00008F10808129B002FA8BFDB1B002B1F46EE
:1041000040F3D780102B40F33484BA4D4246214609
:10411000B0464FF0100B2E46269B0C9C0B9D04E0E6
:104120000832103F102F40F3B58001331031072BB8
:104130002791269382E84008F2DD25AA29462046E9
:1041400002F0B4FD00287FF4B4AA4A462799269BC2
:10415000E7E7002D08BF0A2CC0F090804E462046AD
:1041600029460A22002303F04DFB303206F8012DC8
:104170002046294600230A2203F044FB04460D464C
:1041800054EA0503EBD1A9EB06030E93FFF7D0BA6F
:104190000A9B4E460E93FFF7CBBA5E1E002E7FF7AA
:1041A000CAAE102E40F3E38322464FF0100B914D20
:1041B0000C9C04E0103E102E08F1080815DD0137B4
:1041C0001032072F2792269788E82008F2DD25AACB
:1041D0000B99204602F06AFD00287FF46AAA103E7F
:1041E000102EC846279A269FE9DC1446013734442E
:1041F000072F2794269788E860007FF79AAE25AAB4
:104200000B990C9802F052FD00287FF452AA279CCB
:10421000269FC8468FE604321C68002501230F92B2
:10422000FFF768BA1C6804330F9300252AE41C6862
:104230000433E51722460F932B46002A73F100033F
:10424000BFF668AC2D27644265EB45058DF87770A5
:104250000123FFF753BA0F9900250A4604320C6870
:104260000F92FFF747BA144601333444072B2794C3
:10427000269388E860007FF72FABE0E6DDF81CB0FE
:10428000012342AE3034CDF81CB006F8414D0E93F8
:10429000FFF74EBA35460C464646904601333C443D
:1042A000072B2794269388E8A00000F3468208F1A4
:1042B00008081F9A139B9A4245DB079BD90742D4F3
:1042C000139B12989A1A1D1A9542A8BF1546002DE5
:1042D0000EDD2699064401312C440729C8F80060F8
:1042E0002794C8F80450269100F3168208F10808B4
:1042F000002DB4BF1646561B002E7FF7EFAA102ED6
:1043000040F3F38222461027269B3A4DDDF830B069
:104310000B9C04E008F10808103E102EA3DD0133C9
:104320001032072B2792269388E8A000F2DD25AAF9
:104330002146584602F0BAFC00287FF4BAA9C846C4
:10434000279A269BE8E7269B199801331A9904447B
:10435000072B2794C8F80010C8F80400269300F330
:10436000CF8108F10808ABE7079BDA073FF5ADAD51
:104370000123269F1C441F44072F2794C8F8006080
:104380002697C8F804307FF7D4AD25AA0B990C986E
:1043900002F08CFC00287FF48CA9C846279C269F3D
:1043A000C9E525AA0B990C9802F080FC00287FF43F
:1043B00080A9C846279C269F96E525AA0B990C98AC
:1043C00002F074FC00287FF474A9C846279C269F3D
:1043D00099E50F9C073424F0070404F10801D4E99F
:1043E00000230F9114461D46FFF78FBB4E46FFF783
:1043F0009FB900BFBC7C400025AA0B990C9802F025
:1044000055FC00287FF455A9C846279CFFF716BA2B
:10441000159C22462046149C2346214603F0B4F9FD
:10442000002840F073820A9B0133119B23F0200384
:104430000E9300F09C81472B00F0D6804BF48073E4
:104440000793149B1F1E159B0893B7BF3B46002381
:1044500003F100472D231093119B662B00F09081F0
:10446000462B00F0A48002200E9B23A9452B0ABFF7
:104470000A9B0A9D5D1C8DE82100049120A81FA9BC
:104480003B460390089A02910C9800F059FB119B4F
:104490000646672B40F0BA811BF0010F00F0238223
:1044A0007419169A0898179B394603F03BF90028AF
:1044B00040F02481239BA34206D230215A1C239230
:1044C0001970239B9C42F9D89B1B13930E9B472B7F
:1044D00000F0A280119B652B40F3A781119B662BF6
:1044E0001F9B129300F07181139B129A19469142FF
:1044F00000F35D811BF0010F40F0F08122EAE273CE
:10450000089367230E921193109B002B7DD10A9381
:104510009DF87770FFF714B924F00704236815930A
:104520006368149304F108030F93FFF72FBB0F9AEE
:10453000136804320F92099A1A60FFF704B8269B99
:10454000AF4DFFF7ADB925AA0B990C9802F0AEFB61
:1045500000287FF4AEA8C84631E40F9A134604330E
:104560000F93099B1168DD171A462B46C1E90023FA
:10457000FEF7E9BF25AA0B990C9802F097FB0028DB
:104580007FF497A8C846279C32E408F108082FE575
:1045900040210C9801F058FB0B9A10601061002824
:1045A00000F0148240230B9A5361FEF7BCBF032036
:1045B0000A9C23A98DE81100049120A81FA903904B
:1045C000089A3B4602910C9800F0BAFA2546064636
:1045D000119B7419462B7FF464AF3378302B00F0B5
:1045E00087811F9D2C445CE70A9B002B08BF012399
:1045F0000A9323E730460A95FEF750FF0F940E907A
:10460000CDF81CB00346FFF7E7B92D2700238DF83E
:1046100077700A93FFF795B81F9B1A4612930333DE
:1046200004DB0A9B19469142BFF65EAF119B023B29
:104630001193129B9DF84420013B002B8DF88420A0
:10464000B4BF2D222B221F93B8BF129B8DF885205B
:10465000B8BFC3F10103092B40F31F810DF1930093
:104660000146684C00E0114684FB0352DD17C5EBA0
:10467000A20505EB8502A3EB42023032092D01F8B9
:10468000012C2B4601F1FF32EDDC30330239DCB274
:10469000884202F8014C40F292810DF186011346E6
:1046A00001E013F8014B834201F8014BF9D10133CA
:1046B0009B1A0DF18602134421AA9B1A139A1B938D
:1046C000012A13440E9340F348810E9B199A134418
:1046D0000E9323EAE37308930023129314E7279CB5
:1046E000269AFFF776B825AA0B990C9802F0DEFA05
:1046F00000287EF4DEAFC846279CFBE42346E3E6B1
:1047000025AA0B990C9802F0D1FA00287EF4D1AFBB
:10471000C8461F9A279CD3E525AA0B990C9802F04E
:10472000C5FA00287EF4C5AF1F9A139BC846279C84
:104730009A1ADDE5269BFFF7FEB825AA0B990C987F
:1047400002F0B4FA00287EF4B4AFC846279CB0E566
:104750000A9B3746062B28BF06230A961296089313
:104760000F94CDF81CB00E93274EFEF7E9BF062339
:104770000A9363E62D231F468DF87730FFF728BA9A
:1047800003200A9C23A98DE81100049120A81FA9E9
:104790000390089A3B4602910C9800F0D1F9254607
:1047A0000646041919E7269B154DFFF77EBB199A9B
:1047B000139B1344129A0E93002A40F3C78023EAF6
:1047C000E3730893672311939EE6002B40F3E18087
:1047D0000A9A002A40F0B0801BF0010F40F0AC8034
:1047E00008930E9390E60A9B0F9408930E930A90F9
:1047F000CDF81CB012909DF87770FEF7A1BF00BFF6
:10480000BC7C400067666666A07C4000119B472B1D
:104810007FF446AE1BF0010F7FF4DAAE239B9B1BA7
:1048200013930E9B472B3FF4F7AE1F9B129300E7A9
:1048300000200A90FEF7BCBE4F42103135DA10243A
:104840006A4DDDF830B004E008F10808103F102F81
:104850002CDD01331032072B27922693C8F8005025
:10486000C8F80440F0DD25AA0B99584602F01EFA5C
:1048700000287EF41EAFC846279A269BE6E725AAA5
:104880000B990C9802F012FA00287EF412AFC84679
:104890001F99279A269BFFF7C3BB302213448DF83C
:1048A00087308DF8862022AB06E7504D01333A441D
:1048B000072B88E8A0002792269308F108087FF7C5
:1048C000B2AB25AA0B990C9802F0F0F900287EF4FF
:1048D000F0AEC846279A269BFFF7A5BB129B199AF4
:1048E00013440E936BE7239BEEE5269B3F4DBBE401
:1048F000169A0898179B394602F014FF00287FF497
:1049000070AEC5F101051F952C44CAE5149B384EC5
:10491000002BBEBF2D231F468DF877304FF00303C9
:104920001A4608934FF00003A8BF9DF87770194608
:104930000A93304BFFF754B9129B199A13440A9A01
:104940001A4422EAE2730E920893DDE5129B0E9A56
:10495000C3F101031A441346C3E71BF0010312938A
:104960007FF4B3AE0E9B23EAE3730893CCE51F4DAF
:104970003CE4269B1D4D91E40F9D9AF80130286878
:10498000A24640EAE0700A90284604300F90FEF7F5
:104990000DBE0A9B13B91BF0010F02D0199B013306
:1049A000CDE701231CE78DF87710FFF780B98DF86C
:1049B0007710FFF73AB98DF87710FFF74FB80DF180
:1049C000860379E68DF87710FFF7B2B94FF0FF3222
:1049D0000C2309920C9A1360FEF774BE8DF87710C1
:1049E000FFF7C4B88DF87710FFF778B8BC7C4000AB
:1049F000747C4000707C4000024B13B1024800F010
:104A000005B87047000000008559400000230146AA
:104A10001A46184602F0D4B92DE9F04F03690F6920
:104A200083B09F4200F38880013F01F1140600F13A
:104A3000140A56F827305AF827200133B2FBF3F84E
:104A4000BB00009306EB030953440193B8F1000F38
:104A50003BD00023B4461C46D6465CF8042BDEF857
:104A600000501FFA82FB08FB0B33120C4FEA134B6A
:104A700008FB02BB9AB2A21AABB21FFA8BF41A441B
:104A8000C4EB154404EB224492B242EA0442E145ED
:104A90004EF8042B4FEA24444FEA1B43DDD2009B1F
:104AA0005AF803308BB9019C231F9A450CD254F855
:104AB000043C4BB9A4F1080302E01A68043B1AB99C
:104AC0009A4507F1FF37F8D30761044601F028FE45
:104AD00000282DDB5546002308F1010856F8041B79
:104AE00028688AB29A1A0B0C81B20A44C3EB1043AD
:104AF00003EB224392B242EA0342B14545F8042B4C
:104B00004FEA2343EAD25AF827200AEB87037AB9FF
:104B10001A1F92450BD253F8042C42B9083B02E00D
:104B20001A68043B1AB99A4507F1FF37F8D3276191
:104B3000404603B0BDE8F08F002003B0BDE8F08F21
:104B40002DE9F04F056C9BB0044692469B46279E8C
:104B50004DB10123426C29469340AB606A6001F07D
:104B600007FC00232364BBF1000F5D4635DB002307
:104B700033609D4BAB4315D000220023504659466D
:104B800002F0D0FD804600282DD00123269A136024
:104B9000289B002B00F0BD809448186001381BB0A2
:104BA000BDE8F08F42F20F73269A1360BAF1000F3E
:104BB0000DD1C5F3130555B9289B8D48002BEED0B8
:104BC00000F10803289A13601BB0BDE8F08F289B02
:104BD0008848002BE3D0C31CF4E701232BF00045E9
:104BE0003360AB46C5E718AA19AB01920093524651
:104BF0005B46204601F03EFE2B0D814671D05046AB
:104C0000CBF3130242F07F51189FA3F2FF36CDF889
:104C1000508041F440110022774B02F067F96CA3F9
:104C2000D3E9002302F016FB6BA3D3E9002302F0C3
:104C30005FF9CDE90201304602F0A6FA68A3D3E994
:104C4000002302F007FB02460B46DDE9020102F0F9
:104C50004FF9CDE9040102F0ADFD002202900023DE
:104C6000DDE9040102F068FD002840F06D81029D3D
:104C7000162D00F257816149524601EBC5015B4692
:104C8000D1E9000102F076FD002800F0BE816B1E24
:104C9000029300230E93BF1B7B1E089300F14E81ED
:104CA00000230A93029B002BC0F23F81089A0D93C8
:104CB00011461944002308910C93249B092B2AD8F0
:104CC000052B40F358860025043B2493249B023B8C
:104CD000032B00F23F86DFE813F0CE03C302D903B3
:104CE0005B04189F199E3E4406F23243202B40F38A
:104CF0008781C3F1400306F212409D402AFA00F07A
:104D0000284302F031FA0123013E1493A1F1F87116
:104D100081E73B4843E7002120466164259101F08B
:104D200001FB4FF0FF3307930F930123259A049063
:104D3000206424920B93199B002BC0F2D380029A1B
:104D40000E2A00F3CF802D4B03EBC203D3E90023DF
:104D5000CDE90823259B002BC0F2B483DDE908567A
:104D600050462A463346594602F09EFB02F022FD89
:104D7000804602F009FA2A46334602F06BFA0246F0
:104D80000B465046594602F0B1F8079E049F08F1C1
:104D90003005012E3D7002460B4607F1010564D037
:104DA0000022184B02F056FA0022002306460F4656
:104DB00002F0B8FC002840F08280CDF828904FF037
:104DC000000ADDE908894FF0000B0B9429E000BFD1
:104DD00061436F63A787D23FB3C8608B288AC63F01
:104DE000FB799F501344D33F0000F07FA97C400023
:104DF000CC7C4000D87C40000000F83F187D40008B
:104E0000A87C4000000024400022814B02F022FADE
:104E100052465B4606460F4602F084FC002840F0EE
:104E2000BA8342464B463046394602F03DFB02F01B
:104E3000C1FC044602F0A8F942464B4602F00AFAC9
:104E400002460B463046394602F050F804F130066F
:104E500005F8016B049E079FAE1BBE4202460B463F
:104E6000D2D1A046DDF828900B9C1046194602F0DE
:104E70003FF806460F4602460B46DDE9080102F000
:104E80005BFC48B9DDE9080132463B4602F04AFCCA
:104E9000A8B118F0010F12D015F8018C6B1E049AFE
:104EA00004E09A4200F0028413F8018DB8F1390F42
:104EB00003F10105F5D008F1010883F800804946A7
:104EC000204601F055FA0022029B2A70269A0133EF
:104ED0001360289B002B00F09F8304981D601BB07B
:104EE000BDE8F08F0B9A002A3ED0249A012A40F3A5
:104EF0001183079B0C9A5F1EBA42C0F29083D71BA6
:104F0000079B002BC0F28C840A9D079B0A9A012103
:104F10001A440A92089A20461A44089201F0C4FAE8
:104F2000064623E001230E93B5E600230A9A0D936B
:104F3000029BD21A5B420A920C93BEE6C7F10103B0
:104F40000A9300230893ADE6029D284602F01CF95F
:104F500002460B46DDE9040102F0E4FB00287FF481
:104F600086AE6B1E029382E60AADE0CD002D0CDD0D
:104F7000089900290B4608DDA942A8BF2B460A9ACA
:104F8000ED1AD21ACB1A0A9208930C9BD3B10B9B41
:104F9000002B00F0B882002F10DD31463A46204643
:104FA00001F01EFB4A4601460646204601F086FAFD
:104FB000034649462046994601F0DAF90C9BDA1B74
:104FC00040F0A2820121204601F06EFA0D9B80463E
:104FD000002B1FDD01461A46204601F001FB249BF1
:104FE0008046012B40F3558200230C93D8F81030F3
:104FF00008EB8303186901F007FAC0F1200013E001
:10500000C3F120050AFA05F07BE60E9043E600BFE7
:1050100000002440249B012B40F3858200230C9345
:105020000D9B0120002BE1D1089A104410F01F00C5
:1050300000F0A180C0F12003042B40F386840A9B7A
:10504000C0F11C0003440A9313460344054408932B
:105050000A9B002B05DD49461A46204601F010FB4D
:105060008146089B002B05DD41461A46204601F08B
:1050700007FB80460E9B002B40F08680079B002B91
:1050800040F364820B9B002B00F09880002D05DD1F
:1050900031462A46204601F0F3FA06460C9B002BC7
:1050A00040F036830896079B049A013BD3180B9374
:1050B00017460AF00103C246DDF820B00C935146B2
:1050C0004846FFF7A9FC31460546484601F028FB53
:1050D0005A4607905146204601F03EFBC268804682
:1050E00005F13003002A40F02982014648460A9320
:1050F00001F016FB41460890204601F039F9089A64
:105100000A9B32B9249921B90C9A002A00F0EE8347
:10511000249A07990029C0F29F8205D1249919B9D0
:105120000C99002900F09882002A00F305830B9A5D
:1051300007F1010897423B70454600F00B83494652
:1051400000230A22204601F01DF95E4581463146C2
:105150004FF000034FF00A02204600F0E98101F011
:1051600011F95946064600230A22204601F00AF9A1
:1051700047468346A3E71C200A9B054403440A9341
:10518000089B0344089363E74146484601F0C8FA88
:105190000028BFF673AF029F494600230A2220462B
:1051A000013F029701F0EEF80B9B8146002B40F087
:1051B000B5830F9B002B40F3BE830793DDF810A04F
:1051C000079F554606E0494600230A22204601F083
:1051D000D9F8814641464846FFF71EFC303005F8B5
:1051E000010BA5EB0A03BB42EDDB049B079A824649
:1051F000012AACBF9B1801334FF0000B1D464946F6
:105200000122204601F03CFA4146814601F088FA2D
:10521000002840F33F8215F8012C6B1E049904E02E
:105220008B4200F0AE8113F8012D392A03F10105FC
:10523000F6D001321A704146204601F099F8002E4E
:105240003FF43DAEBBF1000F05D0B34503D0594646
:10525000204601F08DF83146204601F089F82EE60F
:1052600000230B93029B259A13440F930133012BC8
:105270001F461E46B8BF012707930021172F616400
:105280000AD9012204235B0003F11400874211466E
:1052900002F10102F7D26164204601F043F80E2EBC
:1052A000049020643FF647AD002D3FF444AD0299D1
:1052B000CDE910AB002940F30382B94B01F00F0296
:1052C0000D1103EBC203E906D3E9006740F1AF819A
:1052D000B44B5046D3E90823594602F0E5F84FF0A5
:1052E000030ACDE9120105F00F058DB1DFF8B48294
:1052F000EA0709D5D8E900233046394601F0AAFF6C
:1053000006460F460AF1010A6D1008F10808EFD1B0
:105310003B46DDE91201324602F0C6F807468846F0
:105320000E9B43B10022A04B3846414602F004FADE
:10533000002840F08782504601F026FF3A46434657
:1053400001F088FF994B002201F0D2FD079B054632
:10535000A1F15076002B00F03F81029B1593079B33
:1053600012930B9B002B00F0FB81129A8C4B0020B8
:1053700003EBC20353E902238D4902F095F82A4654
:10538000334601F0B3FD82468B463846414602F073
:1053900011FA054601F0F8FE02460B463846414632
:1053A00001F0A4FD30355FFA85F8049D06460F46EE
:1053B00085F8008002460B4650465946013502F0FA
:1053C000D9F9002854D132463B460020764901F0F5
:1053D0008DFD02460B465046594602F0CBF9002897
:1053E00040F07082129A012A00F01281129B049AF6
:1053F000CDF84890134499460FE032463B460020D2
:10540000694901F073FD52465B4602F095F90028A8
:1054100040F056824D4500F0F98050465946002232
:10542000644B01F017FF0022624B82468B463046E8
:10543000394601F00FFF0F46064602F0BBF98046E1
:1054400001F0A2FE02460B463046394601F04EFD01
:1054500008F130085FFA88F805F8018B52465B4680
:1054600006460F4602F068F90028C6D0DDF84890DD
:10547000159B029323E500230B93259B002B40F300
:10548000DD801F461E460F930793F6E601230B931C
:10549000F3E7BAF1000F7FF4A7ADCBF31303002BB2
:1054A0007FF4BCAD2BF000473F0D3F05002F00F00F
:1054B0000D820A9B01330A93089B01330893012351
:1054C0000C93ADE5079B002B3FF748AC40F02282E0
:1054D000DDE908010022384B01F0BCFE52465B4674
:1054E00002F03EF9DDF81C804646002841D0259B9D
:1054F000049DDB4302934146204600F039FF002E15
:105500003FF4DDACA7E60C9A4946204601F068F866
:10551000814657E5149A002A00F0888103F233434C
:105520000C9F0A9DF2E4BAF1000F7FF477ADB4E767
:1055300000F028FF474606468346C0E50146204660
:10554000089300F015FF0122089BE2E5249B022B43
:105550007FF798AD079B002BC9D141460522204615
:1055600000F010FF01468046484601F0D9F80028B7
:10557000BDDD3123029A0499013202920B704D1C59
:10558000B9E73123029A01320292049A137052E66B
:1055900001230B9366E6DDF828900B9C8FE400BF97
:1055A000187D4000F07C40000000F03F00001C40EF
:1055B0000000E03F0000244000001440504601F08D
:1055C000E3FD3A46434601F045FE0022C14B01F09F
:1055D0008FFC0546A1F1507641460022BE4B38466D
:1055E00001F084FC2A46334682468B4602F0C2F81C
:1055F0008046002840F010812A4606F100435046BC
:10560000594602F099F818B1464670E7DDF848901F
:10561000DDE910ABFFF78FBB0498FFF7C0BA0C9B16
:105620000D9AFB1A1A440C970D92002768E4DDE9E5
:1056300010234FF0020ACDE9122356E60021012380
:1056400020466164259300F06DFE259B049007932E
:10565000259B20640F9327E6002AD046CDF820B082
:105660009A4611DD49460122204601F009F84146DB
:10567000814601F055F8002840F34581BAF1390F11
:1056800000F0058105F1310AB34687F800A07D1CC2
:10569000089ED0E504D11AF0010F01D0BBE51546F4
:1056A00015F8013C6A1E302BF9D0C4E5302204996C
:1056B0000A70029A15F8018C01320292FFF7FBBBC7
:1056C00000F0BB80DDE91001029B4FF0020A5D4251
:1056D000824B05F00F0203EBC203D3E9002301F074
:1056E000B9FD2D11074688463FF41AAE7C4EEB07F4
:1056F00009D5D6E900233846414601F0ABFD0746FF
:1057000088460AF1010A6D1006F10806EFD107E696
:105710007168204600F006FE0546336906F10C016B
:1057200002339A000C30FDF7CFFD294601222046B6
:1057300000F0A6FF0890B6E4392BCDF820B0D04693
:1057400000F0A58003F1010AB34687F800A07D1C94
:10575000089E70E55A46D046B3469A4616464EE530
:1057600012985E492A4601EBC001334651E9020115
:1057700001F070FDCDE916013846414602F01AF8F5
:10578000054601F001FD02460B463846414601F050
:10579000ADFB06461298049A3035012815700F4665
:1057A00002F1010526D0129B049ACDF848901344CB
:1057B0004FF0000A9946DFF830B152465B4630465A
:1057C000394601F047FD0F46064601F0F3FF8046DB
:1057D00001F0DAFC02460B463046394601F086FB02
:1057E00008F1300805F8018B4D4506460F46E4D117
:1057F000DDF848900022DDE916013A4B01F078FB14
:1058000032463B4601F098FF002846D0159B029394
:1058100015F8018CFFF742BB4FF000084646A8E69A
:105820000A9B079A9D1A0023FFF770BB189B0C9FD9
:10583000C3F136030A9DFFF769BBDDE910784FF02D
:10584000020A6DE5079B002B3FF4B8AE0F9B002BBF
:105850007FF7DEAE0022244B3846414601F0FAFCC9
:10586000074688460AF1010001F08EFC3A4643469D
:1058700001F0F0FC0022174B01F03AFB029A0F9B5B
:10588000013A05461592A1F15076129369E5392245
:10589000B3463A70089E7D1CBFE4DDE91623002064
:1058A000104901F023FB32463B4601F063FF08B983
:1058B000AEE6154615F8013C6A1E302BF9D0D7E547
:1058C000DDF84890159B0293FFF7E8BA0C97FFF7B5
:1058D000A7BB00BF00001C4000001440187D400022
:1058E000F07C40000000E03F00002440392BCDF860
:1058F00020B0D046DDF81CB09A46C8D0BBF1000FEE
:105900003FF7C0AEC0E67FF4BFAE1AF0010F3FF420
:10591000BBAEB3E64FF000084646E8E5314600234B
:105920000A22204600F02EFD0F9B0646002B07DDC5
:105930000793FFF7ABBB249B022B1FDC0F9B3CE4C0
:10594000249B022B1ADC0F9BF2E73FF481ABC0F1E2
:105950003C0011E4002520466564294600F0E2FC85
:105960004FF0FF3307930F93012304902595206494
:105970000B93FFF7E0B90125FFF7A8B90F9B079339
:10598000E8E500BF38B50A4C0A4D641BA4100AD0E4
:1059900004F18043013B05EB8305013C55F80439D4
:1059A0009847002CF9D1BDE8384002F0ABBA00BFEF
:1059B000147F4000107F4000F8B50C46234F064688
:1059C00000F0A4FCBB68C4F57E615D680F3125F072
:1059D0000305294421F47F6121F00F01A1F58054D2
:1059E000B4F5805F07DB0021304601F04DF9BB685C
:1059F0002B44984204D0304600F08EFC0020F8BDC5
:105A00006142304601F040F901300DD0104BBA68C8
:105A100019682D1B45F001053046091B55601960BA
:105A200000F07AFC0120F8BD0021304601F02CF98D
:105A3000BA68831A0F2BDEDD064C0549246843F053
:105A40000103001B53600860D5E700BF2807002052
:105A5000780D0020300B0020002944D02DE9F041C2
:105A60000D46804600F052FC55F8047C6949A5F1CA
:105A7000080427F00103E2188E685068B24220F053
:105A800003005ED0FE0750600BD455F8087C01F18E
:105A9000080EE41BA5683B4475456DD0E768EF60D0
:105AA000BD6015186D68ED073ED543F001026260D8
:105AB000E350B3F5007F17D20122DB0898104D6840
:105AC000134451F83370824001EBC3002A43083875
:105AD000E060A7604A6041F83340FC604046BDE8A2
