S00B00004461712E7372656303
S214400000704B0020C5394000C3394000C33940001A
S214400010C3394000C3394000C339400000000000E7
S214400020000000000000000000000000C33940004F
S214400030C339400000000000C3394000C3394000C7
S214400040C3394000C3394000C3394000C33940007B
S214400050C3394000C3394000C3394000C33940006B
S214400060C3394000C3394000C3394000AD0F40009B
S214400070C10F4000C3394000C3394000C339400077
S214400080C3394000C3394000C3394000C33940003B
S214400090C3394000C3394000C3394000C33940002B
S2144000A0C3394000C3394000C3394000C33940001B
S2144000B0C33940003D2D4000C3394000C33940009D
S2144000C0C3394000C339400091154000C339400051
S2144000D010B5054C237833B9044B13B10448AFF33D
S2144000E000800123237010BD600C0020000000003B
S2144000F0948C40000C4B43B10C4810B50C49AFF300
S21440010000800C48036823B910BD0A48036833B919
S2144001107047094B002BF7D0BDE810401847064BF8
S214400120002BF5D0184700BF00000000948C40001C
S214400130640C0020948C4000000000000D49002311
S2144001400B700D4A13800D4AA1201070202050706D
S214400150538093800220D0801381094A094810605A
S21440016013715371082393710B780133DBB20B7014
S21440017001207047870C00201C0F0020B41100207F
S214400180800C002040420F00024A1378013BDBB24D
S21440019013707047870C0020044A1378013BDBB28B
S2144001A0137013780022024B1A707047880C002098
S2144001B07E0C002000207047002070471D4B1B78A7
S2144001C013F0800F05D103F06003202B18D00020D9
S2144001D0704703F06003202B01D000207047154B7A
S2144001E05B78212B24D1134BDB88072B01D00020D2
S2144001F07047104B104A9A6007229A810120704738
S2144002000C4B5878202804D0222814BF0020012008
S2144002107047084BDB88072B01D000207047054B02
S214400220064A1A61044A9A6007229A81012070475A
S21440023000207047DC120020800C00204102400065
S21440024070470000454B1B7803B1704770B584B0CB
S214400250434B9847002842D0424B1C88424B984715
S214400260844279D0EFF31083B3FA83F35B090393A8
S21440027072B6BFF35F8F00223C4B1A70039D3C4B17
S2144002801C78E4B23B4B33F81430002B2ED00022BF
S214400290394B1A80394B1B78002B43D1B4FA84F380
S2144002A05B09334A137001222C4B1A7025B12F4B31
S2144002B01A70BFF35F8F62B626462E4B33F8143063
S2144002C0B3F5A07F14BF0125002534D0244B9847B2
S2144002D000282BD0244B9847224B18802EE0214BE9
S2144002E01C88274B98478442BCD135E0224A138865
S2144002F0013313801A4B984718B91F4B1B88632B42
S21440030008D9174B98470028C1D01B4B1B88B3F51C
S214400310487FBCD205B30122144B1A70BFF35F8FDF
S21440032062B619E0B4FA84F46409BCE7144B984703
S2144003300C4B188002E000220A4B1A800D4B33F813
S214400340163004EB84040F4A00920F4A02EB8412E4
S214400350294681200D4CA04704B070BDB011002046
S214400360F11F4000AC1100205D204000A802002094
S214400370A8110020A41100207C0C0020200F002093
S2144003804D204000A1034000240F0020B52340002C
S21440039008B50020014B984708BD00BF4502400005
S2144003A0B0B908B50B4B1B78B3FA83F35B09002250
S2144003B0094820F81320094B1A70094B1A7019B9CE
S2144003C00020084B984708BD1046074B9847F7E76C
S2144003D0704700BFA8110020A4110020200F002065
S2144003E0B0110020450240001927400082B0EFF3CC
S2144003F01083B3FA83F35B09019372B6BFF35F8F42
S21440040000220B4B1A7001990A4B188883B20A4A8D
S2144004101278D2B2094830F8120080B2C01A29B118
S2144004200122034B1A70BFF35F8F62B602B070476B
S214400430A8020020140F0020100F00200C0F0020F0
S21440044008B50020014B984708BD00BFED034000AB
S21440045008B5034B9847003018BF012008BD00BFC1
S214400460ED03400010B584B0EFF31083B3FA83F386
S2144004705B09039372B6BFF35F8F0022224B1A705C
S214400480039B224A1478224A12784AB9E4B2214A97
S214400490118889B2204A32F8142092B291420AD288
S2144004A0002B2FD00122184B1A70BFF35F8F62B615
S2144004B0002004B010BD0021164A1180B4FA84F220
S2144004C0520912490A700121114A117023B10E4B8C
S2144004D01970BFF35F8F62B60020104B984768B91B
S2144004E004EB84040E4B00934FF4A0730D4A02EBCA
S2144004F08412012102200C4CA047DAE700200B4B67
S2144005009847EDE70020D4E7A8020020100F00200F
S214400510180F0020140F00200C0F0020510440003C
S214400520C50540008C0C0020B5234000092740003C
S21440053010B50024164B1C70164B1C70164B1C70C6
S214400540164B1C70164B1C805C80164B1C8020463D
S214400550154B9847154B1C70154B1C70154B1C8043
S2144005605C80154B1C802046144B9847014640B192
S214400570074A13780133DBB213701378DBB2012BD2
S21440058001D0084610BD01220D4B1A70F9E700BF96
S214400590880C0020B0110020200F0020A811002059
S2144005A0A4110020AC11002045024000180F002086
S2144005B0100F00200C0F0020140F00206504400090
S2144005C07E0C002000BB10B582B010460F4B1B7847
S2144005D0B3FA83F35B0951B189B20D4A22F813107E
S2144005E000200C4B18700C4B984702B010BD9A0078
S2144005F01A440A4B00934FF4A073094901EB821248
S2144006000121084CA047F0E7704700BF100F0020BC
S2144006100C0F0020180F002065044000C505400060
S2144006208C0C0020B52340002DE9F04782B0284BC3
S21440063093F80680B8F1090F14BF4FF000084FF04A
S21440064001080020234C81460746234D234E04E0F4
S2144006508B4227D3224B1B78F3B1EFF31083B3FAC8
S21440066083F35B09019372B6BFF35F8F2770DDF8A3
S21440067004E02B889BB23278D2B21A4931F8121075
S21440068089B2BEF1000FE3D04FF0010E84F800E0CF
S214400690BFF35F8F62B6DBE74FF0000A504602B00A
S2144006A0BDE8F08702EB82020F4901EB821212F896
S2144006B003A04AEA000A01339BB22B8048460B4B04
S2144006C09847B8F1000FE9D04FEA0A20C846C4E779
S2144006D0800C0020A8020020140F0020100F0020DD
S2144006E07E0C00200C0F00208C0C0020650440007F
S2144006F008B50020014B984708BD00BF29064000BA
S21440070082B0EFF31083B3FA83F35B09019372B6BA
S214400710BFF35F8F0022144B1A70019A134B1B785D
S214400720DBB2134931F81300B0F5A07F0AD0C0F50C
S214400730A0702AB101220C4B1A70BFF35F8F62B6CD
S21440074002B070470B4909780029F0D10A49097868
S2144007500029ECD1012008490870B3FA83F35B09FD
S21440076002490B700020E2E7A8020020A8110020F2
S214400770A4110020B0110020200F002008B5034B24
S2144007809847003018BF012008BD00BF0107400051
S2144007902DE9F04F83B01746234B9B79092B08BFB2
S2144007A057008846DFF898A032E0EFF31083B3FA9C
S2144007B083F35B09019372B6BFF35F8F00231B4A36
S2144007C01370DDF804B01A4B1D78EDB2DFF8749064
S2144007D039F81560C6F5A074BC4228BF3C4605EB08
S2144007E0850306EB83132246414612481844124BB3
S2144007F09847264429F81560BBF1000F05D0012321
S2144008000A4A1370BFF35F8F62B6A0443F1B07D0FF
S2144008100020D0470028C8D1084B1B78002BF7D1C2
S214400820384603B0BDE8F08F800C0020A8020020B8
S214400830A8110020240F0020A94040007E0C002074
S2144008407D074000A411002008B50A460146002056
S214400850014B984708BD00BF91074000104B1B68EE
S2144008601A6853881A4403781844904211D2437841
S214400870042B10D08B4209D003781844904206D2FD
S2144008804378042B09D08B42F6D107E0704700200E
S214400890704700207047002070470020704700BF18
S2144008A0CC11002008B5034B987800F07F00024B2F
S2144008B0984708BDDC120020F51F4000194B1B78F6
S2144008C04BB3194B1B681B681A79824225D970B402
S2144008D0164A13605C881C44A34220D20025012699
S2144008E007E0124A13600FE01A7813443546A342D5
S2144008F00CD25A78042AF7D19A788242F4D1DA7820
S2144009008A42F1D1002DECD1012002E0074A136063
S214400910002070BC704700207047002070470020C1
S214400920F7E700BFC8110020CC110020D0110020EE
S2144009302DE9F84304460021134B9847804610B9EA
S2144009404046BDE8F883114B1B685B6853F824901B
S214400950D9F80C309847014620460B4B98478046BE
S2144009600028EDD00A4B1C6805260A4D0A4F314632
S2144009702046A847044610B18078B847F7E7D9F82C
S21440098004309847DCE700BFBD084000CC1100208B
S214400990D01100205D084000652140002DE9F0415F
S2144009A08046104B98470346C8B10F4B1C68052637
S2144009B00E4D0F4F31462046A847044638B1828830
S2144009C0C1788078B84703460028F3D107E0094B42
S2144009D01B685B6853F828301B68984703461846E0
S2144009E0BDE8F081BD084000D01100205D08400001
S2144009F06D204000CC11002008B5014B984708BD3B
S214400A00151F400070B50D4B1B7883B10C4B1B680F
S214400A101B681B795BB100240A4E094D2046B0473F
S214400A200134E4B22B681B681B79A342F6D8002237
S214400A30024B1A700122044B1A8070BDC811002068
S214400A40CC11002031094000BE11002038B50D4BB6
S214400A501B78B3B10C4B1B681A6812798AB1002414
S214400A60094D06E00134E4B22B681A681279A242B6
S214400A7007D95B6853F824301B69002BF2D098479F
S214400A80F0E738BDC8110020CC110020F8B5964BD1
S214400A9000229A811A615A611B7813F0800F14D194
S214400AA013F0600F00F0B8808F4B1B7803F01F03E5
S214400AB0012B00F08B818C4B1B7803F01F03022B1D
S214400AC000F0AC8100231846F8BD874AD288002A39
S214400AD000F0CD8113F0600FE6D113F01F0306D16E
S214400AE081494978062913D0082958D049B1012BA5
S214400AF05CD0022BD8D17C4B5B78002B7ED0002379
S214400B0060E1022AD0D102217848794B98479FE08D
S214400B10754B5A88130A013B0E2B00F25081DFE8D2
S214400B2013F00F001C0036004E014E014E014E01E0
S214400B304E014E014E014E014E014E014E012E0019
S214400B406C4B186801786A4B9847674BDA889B89E4
S214400B5093427DD9644B9A817AE0D2B2654B1B684A
S214400B605B7C9342A0D9634B5B6853F83200418864
S214400B705F4B98475C4B9B6802225A70E5E75D4B9B
S214400B809868002890D04188594B9847DDE712F086
S214400B90FF0F89D104215848554B9847D5E7012A7D
S214400BA082D101215548524B984751E04E494978E9
S214400BB00A299ED1012A7FF477AF504B1B78002B31
S214400BC03FF472AF484B1C794D4B1D682B681B7920
S214400BD0A3427FF669AF002120464A4B984700283B
S214400BE03FF462AF6B6853F82430DB689847464B57
S214400BF01870012118463E4B984729E0022A7FF498
S214400C0053AF394B1879414B9847414B18800221D6
S214400C101846374B98471BE013F01F0340F082807E
S214400C20314A5278013A082A7CD8DFE812F013009D
S214400C307B00CA007B0009007B007B007B00230012
S214400C40294BDB88002B7FF42FAF324A264B1A61A4
S214400C50012338E7244BDB88002B7FF425AF224B5B
S214400C605B88012B7FF420AF204A138823F00203D1
S214400C701380EDE71C4BDB88002B7FF415AF264B2B
S214400C80984700283FF410AF174B9A78194B1B68CB
S214400C905B7C9A423FF708AF204B9847124B9B78B5
S214400CA0164A1370002BD3D003F10053013B114A70
S214400CB0526802EBC3001249086052F833301B7981
S214400CC0002BC5D000242646154D0F4631462046FB
S214400CD0A84700283FF4E8AE0134E4B23B681B68FE
S214400CE01B79A342F2D8B3E7DC120020BE110020E5
S214400CF061204000340200200C010020C811002072
S214400D00CC110020BD084000C4110020BD21400089
S214400D10C0110020A508400031204000050A4000D0
S214400D209D094000012B0AD0022B7FF4BDAE524BEA
S214400D305B78012B20D0032B2ED0002342E04E4A76
S214400D4052780B2AF0D14C4BDB88002B7FF4ACAEAC
S214400D504A4B1B78002B3FF4A7AE474B1C795D8867
S214400D602046474B984700283FF49EAEE9B22046BF
S214400D70444B9847034625E03F4BDB88002B7FF4E7
S214400D8093AE3D4B5B88002B7FF48EAE3A4B187982
S214400D903D4B9847034615E0374BDB88002B7FF4E6
S214400DA083AE354B5B88002B7FF47EAE324C207989
S214400DB0364B98472079364B9847034602E0002347
S214400DC000E00023002B7FF47EAE6DE62B4B1B78B5
S214400DD0002B4ED0284B1C792E4B1D682B681B7958
S214400DE0A34201D800236EE6002120462A4B9847AE
S214400DF000283FF460AE6B6853F82450EB68984781
S214400E0001462046244B984700283FF454AEAB6832
S214400E109847034600287FF456AE4CE6174B1B789F
S214400E200BB31C4B1A6813681B79F3B100241A4E97
S214400E30184F536853F82450EB68984701462046AD
S214400E40B047034600283FF43EAEAB68984703469B
S214400E5000287FF438AE0134E4B23A681168097964
S214400E60A142E6D82FE600232DE600232BE60023FA
S214400E7029E6002327E600BFDC120020C811002028
S214400E80310940009D094000DD22400031254000E8
S214400E90FD214000CC110020BD08400030B40124A4
S214400EA004600024446040F20225C0F82051C0F897
S214400EB00441C0F8144145685200B1FBF2F2013AD1
S214400EC0120292B22B431A434260204630BC70470F
S214400ED0436823F0100343604368194341607047FA
S214400EE04368D201D2B219430A434260704710B4F5
S214400EF04468090601F0706121430A43190701F06E
S214400F0040511143416010BC7047012303FA01F180
S214400F10016170474FF6FF73436170474162704707
S214400F2081627047006B7047D0F89430090201F434
S214400F3040711943C0F8941070470000004870474D
S214400F40008103402DE9F84381460F46124B9847EF
S214400F5005464846114B9847054013D0104C04F1BF
S214400F60600603E0B4420DD010345DB12068B8424C
S214400F70F8D161682942F5D0E3689847636825EA66
S214400F800305EFE7074B1B6823B1074B1B680BB104
S214400F9048469847BDE8F8832F374000333740002F
S214400FA0D41100200C1B00204412002008B50B2151
S214400FB00148024B984708BD000E0E40450F4000C2
S214400FC008B50C210148024B984708BD00100E405A
S214400FD0450F400082B0014628BB244B1B781BB906
S214400FE0224B197002B07047214B9B7803B9FEE73D
S214400FF0EFF31083B3FA83F35B09009372B6BFF343
S2144010005F8F00221B4B1A700098194A9378013B59
S21440101093700028E4D00122164B1A70BFF35F8FFE
S21440102062B6DDE7FEE7114B1B78002BD8D1104B9C
S2144010309B78FF2BF6D0EFF31083B3FA83F35B096C
S214401040019372B6BFF35F8F00220A4B1A70019865
S214401050074A9378013393700028C1D00122054B8C
S2144010601A70BFF35F8F62B6BAE700BF491200201E
S214401070D4120020A8020020034A002313615361C3
S2144010809381024A13707047DC1200204E120020F3
S21440109082B005220A4B1A700A4A136B0193019BD1
S2144010A043F04F030193019B43F020030193019BC0
S2144010B01363136B13F0200FFBD002B0704700BFD2
S2144010C04E1200200040034082B003220A4B1A70A2
S2144010D00A4A136B0193019B43F04F030193019B14
S2144010E043F010030193019B1363136B13F0100F2F
S2144010F0FBD002B0704700BF4E12002000400340B5
S21440110008B5024B1B6903B1984708BDDC120020A6
S21440111030B587B0634B1B78032B29D0624B1B88B6
S214401120624A9489E41AA4B2002C44D1604A1188D9
S2144011300B449BB213805D4AD2889A4203D05D4BE3
S2144011401B78002B2BD00422564B1A705A4A136B2E
S2144011500193019B43F04F030193019B23F001034E
S2144011600193019B1363136B13F0010FFBD114E043
S214401170514A136B0093009B43F04F030093009B30
S21440118023F001030093009B1363136B13F0010FCE
S214401190FBD14A4B98474A4B984707B030BD434B24
S2144011A05B69002B5DD0984700285AD000223E4B02
S2144011B01A803E4B9C893F2C53D900223D4B1A70D7
S2144011C040243A4B9968384B1888EFF31083B3FAAB
S2144011D083F35B09059372B6BFF35F8F0022394BEA
S2144011E01A70059D344B1B6B13F0020F3DD14CB16A
S2144011F001440A46304812F8013B0365531ADBB2F5
S214401200A342F8D3284B1A8814441C802A4A136BEE
S2144012100393039B43F04F030393039B43F0100356
S2144012200393039B1363136B13F0100FFBD0224AF8
S214401230136B0493049B43F04F030493049B23F0E7
S21440124001030493049B1363136B13F0010FFBD14C
S214401250002DA2D001221B4B1A70BFF35F8F62B6DF
S2144012609BE70122134B1A70ABE72DB10122154BB9
S2144012701A70BFF35F8F62B604220A4B1A700E4A8A
S214401280136B0293029B43F04F030293029B23F09F
S21440129001030293029B1363136B13F0010FFBD100
S2144012A07BE700BF4E1200204A120020DC120020CE
S2144012B04C1200204812002000400340011140001C
S2144012C079104000A802002038B5437C13F0100F78
S2144012D016D00D46437C6FF30413437404687CB108
S2144012E002F10C03074951F8233013F4806F18BFFE
S2144012F042F080028168012D14BF00200120A047E3
S21440130038BD00BF0040034030B482B0411E830069
S21440131003F1402303F540331A6B1C6B12F0020FA7
S21440132032D014F0400F08D101EB81022A4C04EB76
S2144013308202547C6FF38304547401EB8102264C82
S21440134004EB8202527C12F00C0F28D11A6B0092EA
S214401350009A42F04F020092009A22F00202009257
S214401360009A1A631A6B12F0020FFBD180B303285F
S2144013702ED001EB8101184B03EB81035A7C0121EF
S21440138061F383025A7423E001EB8102124C04EBB2
S2144013908202547C012565F383045474CDE71A6BAE
S2144013A00192019A42F04F020192019A22F04002C5
S2144013B00192019A1A631A6B12F0400FFBD101EBAF
S2144013C08101054B03EB81014B7C6FF383034B7428
S2144013D002B030BC704700BF501200202DE9F043E9
S2144013E083B088468146461E06EB8602664B03EB74
S2144013F0820393F811C0CCF3810C002800F0B7802C
S21440140003280CBF01230223634540F3B28006EB5A
S21440141086035D4A02EB8303DA689B689A4209D3E7
S21440142006EB8601584C04EB8101497C11F0400FD5
S21440143000F0A38006EB8605534901EB85056C68F2
S2144014401444991A2B8AC3F30907B9423ABF0F4688
S2144014504FF0010E4FF0000E06EB86034A4901EBB3
S21440146083033A44DA60072F2BD904F108033D463C
S214401470820002F1402202F5403213F8081C116542
S21440148013F8071C116513F8061C116513F8051CA4
S214401490116513F8041C116513F8031C116513F845
S2144014A0021C116513F8011C1165083D0833072D11
S2144014B0E3D8A7F1080323F0070308331C4407F0DA
S2144014C007074FB1E319314909F1140914F8012B04
S2144014D041F829209C42F9D106EB86032A4A02EBC2
S2144014E083030CF1010C5A7C6CF383025A74B8F1F6
S2144014F0000F14D0800000F1402000F54030036B10
S2144015000193019B43F04F030193019B43F010036B
S2144015100193019B0363036B13F0100FFBD0BEF1E6
S214401520000F08D006EB8603174A02EB83035A7C6B
S2144015306FF386125A7406EB8603134A02EB830354
S214401540DA689B689A421AD306EB86030E4A02EB89
S21440155083035B7C13F0400F13D106EB860602EB49
S2144015608606737C43F080037374002002E00123F8
S2144015704AE7012003B0BDE8F0830020FAE70120E7
S214401580F8E70120F6E700BF501200200040034075
S2144015902DE9F04F9BB0864B984720B9854BDB69C9
S2144015A013F4807F3BD02220834B9847814B9B6926
S2144015B013F4006F04D07F4BDB6913F4006F37D110
S2144015C07C4BDB6913F0010F00F0B681794B1B6B47
S2144015D013F0040F33D1774B1B6B13F0010F40F021
S2144015E0C380744B1B6B13F0020F40F0C080714BEE
S2144015F01B6B13F0080F00F09F816E4A136B00932D
S214401600009B43F04F030093009B23F00803009396
S214401610009B1363136B13F0080FFBD105E072B603
S214401620BFF35F8F0022654B1A701BB0BDE8F08F8A
S2144016304FF400625F4B1A62614B9847F5E7614B87
S2144016401B78CBB95B4B1B6BC3F30A43082B18D0F4
S214401650584A136B0193019B43F04F030193019B40
S21440166023F004030193019B1363136B13F0040FE1
S214401670FBD1554B9847D8E7544B9847544B98471F
S214401680E0E7544B03F108004A490A6D03F8012F7E
S2144016908342FAD1504B984798B9464A136B029307
S2144016A0029B43F04F030293029B23F004030293F2
S2144016B0029B1363136B13F0040FFBD1424B984706
S2144016C0B3E7464B93F90030002B1DDB394A136BCA
S2144016D00593059B43F04F030593059B23F00403B6
S2144016E00593059B1363136B13F0040FFBD13B4B21
S2144016F0DB88002B35D00023394A1380394A1380C3
S2144017000122304B1A7090E72A4A136B0393039BCF
S21440171043F04F030393039B43F080030393039BE1
S2144017201363136B13F0800FFBD0224A136B0493A2
S214401730049B43F04F030493049B23F00403049359
S214401740049B1363136B13F0040FFBD10023244A4E
S2144017501380244A138002221A4B1A70224B984751
S21440176063E7224B984760E71F4B98475DE7154B6A
S2144017701B78012B3CD0022B04D0042B02D0124BFA
S214401780984701E0114B98470A4A136B0693069B0D
S21440179043F04F030693069B23F002030693069BF3
S2144017A01363136B13F0020FFBD1094B98473CE7CA
S2144017B0B1394000004003403D384000A8020020B8
S2144017C04D0A40004E12002091104000011140008A
S2144017D079104000DB1200208D0A4000DC12002009
S2144017E04C1200204A12002011114000C91040003F
S2144017F0934B196BC1F30A41924B9B89924A1588C9
S2144018006A189342BCBF5B1B99B28E4B98682844BB
S21440181071B102468A4C236D02F8013B131ADBB2C3
S2144018208B42F8D30D44ADB2874B1D8040291AD069
S214401830844B9D815B6913B19847002830D0804A1D
S214401840136B0893089B43F04F030893089B23F0C1
S21440185002030893089B1363136B13F0020FFBD12C
S2144018607A4B9847E1E6774BDA88794B1B882B44CE
S2144018709A42DDDD734B9B89AB4225D0704A136B91
S2144018800B930B9B43F04F030B930B9B23F00203EE
S2144018900B930B9B1363136B13F0020FFBD1C4E641
S2144018A06C4B9847664A136B0793079B43F04F036E
S2144018B00793079B23F002030793079B1363136B5F
S2144018C013F0020FFBD1B0E65E4B5B6953B198470D
S2144018D0E8B15F495C4A0B88108803440B800023BC
S2144018E01380CBE75B4B9847554A136B0993099B8C
S2144018F043F04F030993099B23F002030993099B86
S214401900136313461A6B12F0020FFBD18DE6514B50
S21440191098474B4A136B0A930A9B43F04F030A932C
S2144019200A9B23F002030A930A9B136313461A6B1F
S21440193012F0020FFBD178E6474A0123DFF800E1B8
S21440194018467FE107EB8702434B03EB8203B3F86D
S21440195010A0CAF3090A236BC3F30A49B9F1000F72
S21440196000F0DF813C4B03EB8203D3F808E0DA68F3
S214401970AEEB02005968484540F2C78107EB870046
S214401980354B03EB800302EB0900D86048464FF026
S214401990000B11440B46226D03F8012B5A1A824263
S2144019A0F9D330462D4B9847BBF1000F00F0BC8171
S2144019B0236B13F0200F7FF438AE214B5D61264B2E
S2144019C0BA00D11903EB8101CB688B603246002107
S2144019D04046234B984728E607EB87021E4B03EB0F
S2144019E08202537CC3F38101033161F38303537452
S2144019F0537C13F0200F5FD013F00C0F32D0236BC4
S214401A000C930C9B43F04F030C930C9B43F010033A
S214401A100C930C9B2363236B13F0100FFBD0236BAC
S214401A200D930D9B43F04F030D930D9B23F0010345
S214401A300D930D9B2363236B13F0010FFBD1F4E54D
S214401A4000400340DC1200204A120020C91040002B
S214401A504C12002091104000501200200913400004
S214401A60C9124000236B0E930E9B43F04F030E9318
S214401A700E9B23F001030E930E9B2363236B13F000
S214401A80010FFBD1236B0F930F9B43F04F030F9334
S214401A900F9B43F020030F930F9B2363236B13F09E
S214401AA0200FFBD007EB8707A14B03EB87035A7C3D
S214401AB06FF345125A74B8E513F0800F38D107EB30
S214401AC087029B4B03EB8203DA689B689A4241D3BA
S214401AD007EB8702964B03EB82035B7C13F04C0FBD
S214401AE038D1EFF31083B3FA83F35B09109372B6E1
S214401AF0BFF35F8F00228F4B1A70109B8E4A556142
S214401B002BB101228B4B1A70BFF35F8F62B6236BEB
S214401B101193119B43F04F031193119B23F0010344
S214401B201193119B2363236B13F0010FFBD17CE5CC
S214401B3014237F4A03FB0723597C6FF3C71159745C
S214401B40DA689A607C4B5D613246002140467B4BAA
S214401B509847B4E7002E5BD0032E59D007EB870298
S214401B60734B03EB82035B7C13F00C0F24D0236B88
S214401B701293129B43F04F031293129B43F01003B1
S214401B801293129B2363236B13F0100FFBD0236B2F
S214401B901393139B43F04F031393139B23F00103BC
S214401BA01393139B2363236B13F0010FFBD1002188
S214401BB03046634B984738E501213046604B98479E
S214401BC0A0B1236B1493149B43F04F031493149BC0
S214401BD023F001031493149B2363236B13F0010F2C
S214401BE0FBD100213046564B98471EE51423504AF9
S214401BF003FB07277A7C6FF3C7127A74FB68BB60D7
S214401C004D4B5D613246002140464C4B9847D8E7E5
S214401C10012130464A4B9847236B1593159B43F05A
S214401C204F031593159B23F001031593159B2363D0
S214401C30236B13F0010FFBD1F7E401331432042B6E
S214401C4000F08680DEB2DEF8181000FA03F529426E
S214401C50F3D05F1E90469C0004F1402404F54034C7
S214401C60216B11F0420F7FF46DAE216B11F0010F26
S214401C707FF4B2AE216B11F0080FDED0236B1693C3
S214401C80169B43F04F031693169B23F008031693B8
S214401C90169B2363236B13F0080FFBD1236B03F4CF
S214401CA0E063B3F5807F3FF4C0AC236BBDE4224BCA
S214401CB0DB6913F4005F50D01F4C4FF41853236277
S214401CC0636101201F4B98474FF480732362236162
S214401CD04FF400632361A8E4174B4FF480721A62F6
S214401CE05A614FF400521A614FF400721A614FF471
S214401CF080621A612220144B98470020114B984767
S214401D0093E43046114B984752E607EB870C084B56
S214401D1003EB8C03C3F80CE00028F2D04FF0010B25
S214401D2037E63046094B9847CA453FF641AE7CE415
S214401D3050120020A802002000400340C912400074
S214401D40DD134000D50F4000913840000913400095
S214401D504B4B9B6913F4005FA9D1494B9B6913F425
S214401D60007F04D0464BDB6913F4007FA4D1444B7C
S214401D709B6913F4806F04D0414BDB6913F4806F8A
S214401D809AD13F4B9B6913F4807F04D03C4BDB6970
S214401D9013F4807FA0D13A4BDB6913F4805F3FF4A5
S214401DA044AC374C4FF480532362364E01221146E2
S214401DB03046354DA8470222012106F11400A847B7
S214401DC00322012106F12800A847304B9847636854
S214401DD023F001036360636823F002036360A36833
S214401DE043F48073A360A36823F07F03A360236B50
S214401DF01893189B43F04F031893189B23F40743FC
S214401E0023F080031893189B43F400431893189BC1
S214401E1023632246136B13F4004FFBD0184A136B10
S214401E201993199B43F04F031993199B43F40043AE
S214401E301993199B1363136B13F4004FFBD0EFF306
S214401E401083B3FA83F35B09179372B6BFF35F8FC1
S214401E5000220F4B1A70179B0121094A116123B1CA
S214401E600B4B1970BFF35F8F62B60A4B9847044B13
S214401E704FF480721A614FF400621A61FFF7D5BBC7
S214401E800040034050120020C9124000050A40009E
S214401E90A80200207910400010B582B0EFF31083FE
S214401EA0B3FA83F35B09019372B6BFF35F8F0022E8
S214401EB0144B1A70019C0120134B98472220134B59
S214401EC09847134B5A6F22F480725A675A6F42F4FF
S214401ED000725A674FF480721A614FF400521A61CA
S214401EE04FF400721A614FF480621A614FF4006238
S214401EF01A612CB10122034B1A70BFF35F8F62B692
S214401F0002B010BDA8020020D50F40003D3840006A
S214401F100040034030B583B0EFF31083B3FA83F349
S214401F205B09009372B6BFF35F8F0024274B1C708B
S214401F30009D2220264B9847264B9847264B5022FA
S214401F4083F8222304225A60234624489A00D11854
S214401F5000EB8101497C1A4400EB820201F08301C8
S214401F606FF3C71151740133032BEFD14FF4802028
S214401F701B4B984700221B4B1A701B4B1B78FF2BA2
S214401F8022D0EFF31083B3FA83F35B09019372B662
S214401F90BFF35F8F00220D4B1A700199124A1378D7
S214401FA00133137029B10122084B1A70BFF35F8FBB
S214401FB062B60E4B98472DB10122044B1A70BFF300
S214401FC05F8F62B603B030BDFEE700BFA8020020B8
S214401FD03D384000D135400000E100E0501200207E
S214401FE00539400049120020D4120020991E4000B6
S214401FF0002070470D4B5A6822F001025A609A68DA
S21440200022F480729A60024670B1986820F07F0091
S21440201002F07F02104398609A6842F480729A6099
S2144020205A6842F001025A60704700BF00400340C1
S214402030054B5B6813F0010F1DBF034B986800F01B
S2144020407F000020704700BF00400340024B1868E6
S214402050C0F30A00704700BF0040034000207047AE
S214402060014B986099817047DC120020F0B583B030
S21440207000F00F04032C67D8A30003F1402303F5B8
S21440208040331D6B15F4004F61D101F00305012D5F
S21440209050D0251FEDB2022D34BF4FF400754025B9
S2144020A0954258DB40B2661E06EB86072B4D05EB85
S2144020B0870505F11007B5F810E062F3090EA5F89C
S2144020C010E06A7C02F07F026FF345126A740028C3
S2144020D035DB234EB56A012202FA04F42543B56285
S2144020E03546AA6A1442FCD01D4DAA6A22EA040468
S2144020F0AC621A6B0192019A42F04F020192019A29
S21440210022F4074222F08002019200284FEA012280
S21440211002F44072B4BF42F4044242F400420199D1
S2144021201143019101991963196B32EA0101FBD100
S21440213001200AE06CB1032CABD1002005E07A7890
S2144021406FF383027A70C4E7002003B0F0BD00202E
S214402150FBE70020F9E70020F7E700BF5012002019
S2144021600040034000F00F02032A22D800B583B097
S214402170910001F1402101F540310B6B0193019B29
S21440218043F04F030193019B23F400430193019BCB
S2144021900B630B6B13F4004FFBD1501E00EB80001B
S2144021A00121044B03EB8000034B984703B05DF8D6
S2144021B004FB704750120020C912400000F00F0088
S2144021C0032815D8431E03EB83030A4A02EB830316
S2144021D05B7C13F0200F09D10C30074B53F82030AE
S2144021E013F0280F14BF01200020704701207047CD
S2144021F000207047501200200040034000F00F01BE
S21440220003295FD810B483B0EFF31083B3FA83F397
S2144022105B09019372B6BFF35F8F00222C4B1A7096
S214402220019C10F0800F24D18A0002F1402202F572
S2144022304032136B0093009B43F04F030093009B88
S21440224043F020030093009B1363136B13F0200F9F
S214402250FBD0012303FA01F11E4B1961002C35D047
S21440226001201B4B1870BFF35F8F62B603B010BCE3
S21440227070474B1E01F10C02164850F8222012F00F
S214402280100F09D103EB8302134800EB8202527C05
S214402290C2F38102012AC7DD03EB83020E4B03EB38
S2144022A082035A7C42F020025A74012303FA01F159
S2144022B0084B196144B10120054B1870BFF35F8F7E
S2144022C062B6D3E7002070470120CFE70120CDE774
S2144022D0A8020020004003405012002000F00F00EB
S2144022E003285ED830B583B0441E04EB84022F4BDF
S2144022F003EB82035A7C6FF345125A74830003F152
S214402300402303F540331A6B12F0200F4BD01A6B64
S2144023100092009A42F04F020092009A22F0200269
S2144023200092009A1A631A6B12F0200FFBD1204DD0
S214402330A96A012202FA00F00143A96229468A6A84
S2144023401042FCD01A498A6A22EA000088621A6B58
S2144023500192019A42F04F020192019A22F008023D
S2144023600192019A1A631A6B12F0080FFBD104EB24
S21440237084030E4A02EB83035B7C13F0100F01D1FB
S214402380012011E01146A200131901EB8303587C8B
S2144023906FF304105874144451F8243098470120C1
S2144023A002E000207047012003B030BD50120020EC
S2144023B000400340F0B583B000F00F07032F00F253
S2144023C0A280BC0004F1402404F54034256B15F48B
S2144023D0004F00F09B807D1E05EB850E504E06EBB1
S2144023E08E06767C16F0200F40F09280266B16F014
S2144023F0200F40F08F80EFF31086B6FA86F6760907
S214402400009672B6BFF35F8F4FF0000E454E86F8CB
S21440241000E0DDF800C005EB850E414E06EB8E066B
S214402420767C16F0100F0AD0BCF1000F74D0012253
S2144024303C4B1A70BFF35F8F62B6002064E005EB3A
S214402440850E374E06EB8E0696F811E04EF0100ECF
S21440245086F811E0BCF1000F07D04FF0010E314E68
S21440246086F800E0BFF35F8F62B6DFF8B4C005EBD6
S2144024708506B6000CEB060ECEF80420CEF80830E3
S2144024800022CEF80C20089A4CF8062011B9B3FA70
S21440249083F14909224AAE00731902EB83035B7C41
S2144024A061F38613354402EB85026FF3C71353740A
S2144024B0EFF31083B3FA83F35B09019372B6BFF36D
S2144024C05F8F0022174B1A70019D0123BB40164AAE
S2144024D0136110F0800F07D105B30120114B18701F
S2144024E0BFF35F8F62B60FE0236B13F0110FF3D18B
S2144024F0012138460D4B98470028EDD0002138463C
S2144025000A4B9847E8E7002003B0F0BD0020FBE701
S2144025100020F9E70020F7E70020F5E70120F3E781
S21440252050120020A802002000400340DD13400067
S214402530F0B587B000F00F05032D40D8EFF31083B9
S214402540B3FA83F35B09059372B6BFF35F8F00223D
S2144025504B4B1A70059B0124AC404A4A54612BB140
S2144025600122474B1A70BFF35F8F62B610F0800FA0
S21440257027D1AE0006F1402606F54036336B13F001
S214402580420F06D0404F2846B847336B13F0420FF1
S214402590F9D13C4A936A23439362936A1C42FCD027
S2144025A0384A936A23EA04049462681E00EB80006B
S2144025B02A460121354B03EB8000354B984707B040
S2144025C0F0BDAB0003F1402303F540331A6B12F025
S2144025D0100F3AD04DB3032D27D01A6B0192019AB3
S2144025E042F04F020192019A22F010020192019AA3
S2144025F01A631A6B12F0100FFBD11A6B12F0100F01
S214402600FBD11A6B0292029A42F04F020292029A51
S21440261042F010020292029A1A631A6B12F0100FDE
S214402620FBD01A6B12F0100FFBD01A6B0392039A72
S21440263042F04F020392039A22F010020392039A4A
S2144026401A631A6B12F0100FFBD11A6B0492049A9D
S21440265042F04F020492049A22F001020492049A35
S2144026601A631A6B12F0010FFBD16B1E03EB830249
S214402670064B03EB82035A7C6FF383025A7488E757
S214402680A8020020004003400913400050120020DA
S214402690C91240004FF400434360704708B5024BF0
S2144026A09847012008BD00BFF909400008B5024B15
S2144026B09847C0B208BD00BF4104400008B5024B71
S2144026C09847C0B208BD00BFF106400000B583B0D1
S2144026D002AB43F8040D01211846034B9847C0B29D
S2144026E003B05DF804FB00BF4908400008B50A4641
S2144026F001460020014B9847C0B208BD91074000F4
S214402700004870471001002008B5024B5B6903B1D2
S214402710984708BD1001002008B5024B9B6903B1DD
S214402720984708BD100100207B4B1B78002B00F01B
S214402730EB802DE9F04F89B0784BD3F8008098F8BD
S2144027401230012B0CD098F80E50002D00F0C580AA
S214402750734E002406F1020ADFF8DC914746A2E0F9
S214402760B8F80630012B60D9D8F814301B68002B17
S21440277000F0C48000266B4D039512E0D8F8183060
S2144027801B69082103989847644BD3F80080B8F833
S21440279006301E44B6B2D8F814301B689E4280F00D
S2144027A0AD8098F80E30002BE8D008F10F0A0DF1F6
S2144027B0100CDFF870914FF0000E744606EB0E03D7
S2144027C09BB21A46B8F8067006EB0E0038448342B1
S2144027D010DAE346DCF8001004EB820235F81220EB
S2144027E0C2F30B02114404339BB21A468342F3DB16
S2144027F0CBF80010DCF80030B3FBF7F3CCF8003031
S214402800B9F8002022F47F6222F00F021A4329F81A
S214402810022BBEF1030FB1D01AF8013B0EF1010EA8
S2144028200CF1040C002BC8D1A8E7D8F8143019686E
S214402830490089B2D8F818301B693A4898475DE095
S214402840B1FBFEF144F6206303FB01F1A9FB012333
S214402850C91A03EB5101BF6907F11C0842F2107018
S214402860A0EBD120304B984729A3D3E90023DFF8CB
S214402870CCB0D847CDE900012A462C4940462C4BDF
S214402880984787F81C01254B1B689869036990F8A0
S2144028901C111C309847032C1FD0204B1F68013456
S2144028A03B199D7BCDB136F8021FC1F30B01B7F83B
S2144028B006E0BEF1010FC5D9AEF102039BB2201D62
S2144028C000EB83000AEB4000324632F8083FC3F381
S2144028D00B0319448242F8D1B2E7104B1A68936949
S2144028E014490888897898839977022183F81C11BF
S2144028F09069036990F81C111C3098470022064BDB
S2144029001A7009B0BDE8F08F704700BFAFF3008083
S214402910000000000088C34091120020941200205E
S214402920FA120020FC120020653F40006C874000F1
S214402930314240006887400001011000E93C4000F9
S21440294038B1054A10604169044A4261116001206D
S21440295070470020704700BF94120020081B0020DC
S214402960F8B5144B00221A7004215970062199704C
S214402970DA7002221A711048104B9847104B1B68A9
S2144029809B7BA3B10B4AD15C0B480E4B9847012466
S2144029900B4D084F084E2B6823449B7B43B1F95C94
S2144029A03046084B98470134042CF4D1F8BDF8BDA6
S2144029B0F8BD00BF8C12002000800340150F400079
S2144029C0941200200B0F40000B4B1B68587A197A64
S2144029D0DA7A9B7A40EA800043EA830343EA00338C
S2144029E041EA810143EA012342EA820243EA0213B2
S2144029F0024A9364704700BF941200200080034050
S214402A00074B1B681B7B2BB9064A536803F0100321
S214402A1053607047034A536843F01003536070474F
S214402A20941200200080034038B550B90E4D4FF048
S214402A30805128460D4CA0474FF000612846A047DD
S214402A4038BD094D4FF080512846094CA0474FF0FD
S214402A5000612846A047074B402283F81D234FF0CD
S214402A6000521A6038BD00BF00800340210F40006E
S214402A701D0F400000E100E038B51D201D4B984773
S214402A8008B1002038BD00231B4A1C491C481D4C79
S214402A90A04708B1002038BD194C00231A460F2124
S214402AA02046194DA84700212046184B98472046F7
S214402AB0174B984701212046164B98470022032182
S214402AC02046154B9847E36C43F47F03E36445F296
S214402AD05553A364236C43F080732364636843F4C4
S214402AE0000363600D4B984701200D4B984701202B
S214402AF038BD00BF3D3840000024F4000090D003AD
S214402B00008003409D0E4000EF0E4000D10E400076
S214402B10150F4000290F4000E10E4000612940009B
S214402B20292A400038B51E20114B9847114C2046A4
S214402B30114B984700212046104B984700221146DB
S214402B4020460F4B9847002120460E4DA8470121AE
S214402B502046A847002120460B4DA8470121204685
S214402B60A8474FF485712046084B9847012038BD4A
S214402B703D38400000C00340853640008B3640005C
S214402B80C3364000AB364000EF36400003374000C7
S214402B90F8B50C480C4B984710F0010F11D0094C73
S214402BA000212046094FB847094E3368998B204686
S214402BB0084DA84701212046B8473368D98B2046A0
S214402BC0A847F8BD00C00340A3364000AB364000DF
S214402BD094120020A736400008B50A480A4B98478A
S214402BE00A4B186060B10A4B0A4A1A600A4A1268D1
S214402BF0526912685A600121084B9847012008BD67
S214402C00002008BD008003403D0F4000FC1A002015
S214402C10041B0020FC1200209412002023374000A2
S214402C2030B585B0002303930293144B1B681B6892
S214402C30134A934202D9002005B030BDB2FBF3F4EC
S214402C401049009102AB03AA20460F4DA84798B101
S214402C500E4A536823F0070302990B4353600399C7
S214402C60084BB3FBF1F3B3FBF4F359085161D3615E
S214402C70002313610120DFE70020DDE794120020E7
S214402C8040420F000090D003413940000000014010
S214402C9008B51720064B984708B1002008BD4FF4EA
S214402CA0D82200210348044B9847044B984708BD58
S214402CB03D3840000000014019394000212C4000BA
S214402CC008B50C4B1B689BB10B4B9847034608B99D
S214402CD0184608BD094B984703460028F8D0084BCD
S214402CE0984703460028F3D0064B98470346EFE73D
S214402CF00123EDE794120020912C4000D92B400090
S214402D00792A4000252B400008B50120034B984700
S214402D1000210348034B984708BD00BF292A4000BE
S214402D20000001403139400008B500210148024BFF
S214402D30984708BD0000014039394000F8B526489C
S214402D40264B9847044610F0805F0CD0244B1B78E7
S214402D506BB9244D002224492868244B984701210A
S214402D602868234B984714F0006F2AD1F8BD214BB2
S214402D7098470020204B98470022194B1A701F4D49
S214402D802B681F4A1A601F4B9847D5F800E0DEF8BC
S214402D9018701D4D0FCDF86139627A62BB622868A3
S214402DA0F862AA88AB793A8687F83230162387F8D5
S214402DB01C31DEF81800036990F81C111C30984747
S214402DC0D1E70122064B1A700C4B1B689B691B69A6
S214402DD002210E489847C9E700800340250F40006F
S214402DE091120020FC1A0020041B00200B374000E4
S214402DF023374000292D4000292A40009412002005
S214402E0040420F00212C40005487400030020020F2
S214402E1000487047292740007047704770470000B9
S214402E2070B51646084B9847084C0FCCF061316297
S214402E307262B3622068F062A3883386152386F8F0
S214402E401C31012070BD00BF092D40008089400024
S214402E500368012B01D90020704770B414468B7468
S214402E6003781BB1012B16D0012012E0124D0FCD76
S214402E70E06121626262A36207CDE0622163626321
S214402E802A88AB78228784F83A301E2384F81C318F
S214402E90012070BC7047094D0FCDE061216262622F
S214402EA0A3620FCDE06221636263A3631F2384F8AD
S214402EB01C310120EDE700BFFC8840001C89400023
S214402EC030B40468631EDBB2012B02D9002030BC4C
S214402ED0704743689DB2B5F5806F16D20089B0F54D
S214402EE0805F01D30020F2E7E4B22B4604EB442592
S214402EF004EB45041C44143421F81400044B1B888E
S214402F009383012082F81C01E1E70020DFE700BF41
S214402F10F487400070B51646084B9847084C0FCCCF
S214402F20F06131627262B3622068F062A3883386D1
S214402F30152386F81C31012070BD00BF292D4000A6
S214402F409889400070B503685C1E0B48844202D9DD
S214402F500026304670BD15460C460B60074B98471A
S214402F6006460028F5D02268054905F11C00054BA9
S214402F70984785F81C01ECE73F420F00212C4000A3
S214402F803C894000314240000368581EB0F57A7FC5
S214402F9001D30020704710B51446CB809AB204493E
S214402FA004F11C00034B984784F81C01012010BD17
S214402FB060884000314240000368B3F57A7F01D90B
S214402FC00020704710B514468B809AB2044904F12D
S214402FD01C00044B984784F81C01012010BD00BF1C
S214402FE0CC884000314240000368042B1DD843681B
S214402FF0042B1CD88368042B1BD8C368042B01D928
S2144030000020704730B583B01446CB7B8A7B487C23
S2144030100190097C0091084904F11C00074DA8471F
S21440302084F81C01012003B030BD0020704700200A
S21440303070470020704700BF5C8940003142400026
S21440304010B503685C1EB4F5806F01D3002010BD38
S21440305014464A6913600288044904F11C00044B74
S214403060984784F81C01012010BD00BF948840009A
S2144030703142400070B503685C1E012C01D9002027
S21440308070BD45684FF6DC74A54201D9002070BD7E
S21440309014469BB240F6060606FB0313A3F82A58CE
S2144030A0028806FB0211B1F82A38044904F11C00D4
S2144030B0034DA84784F81C01012070BDC48740001A
S2144030C03142400030B585B01446B1F83038B1F8DA
S2144030D02E28B1F836080290B1F834080190B1F8BD
S2144030E032180091044904F11C00044DA84784F8A6
S2144030F01C0105B030BD00BF808740003142400013
S21440310070B503685C1E012C01D9002070BD45686F
S2144031106C1EB4F5806F15D214469BB240F6060678
S21440312006FB0313A3F82858028806FB0211B1F8E1
S2144031302838054904F11C00044DA84784F81C01B2
S214403140012070BD002070BD948740003142400091
S21440315070B50668731E012B01D9002070BD436808
S21440316003F51C54103444F62065AC4201D90020C7
S21440317070BD154604461BB203F51C53103303EBD3
S214403180830303EB83032433C3EB0333F6B201EB31
S2144031904606094AA2FB03235B0C7383074B9847FA
S2144031A0B4F904302278064905F11C00054CA047C6
S2144031B085F81C01012070BD83DE1B43912B400027
S2144031C0AC8840003142400038B503685C1E032C92
S2144031D015D84468022C01D9002038BD15460B444A
S2144031E0DC7190F904300278064905F11C00064C63
S2144031F0A04785F81C01054B9847012038BD0020A4
S21440320038BD00BFF887400031424000C929400021
S214403210F8B50368012B01D90020F8BD1446DBB28F
S2144032200B73BBB1164F02F11C0507F1200E3E464C
S2144032300FCE28606960AA60EB6037461035764549
S214403240F5D133782B70202384F81C310D4B9847EA
S2144032500120F8BD0C4F02F11C0507F1200E3E463A
S2144032600FCE28606960AA60EB6037461035764519
S214403270F5D133782B70202384F81C31E6E700BF65
S21440328018884000012A40003C8840002DE9F04F55
S21440329089B08146884616461C460DF103030DF15B
S2144032A01F000021DA1D03F8011F9A42FBD1134686
S2144032B09042F7D109F1FF35EDB206EB85050027C0
S2144032C0BA46BB46B8F1000F61D0636898470028FD
S2144032D0FBD0A36898470D2816D02C2830D0082855
S2144032E032D0A0F13003DBB2092B01D92D28E9D129
S2144032F0C7EBC70308AA1344534403F81C0C0AF14F
S214403300010A5FFA8AFADDE77B1C994504D0B9F1D9
S214403310000F11D0D846D5E7BAF1000FF7D0B9F173
S214403320000F09D001AC043E1A4F2046B84746F875
S214403330040F0734AE42F8D1012009B0BDE8F08F43
S2144033400137FFB2DA46BDE7C7EBC70308AA134406
S214403350534413F81D3C2C2B07D0BAF1000F0DD068
S2144033600AF1FF3A5FFA8AFA09E0002FF5D0013FEA
S214403370FFB20AF1010A5FFA8AFA00E0D846C7EBC4
S214403380C70308AA1344534403F81CBC9AE700201A
S214403390D3E700BF5140400010B54138132800F233
S2144033A0EC80DFE810F04200660096007E008A005F
S2144033B04E007200A200AE00BA00C6005A002A00B4
S2144033C0DE00D200EA00EA00360014001F00532355
S2144033D00B706C4B4B6013460022642110466A4CBF
S2144033E0A04710BD54230B70684B4B601346002219
S2144033F064211046644CA04710BD4D230B70644BAF
S2144034004B60134601F10802642101205E4CA04740
S21440341010BD52230B705F4B4B60134601F1080200
S21440342064210120584CA04710BD41230B705A4BD5
S2144034304B60134601F1080264210120524CA0471C
S21440344010BD46230B70554B4B60134601F10802E6
S214403450642101204C4CA04710BD4C230B70504BB0
S2144034604B60134601F1080264210120464CA047F8
S21440347010BD42230B704B4B4B60134601F10802C4
S21440348064210120404CA04710BD47230B70464B9B
S2144034904B60134601F10802642102203A4CA047D3
S2144034A010BD44230B70414B4B60134601F108029C
S2144034B064210220344CA04710BD45230B703C4B82
S2144034C04B60134601F10802642104202E4CA047AD
S2144034D010BD43230B70374B4B60134601F1080277
S2144034E064210220284CA04710BD48230B70324B65
S2144034F04B60134601F1080264210120224CA0478C
S21440350010BD49230B702D4B4B60134601F108024A
S214403510642102201C4CA04710BD4A230B70284B48
S2144035204B60134601F1080264210320164CA04765
S21440353010BD4B230B70234B4B60134601F1080222
S21440354064210120104CA04710BD4F230B701E4B2A
S2144035504B60134601F10802642101200A4CA04743
S21440356010BD4E230B70194B4B60134601F10802F9
S21440357064210220044CA04710BD0020087048601B
S21440358010BD00BF212E40008D324000152F400058
S214403590512E4000452F4000892F4000B92F400053
S2144035A01132400041304000C931400051314000A6
S2144035B0E92F400075304000C53040001D2E4000C9
S2144035C0C12E4000192E40001B2E40000131400005
S2144035D010B53E2100200A4B98470A4CA0470028C9
S2144035E0FCD0094B9847094A094BDA62094CA04778
S2144035F00028FCD00120084B9847084B984710BD40
S2144036009D374000F137400021384000033F11000D
S21440361000040E402D384000E5384000F9384000A0
S21440362010B50E480E4B98473E2100200D4B98474C
S2144036300D4CA0470028FCD00C4B98470C4A0D4B2D
S2144036409A620D4CA0470028FCD010200B4B9847A0
S2144036500B4B98470148024B984710BD0090D0034B
S214403660A10000209D374000F1374000013840005F
S214403670033F172000040E40113840003937400001
S2144036805D3A400001230360704729B9436823F040
S2144036901003436000207047436843F010034360C4
S2144036A0F8E7006B7047016270474368012901D90B
S2144036B00120704723F4981343EA014141600020FB
S2144036C0704751B1436843F02003436052B94368A2
S2144036D023F04003436000207047436823F02003F4
S2144036E04360F3E7436843F040034360F3E7012950
S2144036F001D901207047012303FA01F1016100203E
S2144037007047C0F89410002070470B4619B10968FE
S21440371001605B6843601AB1136803615368436194
S214403720704721F0FE01C905C90D01627047C06CA3
S2144037307047806C70470000174A136B23F0700385
S21440374018431063936E13F0080F0AD14FF40063CA
S21440375011498A6E12F0080F03D1013BF9D10120BE
S21440376070470D4A136B23F0030343F002031363C1
S214403770936E13F0080F0AD14FF4006306498A6E21
S21440378012F0080F05D1013BF9D101207047002007
S21440379070470020704700BF00040E40C8B9114A69
S2144037A0136A090289B223F45C1323F0030343F43B
S2144037B05C1343F001030B431362936E13F0010F47
S2144037C0FBD0084A136A43F09B7343F4803313627A
S2144037D0704704490B6A044A1A40044B13430B6271
S2144037E0704700BF00040E40FCFFC8FE02003701D1
S2144037F0024B986E00F48030704700BF00040E40C5
S2144038004FF00052014B9A62704700BF00040E40D2
S214403810024B986E00F00200704700BF00040E4056
S2144038200022014BDA62704700040E40024B986E4D
S21440383000F00400704700BF00040E4022281ED847
S2144038401F280CD8114B9A6901238340934318D004
S214403850012303FA00F00D4B186100207047203812
S2144038600A4BD3F808210123834093430BD001230E
S21440387003FA00F0054BC3F8000100207047012012
S2144038807047002070470020704700BF00040E407D
S214403890222822D81F280ED8114B9A69012383402C
S2144038A0934301D000207047012303FA00F00C4BED
S2144038B05861002070472038094BD3F8082101236F
S2144038C08340934301D000207047012303FA00F061
S2144038D0034BC3F80401002070470120704700BF27
S2144038E000040E40000200F4706040F00100014BFE
S2144038F09863704700040E408022014B1A60704760
S21440390000040E40034B1A6FC0F3120010431867B2
S214403910704700BF00040E4010B4890143180224CB
S21440392044504FF0FF319962196A5A6010BC704794
S214403930890105234350704789010223435070474D
S214403940F0B486B002240194082402942024039400
S214403950802404940A9CE40B0594B0EB510F14D8D1
S2144039604C0CA04217D2012501AF57F82540B1FBB9
S214403970F4F4260C84420AD386420DD90135052D2F
S214403980F3D1002006B0F0BC70470020FAE70020D4
S214403990F8E70120F6E700252AB106A901EB8501E4
S2144039A051F8141C1160002BF3D01D600120E9E78C
S2144039B0024B187880F00100704700BF9812002034
S2144039C07047FEE708B51C4B1C4A9A4210D01C4B69
S2144039D0194A9A420CD2013B9B1A23F00303043344
S2144039E01344164951F8040B42F8040B9A42F9D195
S2144039F0144B154A9A420AD2013B9B1A23F0030302
S214403A0004331344002142F8041B9342FBD10F4B6E
S214403A1023F0604222F07F020D498A6003F1604342
S214403A20B3F5804F03D28B6843F000538B60094B4D
S214403A309847094B9847FEE700000020948C4000CA
S214403A40600C0020702B0020600C0020000040001E
S214403A5000ED00E059404000393C40003C4B1B6BB9
S214403A6003F00303032B0ED8DFE803F0021C3838BC
S214403A70384B5B6913F0800F14BF4FF400424FF48D
S214403A80FA42354B1A60324B1B6B03F07003702BB7
S214403A9055D02F4B1A6B3049C2F302120B68D340F5
S214403AA00B6070472A4B1B6A13F0807F03D02B4A6B
S214403AB0294B1A60E7E72A4A274B1A60244B1B6AB1
S214403AC003F07003102B05D0202BDCD1234A224B69
S214403AD01A60D8E7234A204B1A60D4E71C4B1B6A6F
S214403AE013F0807F18D01D4A1B4B1A60184B1B6B77
S214403AF003F00303022B164A07BF916A926AD16A03
S214403B00D26A1548C1F30A41036801FB0333D2B2B7
S214403B10B3FBF2F30360B6E7114A0F4B1A600C4B47
S214403B201B6A03F07003102B05D0202BDED10B4A06
S214403B30094B1A60DAE70B4A074B1A60D6E7064A83
S214403B4013680949A1FB03135B081360704700BF65
S214403B5000040E4010140E40AC020020001BB700BC
S214403B6000093D0000127A00ABAAAAAA0A4B1B68BD
S214403B7053B1094B1B681A180849914208DB104696
S214403B80054A106018467047054A034B1A60F0E72E
S214403B904FF0FF30704700BF9C120020FCBF002053
S214403BA0704B002070B586B01E4B1B685B6898470C
S214403BB008B906B070BD1B4C23689B6898472268BE
S214403BC06946194B984798B12268184902A8019B44
S214403BD09847F8B92668164C0FCCF061316272628D
S214403BE0B36203CCF0623163172386F81C3111E0D0
S214403BF00C4B1E680F4C0FCCF06131627262B362A0
S214403C002068F062A288A379328686F8323016237E
S214403C1086F81C31034B1868036990F81C111C3059
S214403C209847C6E7101B002099334000141B00201D
S214403C30B0894000C889400008B51D481D4B9847CC
S214403C401D4B98471D4B98471D4B984705461D4CA6
S214403C5020601D4B43611D4B9847A86123681B6835
S214403C60002098471A48002282801A4B0360C28080
S214403C70012383730221C17303250574042545740B
S214403C80827440F2FF758583C583102545610372B3
S214403C9043728372C37202732268826180F8203056
S214403CA080F821100C4B98470C4B9847FEE700BF16
S214403CB050140E409526400021364000C139400041
S214403CC001274000101B0020A53B4000112E40005D
S214403CD0141B002040420F0041294000C12C4000E8
S214403CE081F0004102E000BF83F0004330B54FEA68
S214403CF041044FEA430594EA050F08BF90EA020FD5
S214403D001FBF54EA000C55EA020C7FEA645C7FEA67
S214403D10655C00F0E2804FEA5454D4EB5555B8BF8A
S214403D206D420CDD2C4480EA020281EA030382EAFB
S214403D30000083EA010180EA020281EA0303362D8D
S214403D4088BF30BD11F0004F4FEA01314FF4801C60
S214403D504CEA113102D0404261EB410113F0004F72
S214403D604FEA03334CEA133302D0524263EB430329
S214403D7094EA050F00F0A780A4F10104D5F1200EC7
S214403D800DDB02FA0EFC22FA05F2801841F1000122
S214403D9003FA0EF2801843FA05F359410EE0A5F1F6
S214403DA020050EF1200E012A03FA0EFC28BF4CF027
S214403DB0020C43FA05F3C01851EBE37101F00045DD
S214403DC007D54FF0000EDCF1000C7EEB00006EEBEA
S214403DD00101B1F5801F1BD3B1F5001F0CD3490874
S214403DE05FEA30004FEA3C0C04F101044FEA4452CB
S214403DF012F5800F80F09A80BCF1004F08BF5FEA52
S214403E00500C50F1000041EB045141EA050130BD31
S214403E105FEA4C0C404141EB010111F4801FA4F1D4
S214403E200104E9D191F0000F04BF01460020B1FA29
S214403E3081F308BF2033A3F10B03B3F120020CDA61
S214403E400C3208DD02F1140CC2F10C0201FA0CF03F
S214403E5021FA02F10CE002F11402D8BFC2F1200CA4
S214403E6001FA02F120FA0CFCDCBF41EA0C0190405A
S214403E70E41AA2BF01EB0451294330BD6FEA0404A3
S214403E801F3C1CDA0C340EDC04F11404C4F120028E
S214403E9020FA04F001FA02F340EA030021FA04F3A0
S214403EA045EA030130BDC4F10C04C4F1200220FAF7
S214403EB002F001FA04F340EA0300294630BD21FA35
S214403EC004F0294630BD94F0000F83F4801306BFFB
S214403ED081F480110134013D4EE77FEA645C18BFEF
S214403EE07FEA655C29D094EA050F08BF90EA020F86
S214403EF005D054EA000C04BF1946104630BD91EA7E
S214403F00030F1EBF0021002030BD5FEA545C05D180
S214403F104000494128BF41F0004130BD14F58004BF
S214403F203CBF01F5801130BD01F0004545F0FE4133
S214403F3041F470014FF0000030BD7FEA645C1ABF68
S214403F40194610467FEA655C1CBF0B46024650EA9F
S214403F50013406BF52EA033591EA030F41F40021CB
S214403F6030BD00BF90F0000F04BF0021704730B551
S214403F704FF4806404F132044FF000054FF0000126
S214403F8050E700BF90F0000F04BF0021704730B5E7
S214403F904FF4806404F1320410F0004548BF4042BC
S214403FA04FF000013EE700BF42004FEAE2014FEA11
S214403FB031014FEA02701FBF12F07F4393F07F4FEC
S214403FC081F06051704792F0000F14BF93F07F4F1E
S214403FD0704730B54FF4607401F0004521F0004161
S214403FE020E700BF50EA010208BF704730B54FF0E7
S214403FF000050AE050EA010208BF704730B511F0EC
S214404000004502D5404261EB41014FF4806404F123
S21440401032045FEA915C3FF4DCAE4FF003025FEAA5
S214404020DC0C18BF03325FEADC0C18BF033202EB2D
S214404030DC02C2F1200300FA03FC20FA02F001FA87
S21440404003FE40EA0E0021FA02F11444C1E600BF26
S2144040500A22002100F00EBA70B50F4E0F4D761BA7
S214404060B61018BF002405D0013455F8043B9847D5
S214404070A642F9D10A4E0B4D04F0F6FD761BB6105B
S21440408018BF002406D0013455F8043B9847A64292
S214404090F9D170BD70BD00BF748C4000748C400078
S2144040A07C8C4000748C4000844641EA000313F048
S2144040B0030349D1403A23D30B6803604B684360FF
S2144040C08B688360CB68C3600B6903614B6943614F
S2144040D08B698361CB69C3610B6A03624B6A436237
S2144040E08B6A8362CB6AC3620B6B03634B6B43631F
S2144040F08B6B8363CB6BC36340304031403ADBD23B
S21440410030320BD30B6803604B6843608B68836028
S214404110CB68C36010301031103AF3D20C3205D35E
S21440412051F8043B40F8043B043AF9D2043208D034
S214404130D2071CBF11F8013B00F8013B01D30B88A6
S21440414003806046704700BF082A13D38B07B1D060
S21440415010F00303AED0C3F10403D21ADB071CBF32
S21440416011F8013B00F8013BA4D331F8023B20F89C
S214404170023B9FE7043AD9D3013A11F8013B00F8D5
S214404180013BF9D20B7803704B7843708B78837081
S2144041906046704770B4860746D0541E002A41D009
S2144041A0CAB2034602E014F1FF343BD303F8012BB6
S2144041B09D07F8D1032C2ED9CDB245EA05250F2C04
S2144041C045EA054519D9264603F11002103E0F2E42
S2144041D042F8105C42F80C5C42F8085C42F8045C1A
S2144041E002F11002F2D8A4F1100222F00F0204F0FD
S2144041F00F041032032C13440DD91E462246043AAF
S214404200032A46F8045BFAD8221F22F0030204323F
S214404210134404F003042CB1C9B21C4403F8011B38
S2144042209C42FBD170BC704714460346C2E700BFB1
S2144042300EB40146F0B56FF000454FF402774FF6E6
S214404240FF769CB021AC54F8042B0B4B02910691A0
S214404250186802A923460194ADF814700495079592
S214404260ADF8166000F01CF90022029B1A701CB0D4
S214404270BDE8F04003B07047B002002020F00301D4
S21440428010F00300C0F1000051F8043B00F1040CAC
S2144042904FEACC0C6FF000021CBF22FA0CF213431C
S2144042A04FF0010C4CEA0C2C4CEA0C4CA3EB0C02E5
S2144042B022EA030212EACC1204BF51F8043B04304F
S2144042C0F4D0C2F1000102EA0102B2FA82F2C2F16F
S2144042D01F0200EBD20070472DE9F04F85B00291E7
S2144042E0039000921E4688460E9F00E0A84645462C
S2144042F0384615F8014B02F069FC2044437813F029
S2144043000803F3D12D2C00F081802B2C03BF2C7892
S214404310019308F10205019366B1102E00F08880E3
S214404320019BB0464FEAE6797BB94FF0FF3A6FF013
S21440433000470EE0302C00F08A804FF00A084FF01D
S21440434000090A26019B002BEFD04FF0000A4FF0E1
S214404350004742464B465046394604F073F84B46B3
S214404360934650464246394604F06CF84FF0000EED
S214404370002200230FE044D04FF0010E02FB09F468
S21440438008FB0344A2FB0823234412EB0C0243EB36
S214404390EC7315F8014BA4F1300CBCF1090F06D9AB
S2144043A0A4F1410CBCF1190F0DD8A4F1370C6645A9
S2144043B012DDBEF1FF3FECD0994208BF9042DAD200
S2144043C04FF0FF3EE5E7A4F1610CBCF1190F03D8AE
S2144043D0A4F1570C6645ECDCBEF1FF3F1CD00199BA
S2144043E011B1524263EB4303009929B1BEF1000F6D
S2144043F01BD1029D00990D601046194605B0BDE8D8
S214404400F08FE345B8DA4FF0FF3EC2E701232C7841
S214404410019308F102057FE72223039A1360009B6D
S2144044202BB35246013D3B46E4E792461F46F8E72B
S214404430302C17D12B7803F0DF03582B12D16C7831
S2144044404FF010084FF00009023510267AE72B7817
S21440445003F0DF03582BF2D04FF008084FF0000966
S21440446008266FE74FF010084FF000096AE75246FB
S2144044703B46C1E7084B70B51D68084E6C6B82B072
S214404480002C08BF3446134600940A460146284688
S214404490FFF722FF02B070BDB0020020E406002005
S2144044A02DE9F04FC3B00C460B9192460F930C90FB
S2144044B002F090FB036818461A93FFF7DFFEA389C5
S2144044C01990190603D52369002B01F03580002387
S2144044D00DF1C809C84615931393149318931B936C
S2144044E009931693179327932693CDF894909AF8AA
S2144044F000305446EBB1252B02D11AE0252B03D0D1
S21440450014F8013F002BF9D1A4EB0A058DB1269B88
S214404510279A01332A44072BC8F800A0C8F804504D
S2144045202792269300F38A8008F10808099B2B44BB
S21440453009932378002B00F0898000234FF0FF304A
S2144045401A468DF8773019460D939B46637804F1EA
S214404550010A0A900AF1010AA3F12000582800F245
S214404560B783DFE810F04C03B503B5035403B50337
S214404570B503B503B503B503B50359005903B503F1
S21440458066001402B5032F02A503A503A503A503E1
S214404590A503A503A503A503A503B503B503B50366
S2144045A0B503B503B503B503B503B503B5038B0231
S2144045B0D302B503D302B503B503B503B5031B0356
S2144045C0B503B5032003B503B503B503B503B5037B
S2144045D03402B503B5034B02B503B503B503B503C3
S2144045E0B503B503B503B503B503B50376029E031D
S2144045F0D302D302D30263039E03B503B503680315
S214404600B5037503DD018C035E03B503F201B50304
S2144046108700B503B50332030F9C236818460D93F5
S2144046202346002803F104030F9304DA0D9B5B42F4
S2144046300D934BF0040B9AF800308BE725AA0B99A4
S2144046400C9803F00BFB40B9C8466FE7279B23B195
S2144046500C9825AA0B9903F001FB0B9B9B8913F042
S214404660400F099B18BF4FF0FF330993099843B09A
S214404670BDE8F08F1BF0200F119340F0AF810F9AEA
S2144046801BF0100F134640F09A851BF0400F00F0C9
S214404690968500250123148804320F92002217467F
S2144046A08DF877200A994A1C00F010822BF0800281
S2144046B0079254EA050240F00F82002940F0318408
S2144046C0002B40F039851BF001030E9300F0628604
S2144046D0302342AE06F8413D0A9B0E9A9342B8BF3D
S2144046E0134608930023129317B1089B013308938F
S2144046F0079B13F00203109302D0089B02330893E3
S214404700079B13F0840540F010830D9B089AA3EB9B
S214404710020BBBF1000F40F30883BBF1100F40F3D0
S214404720B287279C43462146A8461027269A0C9CCB
S2144047300B9D06E0ABF1100BBBF1100F03F1080325
S21440474018DD0132AB481031072A2791269283E8BC
S2144047508100EFDD25AA2946204603F07FFA00288F
S2144047607FF47BAFABF1100BBBF1100F4B46279994
S214404770269AE6DC45460C46984601329D4B5C44FC
S214404780072A2794269288E8080800F3C3829DF8F3
S214404790777008F1080887B10121269B0C440B442A
S2144047A00DF17702072B27942693C8F80410C8F813
S2144047B0002000F3CD8308F10808109B7BB102214E
S2144047C0269B0C4401331EAA072B27942693C8F831
S2144047D00410C8F8002000F3118408F10808802D62
S2144047E000F004830A9B0E9A9F1A002F37DD102F85
S2144047F040F37986804D42462146B0464FF0100B36
S2144048002E46269B0C9C0B9D04E0103F102F02F179
S214404810080215DD01331031072B2791269382E8D5
S2144048204008F2DD25AA2946204603F017FA00285C
S2144048307FF413AF103F102F4A462799269BE9DC9A
S21440484035460C464646904601333C44072B279453
S214404850269388E8A00000F3708308F10808079BB9
S214404860DF0500F16482269B0E9901330C44072B2A
S2144048702794C8F80060C8F80410269300F3B38362
S21440488008F10808079B5B073BD50D9B089A9D1AC5
S214404890002D36DD102D40F321871026269B0C9FD9
S2144048A0DDF82CB004E0103D102D08F1080816DDA8
S2144048B00133504A1034072B2794269388E8440047
S2144048C0F1DD25AA5946384603F0C8F900287FF49A
S2144048D0C4AE103D102DC846279C269BE8DC01330D
S2144048E0444A2C44072B2794269388E8240008DD66
S2144048F025AA0B990C9803F0B1F900287FF4ADAEC9
S214404900279C099B0D9A08998A42ACBF9B185B1856
S2144049100993002C40F0FB820023C8462693E6E528
S21440492011931BF0200340F045811BF0100240F02D
S21440493066841BF0400300F062840F9913460A46D3
S21440494004320C8800250F92A8E600250F9A119392
S21440495016688DF87750141D002E00F0CD860A9A02
S214404960531C00F01B862946304602F0FDFB00280B
S21440497000F00D87831B0A950E930F94CDF81CB05C
S21440498023EAE373089312959DF87770ACE69AF89D
S21440499000300AF101042A2B00F0C287A3F1300050
S2144049A00928A24600F2188700231C461AF8013B45
S2144049B004EB840400EB4404A3F130000928F5D945
S2144049C00A94C9E54BF0800B9AF80030C2E54BF0EC
S2144049D0100B1BF0200F11933FF451AE0F9C073481
S2144049E024F0070303F10802D3E900450F920123A0
S2144049F054E600BF288A4000388A40001193002AB7
S214404A0040F0AD87BE4B1BF0200F189340F0E78078
S214404A100F9A1BF0100F134640F0D8831BF0400F40
S214404A2000F0D4830025043314880F931BF0010F45
S214404A3000F0E38054EA050300F0DF8030239DF861
S214404A4044208DF878308DF879204BF0020B022305
S214404A5024E601221193002311460F98089202681B
S214404A601F468DF877300A931293031DCDF81CB07D
S214404A700E918DF8A0200F9328AE39E61193002AA8
S214404A8040F084874BF0100B1BF0200F40F07584ED
S214404A900F9A1BF0100F134640F09D831BF0400FFB
S214404AA000F09983B2F900400433E5170F9322468D
S214404AB02B46002A73F10003C0F298830A999DF8AA
S214404AC077704A1C4FF001037FF4F0AD54EA0502BC
S214404AD000F02982CDF81CB0012B00F00E83022B8B
S214404AE040F09C824E461898230943EA05732909EC
S214404AF004F00F020D461C46835C06F8013D54EA5E
S214404B000503F1D1A9EB06030E93E5E51193002AC0
S214404B1040F038870F9C1BF0080F04F1070400F0A4
S214404B20CF8424F0070303F108020F921A685B68EB
S214404B3015921493149B159D23F000442846214655
S214404B404FF0FF326F4B03F03FFC002840F03484B8
S214404B50284621464FF0FF326A4B03F017FC0028E8
S214404B6040F02A8415A80DC8149903F005FC0028C7
S214404B7040F0D4859DF8777003231A4608930023A7
S214404B80614E19460A93614B0E92119A2BF08000A3
S214404B9007901291472AD8BF1E46A5E54BF0080B52
S214404BA09AF80030D6E44BF0100B11931BF020031C
S214404BB03FF4BBAE0F9C073424F0070303F1080212
S214404BC0D3E900450F92002368E51193002A40F090
S214404BD0C2864F4B1BF0200F18933FF419AF0F9C23
S214404BE01BF0010F04F1070424F0070303F1080249
S214404BF00F92D3E900457FF41DAF02234EE59AF8A5
S214404C00003000297FF4A6AC01222021A2E44BF01C
S214404C10010B9AF800309DE49AF8003001222B21CF
S214404C2098E44BF0200B9AF8003093E44BF0400B9E
S214404C309AF800308EE49AF800306C2B03BF9AF84E
S214404C4001304BF0200B0AF1010A4BF0100B81E4C7
S214404C50002A40F07C861BF0200F40F052841BF068
S214404C60100F40F038841BF0400F00F034840F9A49
S214404C70136804320F92BDF824201A8037E4782354
S214404C8030220F988DF879301193031D0F93204BE7
S214404C90046818934BF0020B8DF878200025022309
S214404CA0FCE41193002A3FF4EFAE8DF87710EBE664
S214404CB000200446A3F130001AF8013B04EB8404BC
S214404CC000EB4404A3F130000928F5D90D9443E4E1
S214404CD01193002A40F04A86119A002A3FF4B6AC57
S214404CE0002301211F4608918DF8A020CDF81CB066
S214404CF08DF877300A9312930E9128AEF8E400BFF1
S214404D00F4894000FFFFEF7FE8894000E4894000D7
S214404D10088A400025AA0B990C9802F09FFF0028AD
S214404D207FF49BACC8469DF87770279C33E5119B73
S214404D30652B40F39A8015A80DC8149903F012FB12
S214404D40002800F093810121269BB54A0B440C4471
S214404D50072B27942693C8F80410C8F8002000F3C1
S214404D60C68308F108081F9B139A279C934203DBCF
S214404D70079BDD077FF586AD269B199901331A9A66
S214404D800C44072BC8F80020C8F804102794269334
S214404D9000F3C48308F10808139B5E1E002E7FF7BD
S214404DA071AD102E40F3758522461027269B9D4DEB
S214404DB0DDF830B00B9C05E008F10808103E102ED8
S214404DC040F3258201331032072B2792269388E83A
S214404DD0A000F1DD25AA2146584602F03FFF0028F4
S214404DE07FF43BACC846279A269BE7E70D9B089A7C
S214404DF09F1A002F7FF7F6AC102F40F3A884894DFA
S214404E0042462146B0464FF0100B2E46269B0C9C41
S214404E100B9D04E0103F102F02F1080215DD013310
S214404E201031072B2791269382E84008F2DD25AA09
S214404E302946204602F012FF00287FF40EAC103FB1
S214404E40102F4A462799269BE9DC35460C464646AF
S214404E50904601333C44072B2794269388E8A000CD
S214404E6000F39E8208F10808BCE4139B012B40F334
S214404E704F820123269F1C441F44072F2794C8F8BF
S214404E8000602697C8F8043000F35F8208F10808EF
S214404E90199A01371A9B1444072F27942697C8F867
S214404EA00030C8F8042000F35C8208F1080815A812
S214404EB00DC8149903F056FA139B002840F0418120
S214404EC0013B013701361C44072FC8F8006026977F
S214404ED02794C8F8043000F3668108F108081B9A46
S214404EE00137144421AB072F27942697C8F804208F
S214404EF0C8F800307FF7C4AC25AA0B990C9802F08E
S214404F00ADFE00287FF4A9ABC846279CBAE425AA84
S214404F100B990C9802F0A2FE00283FF4FDACFFF778
S214404F209CBBDDF81CB0012B00F07E81022B71D1BA
S214404F30CDF81CB000240025D4E525AA0B990C9882
S214404F4002F08CFE00287FF488ABC846279C86E497
S214404F5025AA0B990C9802F081FE00287FF47DABC1
S214404F60C846279C29E40120269B2D4A0344044436
S214404F70072B27942693C8F80400C8F8002040F36F
S214404F80D88225AA0B990C9802F068FE00287FF478
S214404F9064ABC8461F99279C29B9139B1BB9079B2E
S214404FA0D8077FF56FAC1998269B024601332244FA
S214404FB01A9C072B2792C8F80040C8F8040026938E
S214404FC000F3318408F108080029C0F209841399D7
S214404FD001338C18072B27942693C8F80060C8F82E
S214404FE004107FF74DAC25AA0B990C9802F036FEBC
S214404FF000287FF432AB279CC84643E425AA0B9989
S2144050000C9802F02BFE00287FF427ABC846279C5E
S214405010FFF7E5BB00240025CDF81CB0494604E068
S214405020248A4000388A40003146E20842EA457207
S214405030E80804F0070305461446303354EA0502F0
S21440504001F8013C01F1FF36EED1079AD2077FF511
S21440505059AD302B3FF456AD3023023906F8013CAB
S214405060A9EB01030E930E46FFF736BB1F990029A6
S2144050707FF779AF129B139A9342A8BF1346002B33
S2144050801F460BDD269B3C440133072B279488E8BC
S214405090C000269300F3FB8208F10808129B002FFD
S2144050A0A8BFDB1B002B1F4640F3D780102B40F3D6
S2144050B03484BA4D42462146B0464FF0100B2E4639
S2144050C0269B0C9C0B9D04E00832103F102F40F3AB
S2144050D0B58001331031072B2791269382E840088C
S2144050E0F2DD25AA2946204602F0B8FD00287FF4C6
S2144050F0B4AA4A462799269BE7E7002D08BF0A2C04
S214405100C0F090804E46204629460A22002303F0EF
S21440511099F9303206F8012D2046294600230A2206
S21440512003F090F904460D4654EA0503EBD1A9EB8B
S21440513006030E93FFF7D0BA0A9B4E460E93FFF730
S214405140CBBA5E1E002E7FF7CAAE102E40F3E38326
S21440515022464FF0100B914D0C9C04E0103E102E52
S21440516008F1080815DD01371032072F27922697D9
S21440517088E82008F2DD25AA0B99204602F06EFD4D
S21440518000287FF46AAA103E102EC846279A269F0B
S214405190E9DC144601373444072F2794269788E8DD
S2144051A060007FF79AAE25AA0B990C9802F056FD40
S2144051B000287FF452AA279C269FC8468FE60432D2
S2144051C01C68002501230F92FFF768BA1C68043359
S2144051D00F9300252AE41C680433E51722460F93F4
S2144051E02B46002A73F10003BFF668AC2D276442B5
S2144051F065EB45058DF877700123FFF753BA0F9995
S21440520000250A4604320C680F92FFF747BA144648
S21440521001333444072B2794269388E860007FF7B1
S2144052202FABE0E6DDF81CB0012342AE3034CDF8BB
S2144052301CB006F8414D0E93FFF74EBA35460C4665
S2144052404646904601333C44072B2794269388E8ED
S214405250A00000F3468208F108081F9A139B9A4262
S21440526045DB079BD90742D4139B12989A1A1D1AFE
S2144052709542A8BF1546002D0EDD269906440131FD
S2144052802C440729C8F800602794C8F80450269193
S21440529000F3168208F10808002DB4BF1646561BC8
S2144052A0002E7FF7EFAA102E40F3F38222461027F7
S2144052B0269B3A4DDDF830B00B9C04E008F1080818
S2144052C0103E102EA3DD01331032072B2792269373
S2144052D088E8A000F2DD25AA2146584602F0BEFC2A
S2144052E000287FF4BAA9C846279A269BE8E7269B5B
S2144052F0199801331A990444072B2794C8F80010CC
S214405300C8F80400269300F3CF8108F10808ABE7FD
S214405310079BDA073FF5ADAD0123269F1C441F448B
S214405320072F2794C8F800602697C8F804307FF700
S214405330D4AD25AA0B990C9802F090FC00287FF477
S2144053408CA9C846279C269FC9E525AA0B990C9888
S21440535002F084FC00287FF480A9C846279C269F3C
S21440536096E525AA0B990C9802F078FC00287FF465
S21440537074A9C846279C269F99E50F9C073424F0BD
S214405380070404F10801D4E900230F9114461D4692
S214405390FFF78FBB4E46FFF79FB900BF388A4000E5
S2144053A025AA0B990C9802F059FC00287FF455A9C1
S2144053B0C846279CFFF716BA159C22462046149CE2
S2144053C02346214603F000F8002840F073820A9BEB
S2144053D00133119B23F020030E9300F09C81472B52
S2144053E000F0D6804BF480730793149B1F1E159BCA
S2144053F00893B7BF3B46002303F100472D23109385
S214405400119B662B00F09081462B00F0A480022072
S2144054100E9B23A9452B0ABF0A9B0A9D5D1C8DE85F
S2144054202100049120A81FA93B460390089A0291A8
S2144054300C9800F059FB119B0646672B40F0BA814A
S2144054401BF0010F00F023827419169A0898179BD8
S214405450394602F087FF002840F02481239BA34270
S21440546006D230215A1C23921970239B9C42F9D8AD
S2144054709B1B13930E9B472B00F0A280119B652B22
S21440548040F3A781119B662B1F9B129300F07181FE
S214405490139B129A1946914200F35D811BF0010F4F
S2144054A040F0F08122EAE273089367230E9211934C
S2144054B0109B002B7DD10A939DF87770FFF714B9A7
S2144054C024F00704236815936368149304F10803D3
S2144054D00F93FFF72FBB0F9A136804320F92099A67
S2144054E01A60FFF704B8269BAF4DFFF7ADB925AA63
S2144054F00B990C9802F0B2FB00287FF4AEA8C84681
S21440550031E40F9A134604330F93099B1168DD1755
S2144055101A462B46C1E90023FEF7E9BF25AA0B9998
S2144055200C9802F09BFB00287FF497A8C846279C5F
S21440553032E408F108082FE540210C9801F05CFBA6
S2144055400B9A10601061002800F0148240230B9ADA
S2144055505361FEF7BCBF03200A9C23A98DE81100C7
S214405560049120A81FA90390089A3B4602910C98E4
S21440557000F0BAFA25460646119B7419462B7FF46E
S21440558064AF3378302B00F087811F9D2C445CE756
S2144055900A9B002B08BF01230A9323E730460A954F
S2144055A0FEF76CFE0F940E90CDF81CB00346FFF746
S2144055B0E7B92D2700238DF877700A93FFF795B843
S2144055C01F9B1A461293033304DB0A9B19469142EB
S2144055D0BFF65EAF119B023B1193129B9DF8442091
S2144055E0013B002B8DF88420B4BF2D222B221F9325
S2144055F0B8BF129B8DF88520B8BFC3F10103092BB5
S21440560040F31F810DF193000146684C00E01146BF
S21440561084FB0352DD17C5EBA20505EB8502A3EB21
S21440562042023032092D01F8012C2B4601F1FF329F
S214405630EDDC30330239DCB2884202F8014C40F2ED
S21440564092810DF18601134601E013F8014B834227
S21440565001F8014BF9D101339B1A0DF18602134430
S21440566021AA9B1A139A1B93012A13440E9340F3C4
S21440567048810E9B199A13440E9323EAE3730893CA
S2144056800023129314E7279C269AFFF776B825AA9C
S2144056900B990C9802F0E2FA00287EF4DEAFC8467A
S2144056A0279CFBE42346E3E625AA0B990C9802F0D8
S2144056B0D5FA00287EF4D1AFC8461F9A279CD3E57A
S2144056C025AA0B990C9802F0C9FA00287EF4C5AFBB
S2144056D01F9A139BC846279C9A1ADDE5269BFFF720
S2144056E0FEB825AA0B990C9802F0B8FA00287EF46A
S2144056F0B4AFC846279CB0E50A9B3746062B28BF62
S21440570006230A96129608930F94CDF81CB00E9373
S214405710274EFEF7E9BF06230A9363E62D231F466E
S2144057208DF87730FFF728BA03200A9C23A98DE826
S2144057301100049120A81FA90390089A3B460291A5
S2144057400C9800F0D1F925460646041919E7269B21
S214405750154DFFF77EBB199A139B1344129A0E936E
S214405760002A40F3C78023EAE37308936723119324
S2144057709EE6002B40F3E1800A9A002A40F0B08073
S2144057801BF0010F40F0AC8008930E9390E60A9B06
S2144057900F9408930E930A90CDF81CB012909DF883
S2144057A07770FEF7A1BF00BF388A4000676666661E
S2144057B01C8A4000119B472B7FF446AE1BF0010F1E
S2144057C07FF4DAAE239B9B1B13930E9B472B3FF431
S2144057D0F7AE1F9B129300E700200A90FEF7BCBE70
S2144057E04F42103135DA10246A4DDDF830B004E00F
S2144057F008F10808103F102F2CDD01331032072B1C
S21440580027922693C8F80050C8F80440F0DD25AA31
S2144058100B99584602F022FA00287EF41EAFC8467E
S214405820279A269BE6E725AA0B990C9802F016FACB
S21440583000287EF412AFC8461F99279A269BFFF78A
S214405840C3BB302213448DF887308DF8862022ABB8
S21440585006E7504D01333A44072B88E8A0002792CC
S214405860269308F108087FF7B2AB25AA0B990C9847
S21440587002F0F4F900287EF4F0AEC846279A269B3C
S214405880FFF7A5BB129B199A13440E936BE7239B15
S214405890EEE5269B3F4DBBE4169A0898179B394683
S2144058A002F060FD00287FF470AEC5F101051F953B
S2144058B02C44CAE5149B384E002BBEBF2D231F46F2
S2144058C08DF877304FF003031A4608934FF00003E5
