S00B00004461712E7372656303
S214400000584B0020554A4000514A4000514A400053
S214400010514A4000514A4000514A4000000000000A
S214400020000000000000000000000000514A4000B0
S214400030514A400000000000514A4000514A4000EA
S214400040514A4000514A4000514A4000514A4000FF
S214400050514A4000514A4000514A4000514A4000EF
S214400060514A4000514A4000514A40007D134000EA
S21440007065144000514A4000514A4000514A4000F1
S214400080514A4000514A4000514A4000514A4000BF
S214400090514A4000514A4000514A4000514A4000AF
S2144000A0514A4000514A4000514A4000514A40009F
S2144000B0514A400039334000514A4000514A4000BE
S2144000C0514A4000514A400021194000514A4000E0
S2144000D010B5054C237833B9044B13B10448AFF33D
S2144000E000800123237010BD480C00200000000053
S2144000F00C9D40000C4B43B10C4810B50C49AFF377
S21440010000800C48036823B910BD0A48036833B919
S2144001107047094B002BF7D0BDE810401847064BF8
S214400120002BF5D0184700BF000000000C9D400093
S2144001304C0C00200C9D4000000000000023F0B452
S214400140A1272026022508240B480C4A037013805A
S21440015001780B4A0131C9B201700A490A485380F6
S21440016008609380138117705670D5800B714B7161
S2144001708C710120F0BC70476F0C0020040F0020EB
S2144001809C110020680C002040420F00024A137861
S214400190013BDBB2137070476F0C00200020044A0E
S2144001A004491378013BDBB213701378087070472C
S2144001B0700C0020660C002000207047002070471E
S2144001C0704700BF154A137813F0800F03F06003A2
S2144001D003D1202B0ED000207047202BFBD1537824
S2144001E0212BF8D1D388072BF5D10D499381916007
S2144001F0012070475078202805D0A0F12200B0FAA0
S21440020080F040097047D388072BE4D1054804495D
S2144002101061938191600120704700BFC412002096
S214400220680C0020C10140002DE9F04F85B0EFF387
S2144002301083B3FA83F35B09039372B6BFF35F8F01
S2144002400023DFF81881DFF818A188F80030DDF8C1
S2144002500C909AF80040364FE4B237F814302646F1
S214400260344D002B42D00022334B2A801B7843B3B8
S214400270B4FA84F60123314976090B70B9F1000FC0
S2144002802AD137F81630B3F5A07F14BF01250025D4
S21440029028D02B4B9847002843D02A4B98472A4AC9
S2144002A037F816301080294C294806EB860604EBB2
S2144002B08612009029468120264CA04705B0BDE80E
S2144002C0F08FB4FA84F401231C4964098AF800408C
S2144002D00B70B9F1000FD4D088F80030BFF35F8FB1
S2144002E062B6CEE70021184A1180DCE72B88DFF89B
S2144002F050B001332B80D84710B92B88632B06D9D2
S214400300D8470028AFD02B88B3F5487FABD2B9F199
S214400310000FD3D0012388F80030BFF35F8F62B65A
S214400320CCE70D4B9847084A37F816301080BAE7A6
S2144003308C110020640C0020080F0020981100202B
S214400340DD26400041274000941100200C0F00207D
S21440035065034000792A4000312740009002002083
S21440036090110020E8B970B5144A154E1278154D14
S214400370B2FA82F2144C5209287026F81200207005
S21440038081B9237803B170BD104B9847104A78B9AD
S214400390104B148898478442F5D0BDE870400E4B09
S2144003A0184770470D4B98472378002BEBD1EBE767
S2144003B00B4B148898478442EFD1E4E79011002015
S2144003C08C110020080F002098110020DD264000E8
S2144003D0941100203127400029024000712E400031
S2144003E0412740002DE9F04F4E4D87B02B7813B192
S2144003F007B0BDE8F08F4C4FB847DFF84C81002877
S2144004004FD14A4BB8F8004098478442F0D0EFF3BB
S2144004101083B3FA83F35B09059372B6BFF35F8F1D
S2144004200022434BDFF824B11A7005999BF8004030
S214400430DFF81C91E4B239F814202646002A3FD053
S214400440DFF810A100203B4AAAF800001278002AE4
S2144004502ED1B4FA84F464098BF8004001222A7045
S214400460002953D139F81630B3F5A07F14BF0124C4
S214400470002421D0B84700284DD02F4B984739F854
S2144004801630A8F800002D482D4A06EB8606214671
S214400490009002EB86122B4C8120A04707B0BDE8A7
S2144004A0F08F254BB8F8004098478442AFD19FE77D
S2144004B0B4FA84F67609D1E70022A8F80020E2E7ED
S2144004C0DFF890A00393BAF8002002910132AAF810
S2144004D00020B8470299039B58B9BAF80020632A0F
S2144004E007D8002984D001221A70BFF35F8F62B606
S2144004F07EE703930291B8470299039B0028A1D058
S214400500BAF80020B2F5487FEBD39BE71A70BFF3EA
S2144005105F8F62B6A6E7054B984739F81630A8F8BD
S2144005200000B0E798110020DD264000312740004B
S21440053090020020080F002041274000650340003D
S2144005400C0F0020792A40009411002090110020C2
S2144005508C110020640C002000232DE9F041534A02
S2144005605349544D54482B70137003700B701178D8
S214400570524C534A84B013805380238000296ED057
S21440058000235049504E5148514F337003700B80F2
S2144005904B803B80EFF31082B2FA82F2520902920D
S2144005A072B6BFF35F8F4B4A1370DDF808E00478ED
S2144005B03378E4B203F0FF0843B9B7F800C031F827
S2144005C014301FFA8CFC9BB29C4506D2BEF1000F3D
S2144005D050D1002004B0BDE8F081B4FA84F34FF067
S2144005E0010C5B09A7F80080037086F800C0BEF1D6
S2144005F0000F55D1EFF31083B3FA83F35B090393EF
S21440060072B6BFF35F8F00231370DDF80CE03B88B3
S214400610067898B2F3B231F813309BB2BEF1000FB1
S21440062034D1984238D12C4B2C4A04EB840402EB4C
S2144006308412009301214FF4A0730220284CA04757
S2144006400028C6D02B780133DBB22B702B78DBB278
S214400650012B04BF234A137004B0BDE8F081224B3F
S214400660984768B9214B24889847844288D0204BC5
S214400670984785E701231370BFF35F8F62B6A8E7FC
S2144006801C4B248898478442F1D179E701211170A8
S214400690BFF35F8F62B6C4E70020174B9847C2E7A8
S2144006A082F800C0BFF35F8F62B6A3E798110020C0
S2144006B090110020700C0020080F0020941100209C
S2144006C08C110020F40E0020000F0020F80E0020B1
S2144006D0FC0E002090020020FD064000740C002016
S2144006E0792A4000660C0020DD2640003127400075
S2144006F02902400041274000612E4000002876D164
S214400700F0B5404C85B02378B3FA83F35B090029F3
S21440071056D03D4F3D4E89B227F813103070EFF358
S2144007201083B3FA83F35B09029372B6BFF35F8F0D
S21440073037490870029825783378EDB203F0FF0CFD
S214400740002B4CD1DFF8DCE0BEF8002037F815303F
S21440075092B29BB29A4242D3B5FA85F301225B0924
S214400760AEF800C023703270002841D1EFF31083FA
S214400770B3FA83F35B09039372B6BFF35F8F00232C
S2144007800B700398BEF80020237892B2DBB237F89D
S21440079013309BB220B101200870BFF35F8F62B662
S2144007A09A422AD11B4B1C4A05EB8505009302EB67
S2144007B085124FF4A0730121184C0220A0470CE08C
S2144007C09900144C144D0B441046009405EB8312CC
S2144007D001214FF4A073114CA04705B0F0BD00288E
S2144007E0FBD001230B70BFF35F8F62B6F5E770470F
S2144007F00A70BFF35F8F62B6B8E70020084B984791
S214400800D0E700BFF80E0020F40E0020000F0020B6
S21440081090020020FD064000740C0020792A40001B
S214400820612E4000FC0E002010B483B0EFF310831E
S214400830B3FA83F35B09019372B6BFF35F8F002070
S2144008400B490C4B0C4A0870019C1B8812780B48CD
S214400850D2B230F812009BB280B2C01A24B1012343
S2144008600B70BFF35F8F62B603B010BC704700BF1B
S21440087090020020FC0E0020F80E0020F40E00200F
S2144008802DE9F04F544B002493F80690534DA9F1B0
S2144008900909B9FA89F9524E524FDFF85C81DFF800
S2144008A05CA187B04FEA5919EFF31083B3FA83F38C
S2144008B05B09039372B6BFF35F8F00232B700398D8
S2144008C033883A789BB2D2B238F8121089B20028F0
S2144008D06BD18B420AD3444B1B7803F0FF02002BAC
S2144008E0E2D11446204607B0BDE8F08F02EB820204
S2144008F00AEB8212D25C01339BB214433380EFF38F
S2144009001083B3FA83F35B09049372B6BFF35F8F29
S21440091000232B70354B049997F800B01B785FFA8C
S2144009208BFB03F0FF00002B45D1328838F81B3094
S21440093092B29BB29A423ED3BBFA8BF301225B093A
S21440094030803B70294B1A7000293CD1EFF310835E
S214400950B3FA83F35B09059372B6BFF35F8F002348
S2144009602B70059932883B7892B2DBB238F8133058
S2144009709BB221B101212970BFF35F8F62B69A42C4
S21440098026D11B4B0BEB8B0B0AEB8B1200930121F2
S2144009904FF4A0730220DFF868B0D847B9F1000FD3
S2144009A0A0D024024FF000097EE701202870BFF354
S2144009B05F8F62B68DE70029F0D001232B70BFF31E
S2144009C05F8F62B6EAE72A70BFF35F8F62B6BDE715
S2144009D00020084B9847D4E7680C0020900200207F
S2144009E0FC0E0020F80E0020660C0020000F0020B1
S2144009F0FD064000612E4000F40E0020740C0020DE
S214400A00792A40002DE9F04F8A463E4B3E4F9B796F
S214400A10DFF80CB1092BDFF80C91904685B008BF83
S214400A204FEA4208EFF31083B3FA83F35B0903936C
S214400A3072B6BFF35F8F00233B70039A9BF800307B
S214400A40DBB239F81310B1F5A07F33D022B10123C1
S214400A503B70BFF35F8F62B6EFF31083B3FA83F356
S214400A605B09029372B6BFF35F8F00233B70029B15
S214400A709BF800500193EDB239F81560234BC6F54C
S214400A80A074444528BF444605EB850006EB80101D
S214400A90184451461E4B22469847019B264429F847
S214400AA015604BBBB8EB0408A244BBD1404605B02A
S214400AB0BDE8F08F1749097881B91749087868B9B1
S214400AC0B3FA83F301205B0908708BF80030002AE4
S214400AD0C2D03870BFF35F8F62B6BDE722B1012344
S214400AE03B70BFF35F8F62B60C4B1B78002B99D1DF
S214400AF0404605B0BDE8F08F01233B70BFF35F8FE3
S214400B0062B6CFE7680C0020900200200C0F002051
S214400B101D51400098110020080F0020660C002050
S214400B20901100208C1100200A46024B01460020FE
S214400B30184700BF050A4000024A034B907800F071
S214400B407F001847C4120020E1264000134B1B6864
S214400B501B681A7982421DD970B4114E33605C8886
S214400B601C44A34213D2002504E01A7801251344FE
S214400B709C420BD95A78042AF7D19A788242F4D10B
S214400B80DA788A42F1D13DB9012001E03360002095
S214400B9070BC7047002070473360F5E7B411002002
S214400BA0B8110020F8B5244F06463B685B6853F8FA
S214400BB02050EB689847214B1B780BB90020F8BDB6
S214400BC03B681B681A79B242F8D9DFF878E0CEF86D
S214400BD000305A881A449342F0D21C46002104E062
S214400BE0237801211C44A24218D96378042BF7D1FC
S214400BF0A378B342F4D1E3788342F1D1C9B9104E19
S214400C0004E06378042B05D0052B0BD023781C44D6
S214400C10A242F6D86B6898470120F8BDCEF800404F
S214400C200020F8BDA078B0473B681B685A881A4435
S214400C30ECE7CEF80040E2E7B4110020B011002007
S214400C4029284000B8110020004B184701264000D4
S214400C50F8B5204E3278002A2ED01F4F3B681B68CE
S214400C60197949B300241D4D32B90134E4B28C429F
S214400C7022D23278002AF8D02B60598819449942FB
S214400C8013D9002004E01A7801201344994219D958
S214400C905A78042AF7D19A78A242F4D1DA78002A10
S214400CA0F1D1A0B920460E4B98473B6801341B68EB
S214400CB0E4B219798C42DCD300210122094B317011
S214400CC01A80F8BD3A682B6013681979CDE72B6017
S214400CD0E8E700BFB0110020B4110020B811002092
S214400CE0A50B4000A611002038B50B4B1B7893B1DE
S214400CF00A4D2A681368197969B10024536853F875
S214400D0024301B691BB198472A6813681979013447
S214400D10E4B28C42F2D338BDB0110020B4110020AA
S214400D2000222DE9F0479D4E3378B28132617261E0
S214400D301A060DD413F0600F6AD003F01F03012B80
S214400D4000F08280022B1ED000242046BDE8F087AB
S214400D50F488002CF8D013F06001EED113F01F0396
S214400D6040F0EE807378062B00F02F82082B00F0C0
S214400D702482002BE8D1022CE6D121468848894BB4
S214400D8098470124E1E7884D2B78002BDCD0874C30
S214400D9023681A681279002AD6D00027844E5B68EA
S214400DA053F82780D8F80C3098472B78002BCBD0B8
S214400DB023681B681A79BA42C6D9336059881944E1
S214400DC08B42C1D24FF0000E05E01A784FF0010E6C
S214400DD0134499421AD95A78042AF6D19A78BA42D4
S214400DE0F3D1DA788242F0D1BEF1000F40F06B8248
S214400DF0D8F808309847002840F0A080236801378C
S214400E001A68FFB21279BA42C9D89DE733609BE7A9
S214400E1013F01F0350D17278013A082A94D801A1E2
S214400E2051F822F0810F4000490D4000450D40002A
S214400E30490D4000710F4000490D4000490D4000EB
S214400E40490D4000C90F4000574D2B78002B3FF40A
S214400E507BAF564CD4F800E03779DEF800301A798C
S214400E60BA427FF671AFDFF84891C9F8003059882A
S214400E7019448B421CD2002005E01A780120134406
S214400E80994240F261815A78042AF6D19A78BA4259
S214400E90F3D1DA78002AF0D1002840F01182DEF84B
S214400EA0043053F82780D8F80C3098472B780BBB83
S214400EB0337803F01F0345E7012B00F00081022B37
S214400EC07FF442AF7378012B00F04181032B7FF40F
S214400ED05AAFF388002B7FF456AF7388002B7FF40D
S214400EE052AF3079334B98473079334B984728BBCD
S214400EF0337822E723681B681A79BA42D8D9C9F8EA
S214400F0000305A881A449342D2D2002405E0197819
S214400F1001240B449A4240F2178159780429F6D1AD
S214400F209978B942F3D1D9788142F0D1002C40F07B
S214400F30CC81D8F8083098470028B9D0012404E777
S214400F40012B00F01081022B7FF4FEAE7378002B4D
S214400F507FF419AF022C7FF416AF184B30799847C0
S214400F60174B214618800F4A184690470124ECE656
S214400F70F388002B7FF4E8AE124B01243361E4E69D
S214400F80F388002B7FF4E0AE7488012C7FF4DCAE4F
S214400F90034A138823F002031380D6E6C4120020C7
S214400FA0A611002045274000B0110020B4110020B3
S214400FB0B8110020C52B4000F1284000B128400061
S214400FC0A8110020390B4000F788002F7FF4BCAEF4
S214400FD0AE4B984700288BD0AD4CB27823685B7CEC
S214400FE09A4285DCAB4B9847AB4DB3782B70002BC1
S214400FF0A4D0616803F10053013B51F83300A74C7D
S214401000027901EBC3012160002A97D0B846DFF889
S2144010109892DFF8A8A2C9F80000428800EB020CBC
S21440102084457FF665AF03464FF0000E06E01F7816
S2144010304FF0010E3B449C4540F224815F78042FDC
S214401040F5D19F784745F2D1DF78002FEFD1BEF13A
S214401050000F02D0C9F8003042881F463B78024451
S2144010601F44BA4206D808E0052B1DD03B781F44E3
S214401070BA4202D97B78042BF6D14B6853F8283015
S2144010801B68984700283FF433AF216808F10108F1
S21440109008685FFA88F8037943457FF64FAF2B78A8
S2144010A0002B3FF425AFB6E7BA88F978B878D04732
S2144010B000283FF41DAF216808684288CEE7737861
S2144010C00B2B7FF415AFF18800297FF4BDAE724D2F
S2144010D02B78002B3FF438AE3779714C3846B6F84B
S2144010E00280A04700283FF403AF38466D4B984730
S2144010F000283FF4FDAE2B78002B3FF4F9AE5FFAA4
S21440110088F13846A04700283FF4F2AE664B634C61
S2144011101D68DFF8A88121682B780A681D4453882B
S2144011201A44AA4207D809E0052B00F0A3802B7882
S2144011301D44AA4202D96B78042BF5D14B6853F86C
S21440114027301B689847D2E6C9F80030B0E6F388E7
S214401150002B7FF418AE7388002B7FF414AE3079E2
S214401160524B9847C3E673780A2B7FF4C1AE012CE6
S2144011707FF46AAE484D2B78002B3FF4E5AD474CE4
S2144011803779D4F80080D8F800301B79BB427FF618
S21440119061AE3846424B9847044600283FF4A8AE16
S2144011A0D8F8043053F82730DB689847404B012185
S2144011B01870404A18469047C7E5012C7FF4C4ADE6
S2144011C0214635483B4B9847BFE573881A0A013A93
S2144011D00E2A3FF6B9AD01A151F822F0691240003F
S2144011E04712400035124000490D4000490D40006E
S2144011F0490D4000490D4000490D4000490D400052
S214401200490D4000490D4000490D4000490D400041
S214401210490D4000191240001D4B986800283FF4C5
S21440122093AD4188234B9847F388B2899A4288BF4A
S214401230B38183E613F0FF0F7FF45AAE04211E48B5
S2144012401C4B9847F0E7124ADBB21168497C99423A
S2144012507FF67AAD5168174A51F833004188904777
S2144012600222B3685A70DFE7094A124B10680178C9
S2144012709847D9E7AA88E978A878C04700287FF435
S2144012804AAF35E6C9F8003032E600BF19274000BD
S2144012901C020020510C4000B0110020B411002068
S2144012A04D0B4000A50B4000B8110020BD29400062
S2144012B0AC11002045274000F40000205127400094
S2144012C0C9F80030EBE5336092E5C9F8003030E607
S2144012D070B4520004460126002040F20225B1FBBD
S2144012E0F2F226606060C4F82051C4F80401C4F8E5
S2144012F014016168013A120292B20B4313436360D1
S21440130070BC7047436823F010034360436819433A
S214401310416070474368D201D2B219430A434260E3
S214401320704700BF10B40906446801F0706121435D
S2144013301B0703F0405311431943416010BC7047EC
S214401340012303FA01F10161704700BF4FF6FF73B6
S214401350436170474162704781627047006B7047D7
S214401360D0F89430090201F440711943C0F8941043
S214401370704700BF004870470081034070B5334B4C
S21440138033489847334B054631489847054015D073
S214401390314C20680B281DD020690B2829D0206AA4
S2144013A00B282FD0206B0B2835D0206C0B283BD039
S2144013B0206D0B2841D0206E0B2814D0274B1B687D
S2144013C03BB1274B1B681BB1BDE87040204818470F
S2144013D070BD70BD61680D42DED0E36898476368B3
S2144013E09D43EBD0D8E7616E2942E7D0E36E98473D
S2144013F0E4E761692942D2D0E369984763699D432F
S214401400DCD0CCE7616A2942CCD0E36A9847636A6D
S2144014109D43D3D0C6E7616B2942C6D0E36B98475D
S214401420636B9D43CAD0C0E7616C2942C0D0E36C71
S2144014309847636C9D43C1D0BAE7616D2942BAD0E4
S214401440E36D9847636D9D43B8D0B4E7DD474000F1
S214401450000E0E40E1474000BC110020F41A002068
S2144014602C12002070B5334B33489847334B054613
S21440147031489847054015D0314C20680C281DD07F
S21440148020690C2829D0206A0C282FD0206B0C28E5
S21440149035D0206C0C283BD0206D0C2841D0206ED7
S2144014A00C2814D0274B1B683BB1274B1B681BB13D
S2144014B0BDE870402048184770BD70BD61680D4259
S2144014C0DED0E368984763689D43EBD0D8E7616E0B
S2144014D02942E7D0E36E9847E4E761692942D2D0D3
S2144014E0E369984763699D43DCD0CCE7616A29424B
S2144014F0CCD0E36A9847636A9D43D3D0C6E7616B16
S2144015002942C6D0E36B9847636B9D43CAD0C0E779
S214401510616C2942C0D0E36C9847636C9D43C1D050
S214401520BAE7616D2942BAD0E36D9847636D9D4333
S214401530B8D0B4E7DD47400000100E40E147400019
S214401540BC110020F41A00202C1200202DE9F04790
S21440155000F1FF3E4FEA8E0C6B4F0CEB0E0307EB91
S214401560830393F8118082B0C8F38108002800F006
S214401570C480032814BF02230123434540F3B980A7
S2144015800CEB0E0307EB8303DA689C68A24204D395
S2144015905B7C13F0400300F0B2800CEB0E0307EBCD
S2144015A083031E8AA41AC6F30906B44238BF2646E9
S2144015B05B6838BF4FF0010A03EB02090CEB0E03E1
S2144015C028BF4FF0000A324407EB8303072EDA6049
S2144015D02CD93446820002F1402202F5403209F10D
S2144015E0080313F8085C083C156513F8075C072CDD
S2144015F0156513F8065C03F10803156513F80D5CD2
S214401600156513F80C5C156513F80B5C156513F837
S2144016100A5C156513F8095C1565E2D8A6F108035F
S21440162023F007030833994406F007062EB38300D9
S21440163003F1402399F8002003F54033012E1A6544
S2144016401BD099F80120022E1A6516D099F8022070
S214401650032E1A6511D099F80320042E1A650CD073
S21440166099F80420052E1A6507D099F80520062E0D
S2144016701A6502D099F806201A650CEB0E0307EBA4
S21440168083035A7C08F1010868F383025A7499B1BF
S214401690800000F1402000F54030036B0193019B31
S2144016A043F04F030193019B43F010030193019BCA
S2144016B00363036BDB06FCD5BAF1000F07D00CEBD7
S2144016C00E0307EB83035A7C6FF386125A74E64484
S2144016D007EB8E07FA68BB689A420AD3787C10F00C
S2144016E0400006D17B7C43F080037B7402B0BDE8AB
S2144016F0F087012002B0BDE8F08701233DE7184699
S21440170002B0BDE8F08700BF381200200122034B2C
S2144017101A70BFF35F8F62B6704700BF900200201A
S21440172030B4437C04686FF30413437494B10D469D
S214401730094B02F10C0153F821308168A5F10100F4
S214401740B0FA80F05B0548BF42F08002234630BCCA
S2144017504009184730BC7047004003402DE9F0432D
S214401760DFF8B88187B098F80030032B7AD0654E02
S214401770654D3288AC89A41AA4B2002C4DD0634F74
S2144017803F2C40F2AC80002340243B70AD68EFF322
S2144017901083B3FA83F35B09059372B6BFF35F8F8A
S2144017A000235B4F5B483B70DDF814E0036B9B0700
S2144017B076D444B115442A4612F8011B531BDBB2BB
S2144017C0A3420165F8D33288524B14441A463480FB
S2144017D0196B0391039941F04F010391039941F02E
S2144017E01001039103991963136BD906FCD5136B4B
S2144017F048490493049B43F04F030493049B23F00F
S21440180001030493049B13630B6BDB07FCD4BEF10C
S214401810000F66D107B0BDE8F0833F49E8880B88E3
S21440182013449BB298420B8005D0384F97F80090EF
S214401830B9F1000F4ED00422364B88F800201A46E5
S214401840196B0191019941F04F010191019921F0E5
S2144018500101019101991963136BD907FCD407B0B4
S214401860BDE8F0832B4B1A46196B0091009941F066
S2144018704F010091009921F00101009100991963F0
S214401880136BD807FCD4204D2B6903B1984700232F
S2144018902B616B61AB8188F8003007B0BDE8F08300
S2144018A0BEF1000F23D104221A4B88F800201A46B6
S2144018B0196B0291029941F04F010291029921F071
S2144018C00101029102991963136BD807FCD407B043
S2144018D0BDE8F0836B6913B1984770B9328801232D
S2144018E053E701233B70BFF35F8F62B692E7012355
S2144018F03B70BFF35F8F62B6D5E734804A46AC890B
S2144019003EE700BF32120020C412002030120020F2
S214401910900200200040034034120020361200207F
S2144019202DE9F04F654BA7B0984720B9644BDB696B
S21440193013F4807330D0634B22209847604B9A69EB
S214401940120503D5DA69170500F18A805C4BDA691F
S214401950D60729D51A6B550700F137811A6BD5077C
S21440196000F169811A6B940700F168811A6B1707BA
S2144019701AD51A46196B0091009941F04F01009113
S214401980009921F00801009100991963136B1E0716
S214401990FCD427B0BDE8F08F72B6BFF35F8F4A4ADB
S2144019A0137027B0BDE8F08F454B9B699D070DD55A
S2144019B0464A136B13F0420340F0D283116BCC07B8
S2144019C000F18185136B180700F17B853C4B9B69C2
S2144019D059070DD53E4B1A6B12F0420F40F0A885C2
S2144019E01A6BD20700F181851B6B1F0700F16482DA
S2144019F0334B9B691E070FD5364B1A6B12F0420FBE
S214401A0040F06A851A6BD60700F1C0821B6B1F0731
S214401A1048BF032300F15182294B9A6995041BD491
S214401A20274B9A69900523D5DB69990520D54FF455
S214401A301852234B284C1A625A612078002800F02E
S214401A408F814FF4807201204FF400611C4B207050
S214401A501A621A611961A4E7DB699C04E7D4DFE7E0
S214401A604FF400611D4A1962904727B0BDE8F08FD9
S214401A70134B9A69520502D5DB695B05D7D4104BE8
S214401A809A69D7052ED5DA69D6052BD54FF48072DC
S214401A904FF480614FF400564FF400750E4C1A62B6
S214401AA022205A611E610E4A1D61196190472378B3
S214401AB0002B40F0FD830023237072E73D4A400030
S214401AC000400340D94840009002002004400340B4
S214401AD0084003400C40034031120020E90C40000F
S214401AE01D494000964AD369DD047FF55AAF4FF44E
S214401AF08053944F13627B7CDC0600F1CC8197F8D0
S214401B002530D80600F11A8297F83930D90600F108
S214401B10AF818D4B98478A4B5A68194622F001028E
S214401B205A605A6822F002025A609A6842F48072FA
S214401B309A609A6822F07F029A601A6B2492249ADE
S214401B4042F04F022492249A22F4074222F0800266
S214401B502492249A42F400422492249A1A630B6BED
S214401B601A04FCD50B6B764A2593259B43F04F030E
S214401B702593259B43F400432593259B0B63136BCA
S214401B801B04FCD5EFF31083B3FA83F35B0923936E
S214401B9072B6BFF35F8F002001216C4B18702398FC
S214401BA0116118B11970BFF35F8F62B600234FF40E
S214401BB080744FF40060664A6149664D13612B702D
S214401BC00C61536108619381EBE6624E337843B112
S214401BD05F4C236903B19847002323616361A38167
S214401BE03370574D2B6BC3F30A43082B00F0DC8051
S214401BF029462B6B0493049B43F04F030493049BAA
S214401C0023F004030493049B2B630B6B5C07FCD408
S214401C10052333700B6B4A4A0393039B43F04F03F1
S214401C200393039B43F020030393039B0B63136BC5
S214401C309806FCD5B5E6484B9847B2E6454E32780E
S214401C40012A2DD0022A00F0A880042A00F0A580A0
S214401C5019461A6B0D920D9A42F04F020D920D9A4C
S214401C6042F020020D920D9A1A630B6B9806FCD533
S214401C70374C334B1A46196B0E910E9941F04F0173
S214401C800E910E9921F002010E910E991963136B75
S214401C9013F00203FBD123616361A381337080E6B6
S214401CA02E4F1A6B2A4C3B88C2F30A42A1899818D9
S214401CB08142B8BFCA1AA168B8BF92B219448AB165
S214401CC008461F4DD5F850E000F801EBA0EB010E9A
S214401CD05FFA8EFE9645F5D313449BB2402A3B806E
S214401CE000F07A836269A381002A00F0038190475E
S214401CF0002840F0FF800522114B327019461A6BBF
S214401D000C920C9A42F04F020C920C9A42F020022F
S214401D100C920C9A1A630B6B9A06FCD50B6B084A0E
S214401D200F930F9B43F04F030F930F9B23F0020339
S214401D300F930F9B0B63136B9B07FCD431E600BFDE
S214401D400040034038120020510C40009002002012
S214401D50C4120020361200205D17400032120020C8
S214401D60834A9378FF2B17D0EFF31083B3FA83F3AD
S214401D705B09219372B6BFF35F8F7E4993780870F4
S214401D8021980133937000283FF45BAE01230B701B
S214401D90BFF35F8F62B654E6FEE7774C2369002BAD
S214401DA03FF467AF984764E72A6D734C734B2270D5
S214401DB02A6D62702A6DA2702A6DE2702A6D2271B9
S214401DC02A6D62712A6DA2712A6DE271984710BB26
S214401DD02A462B6B0593059B43F04F030593059BC3
S214401DE023F004030593059B2B63136B5907FCD420
S214401DF005233370136B62490293029B43F04F03F3
S214401E000293029B43F020030293029B13630B6BE7
S214401E109B06FCD5C5E594F900302A46002B2B6B73
S214401E20C0F2B1820893089B43F04F030893089B87
S214401E3023F004030893089B2B63136B13F00403EF
S214401E40FBD1E188002940F08C8003233370136B6C
S214401E504B490193019B43F04F030193019B43F091
S214401E6010030193019B13630B6BDE06FCD598E5CC
S214401E70BC6A6FF3041387F83930002C3FF449AE40
S214401E803F4B396BDB6B012013F4806F14BF83220A
S214401E900322A0473DE63C686FF304137B74002C96
S214401EA03FF42DAE536BB96813F4806F14BF812294
S214401EB001220120A04722E602239B0003F1402393
S214401EC003F540331A6B1E921E9A42F04F021E9242
S214401ED01E9A22F008021E921E9A1A631A6B160762
S214401EE0FCD41A6B02F4E062B2F5807F3FF459AD41
S214401EF01B6B56E5224B19461A6B1092109A42F00D
S214401F004F021092109A22F002021092109A1A6310
S214401F100B6B9F07FCD4032333700B6B184A0B9351
S214401F200B9B43F04F030B930B9B43F010030B9319
S214401F300B9B0B63136BDD06FCD532E57C696FF3B8
S214401F40041387F82530002C3FF4DEAD0C4BF969BE
S214401F509B6B012013F4806F14BF82220222A0479D
S214401F60D2E501200749084A30700B80138018E5F7
S214401F70BC12002090020020C4120020210D400018
S214401F800040034034120020321200204FF0030875
S214401F90022544464FF008098C4EA6F128074FEA22
S214401FA0850A0AEB050307EB830303F1100042782A
S214401FB01146C2F38102033262F38301CAB2417012
S214401FC012F020014CD0A30003F1402303F5403328
S214401FD012F00C0F1A6B1DD01492149A42F04F0256
S214401FE01492149A42F010021492149A1A631A6BBE
S214401FF0D506FCD51A6B1592159A42F04F021592EB
S214402000159A22F001021592159A1A631A6BD40794
S214402010FCD4C6E41692169A42F04F021692169ACE
S21440202022F001021692169A1A631A6BD007FCD455
S2144020301A6B1792179A42F04F021792179A42F06D
S21440204020021792179A1A631A6B9106FCD50AEB70
S214402050050307EB83035A7C6FF345125A74A0E4DA
S21440206012066AD40AEB050307EB8303D9689A681D
S21440207091422AD35B7C13F04C0226D1EFF31083B7
S214402080B3FA83F35B09189372B6BFF35F8F504B76
S21440209050491A70189BC1F814900BB14E4B984794
S2144020A0A30003F1402303F540331A6B1992199AA3
S2144020B042F04F021992199A22F001021992199A87
S2144020C01A631A6BD007FCD46BE4B8F1030F00F028
S2144020D043810AEB050307EB830707F1100A9AF8DA
S2144020E0013013F00C0F00F00681A30003F14023EB
S2144020F003F540331A6B1A921A9A42F04F021A921C
S2144021001A9A42F010021A921A9A1A631A6BD10659
S214402110FCD51A6B1B921B9A42F04F021B921B9ADD
S21440212022F001021B921B9A1A63196B11F00101EF
S214402130FBD14046294B984733E490F801E0DA68F3
S21440214061F3C71E80F801E022489A60C0F81490F8
S2144021505B7CDB0686D542463046214B984781E776
S2144021600122204F1346384600244FF002089B00B9
S21440217003F14023A60003F540333519196B07EBEE
S2144021808505B5F810C0C1F30A41CCF3090C59B324
S214402190D5F80890D5F80CE0D5F804B0A9EB0E0AAF
S2144021A08A4500F2A080C5F80C904FF00109BAF1BC
S2144021B0000F1AD0DE447546D3F850B005F801BB80
S2144021C0A5EB0E0BDA45F7D80FE000BF60120020F3
S2144021D090020020004003400D1740004D1540007F
S2144021E021174000381200208946D3F830E01D6B96
S2144021F01EF0020F49D015F0400E08D1351907EBF6
S214402200850595F811A06EF3830A85F811A0351957
S21440221007EB85056D7C15F00C0F1D6B38D11F95AF
S2144022201F9D45F04F051F951F9D25F002051F95E4
S2144022301F9D1D631D6BAD07FCD4032A0AD04FF0CB
S214402240010E351907EB850595F811A06EF3830A44
S21440225085F811A0B9F1000F02D18C457FF6A1ABED
S214402260196B11F020017FF49CABA54B344407EB6F
S2144022708407C3F81480FC687B7CBC60DF067FF56F
S21440228090ABA04B9847FFF78CBB4FF0010EB5E7DD
S2144022902095209D45F04F052095209D25F0400532
S2144022A02095209D1D631D6B15F0400EFBD1C8E7A1
S2144022B0954A9378B3B1EFF31083B3FA83F35B098F
S2144022C0229372B6BFF35F8F0020904993780870D0
S2144022D02299013B937000293FF4EDAB8C4B984715
S2144022E0FFF7E9BBFEE70EEB0109C5F80C908A46FE
S2144022F04FF000095EE701214046864DA84701465B
S21440230088B99AF80120FB6860F3C7128AF8012062
S2144023107B4ABB60C2F814907B7CDA0603D5304615
S2144023204246784B9847A30003F1402303F54033D9
S2144023301A6B1C921C9A42F04F021C921C9A22F076
S21440234001021C921C9A1A63196B11F00101FBD111
S2144023504046A847FFF725BB01216E4B40469847AD
S214402360674B1946DA6B1D921D9A42F04F021D923A
S2144023701D9A22F001021D921D9ADA63CB6BDB0791
S214402380FCD4FFF70EBB0693069B43F04F03069321
S214402390069B43F080030693069B2B63136B1F0636
S2144023A0FCD5136B56490793079B43F04F0307939F
S2144023B0079B23F004030793079B13630B6B13F0F1
S2144023C00403FBD1022454485449554A34700380D0
S2144023D00B809047FFF7E5BADFF83C81E188B8F814
S2144023E000201A4491427FF77DACA2899A4212D0CF
S2144023F0434B19461A6B1392139A42F04F021392AC
S214402400139A22F002021392139A1A630B6B9B07DD
S214402410FCD4FFF7C6BA6369002B2ED0984718BB8A
S214402420052333702B6B364A0993099B43F04F03C1
S2144024300993099B43F020030993099B2B63136B75
S2144024409906FCD5136B2E491293129B43F04F030B
S2144024501293129B23F002031293129B13630B6B8F
S2144024609A07FCD4FFF79DBA0021B8F800303A88A6
S21440247039801344A8F80030BAE7052333702B6B35
S2144024801F4A0A930A9B43F04F030A930A9B43F062
S21440249020030A930A9B2B63136B9C06FCD5136B95
S2144024A017491193119B43F04F031193119B23F04F
S2144024B002031193119B13630B6B9807FCD4FFF731
S2144024C070BA0123F9E44FF00108164F1D46444602
S2144024D03E464FF0020962E5032213481346A0F138
S2144024E0280702244FF0080841E64FF002080F4E36
S2144024F0012544464FF00409A6F114074FE500BFF6
S2144025000040034021174000BC12002090020020EB
S2144025100D1740004D1540003412002032120020A6
S2144025205D17400038120020601200204C12002038
S21440253002220448012413464FF00408A0F1140771
S21440254015E600BF4C120020F0B583B0EFF31083C1
S214402550B3FA83F35B09009372B6BFF35F8F002331
S2144025602249234C08782370009D20B30126214B36
S2144025704FF4007722200E7098474FF4807C4FF43B
S214402580005E4FF480604FF400611B4B5A6F22F49C
S21440259080725A675A6F3A435A67C3F810C0C3F8F6
S2144025A010E01F61186119611DB12670BFF35F8F7F
S2144025B062B603B0F0BD114A9378FF2B15D0EFF307
S2144025C01083B3FA83F35B09019372B6BFF35F8F50
S2144025D0937820700198013393700028C6D0012369
S2144025E02370BFF35F8F62B6C0E7FEE7311200206C
S2144025F090020020D948400000400340BC12002012
S214402600F0B583B0EFF31083B3FA83F35B0900931E
S21440261072B6BFF35F8F0024274D284B2C702220C4
S214402620009E9847264B984750224FF0040E254B65
S21440263025485F7C93F8251080F8222393F83920AC
S21440264007F0830701F0830102F0830264F3C711A9
S21440265064F3C71264F3C717C0F804E05F7483F8E6
S214402660251083F839204FF48020184FB847184A71
S214402670184913780C70FF2B1DD0EFF31083B3FA74
S21440268083F35B09019372B6BFF35F8F13782C70A8
S21440269001990133137021B101232B70BFF35F8F73
S2144026A062B60D4B984726B101232B70BFF35F8F60
S2144026B062B603B0F0BDFEE790020020D948400065
S2144026C06D4640003812002000E100E0814940009D
S2144026D0BC120020311200204925400000207047DF
S2144026E00C4B5A6822F001025A609A6822F48072B3
S2144026F09A6070B19A6800F07F0022F07F02104323
S21440270098609A6842F480729A605A6842F0010271
S2144027105A60704700400340044B586810F0010070
S2144027201CBF986800F07F00704700BF0040034021
S214402730024B1868C0F30A00704700BF00400340D1
S21440274000207047014B986099817047C412002062
S21440275070B400F00F04032C83B058D8A30003F1E4
S214402760402303F540331D6B15F400454FD101F06F
S2144027700306012E48D0402A49DC294E651E05EB4B
S214402780850506EB85052E8A40B262F309062E8241
S2144027906A7C002802F07F026FF345126A7405F1E6
S2144027A0100538DB01221F4E02FA04F43546B26AA1
S2144027B02243B262AA6A1442FCD0AA6A002822EADD
S2144027C00404AC621A6B0192019A42F04F020192E5
S2144027D0019A22F4074222F0800201924FEA012237
S2144027E002F440720199B4BF42F4044242F40042FB
S2144027F01143019101991963196B32EA0101FBD12A
S214402800012003B070BC70470CB1032CB3D100203C
S21440281003B070BC7047D2B26FF383026A70C1E7F0
S214402820381200200040034000F00F02032A3CD834
S2144028302DE9F041910001F1402101F540310B6B4B
S21440284082B00193019B43F04F030193019B23F415
S21440285000430193019B0B630B6B13F40043FBD1C6
S214402860561EB700B819114D80002C1894F811E088
S2144028701EF0100F02D102B0BDE8F08155F800807E
S21440288063F3041E84F811E0B8F1000FF3D00B6B2D
S2144028903E445B0505EB860548BF42F08002A968CA
S2144028A00120C04702B0BDE8F081704738120020D2
S2144028B000F00F00032814D8431E0B4A03EB830393
S2144028C002EB83035B7C9B0601D501207047074BD8
S2144028D00C3053F8203013F0280F14BF012000208E
S2144028E070470020704700BF381200200040034069
S2144028F000F00F0103292ED870B483B0EFF3108395
S214402900B3FA83F35B09019372B6BFF35F8F00237C
S214402910274C00062370019D1FD48A0002F14022F6
S21440292002F54032136B0093009B43F04F03009335
S214402930009B43F020030093009B1363136B9B069E
S214402940FCD501201B4B00FA01F11961EDB90120BD
S21440295003B070BC704700207047164B01F10C0264
S21440296053F822304E1EDA0616D5134BB20001201D
S214402970324403EB82035A7C0E4E42F0200200FAA9
S21440298001F15A743161002DE1D02070BFF35F8FA2
S21440299062B603B070BC7047B200074B901903EBA9
S2144029A08000407CC0F381000128E0DCB5E700BF32
S2144029B090020020004003403812002000F00F0034
S2144029C003284AD8F0B5451EAC00294E631906EBDD
S2144029D08303597C82006FF3451102F140225974FB
S2144029E002F54032136B83B09B0633D5136B0093CE
S2144029F0009B43F04F030093009B23F0200300937B
S214402A00009B1363136B9F06FCD40123194F03FAF4
S214402A1000F03946BB6A0343BB628B6A1842FCD05F
S214402A208B6A23EA00008862136B0193019B43F094
S214402A304F030193019B23F008030193019B13630B
S214402A40136B13F00803FBD12C44A4003219517CBD
S214402A50C80604D4012003B0F0BD0020704763F3DD
S214402A600411305951748047012003B0F0BD00BFB7
S214402A7038120020004003402DE9F04F00F00F06CA
S214402A8085B0032E019233D8B40004F1402404F5F7
S214402A904034256B2A042BD506F1FF3E4FEA8E0CB8
S214402AA0444F0CEB0E0507EB850595F8118018F0A2
S214402AB0200F1DD1D4F8309019F0200918D1EFF32B
S214402AC01088B8FA88F84FEA5818CDF8088072B6D9
S214402AD0BFF35F8FDFF8E88095F811B088F8009074
S214402AE01BF0100FDDF808A006D0BAF1000F4CD14D
S214402AF0002005B0BDE8F08F95F8119049F0100918
S214402B0085F81190BAF1000F38D14FF000090E9AAF
S214402B100CEB0E05AD007A51019A3D446A60AB60FD
S214402B20C5F80C9031B30CEB0E0307EB83035A7CCD
S214402B3061F386126FF3C7125A74EFF31083B3FA39
S214402B4083F35B09039372B6BFF35F8F00220121C4
S214402B50194B88F8002001FA06F2039D1A61030615
S214402B601BD40120002DC4D088F80000BFF35F8F2F
S214402B7062B6BEE7B3FA83F14909D4E7012588F87F
S214402B800050BFF35F8F62B6BFE7012388F800307E
S214402B90BFF35F8F62B64846ABE7246B14F0110470
S214402BA0DFD13046054FB8470028DAD021463046B8
S214402BB0B847D6E738120020004003404D15400085
S214402BC09002002000F00F02032A00F28F802DE9C9
S214402BD0F04188B0EFF31083B3FA83F35B090593B3
S214402BE072B6BFF35F8F002401217D4B7D4E1C7073
S214402BF0059D01FA02F47461002D40F08F800506B1
S214402C0000F193804FF0010C571E4FEA870E764E28
S214402C100EEB0705910006EB850501F1402105F115
S214402C20100001F540310B6B13F0420F28D0D1F85D
S214402C3030800B6B18F0020F4ED143786CF3830351
S214402C4043706B7C13F00C0F0B6B2FD10693069BD7
S214402C5043F04F030693069B23F002030693069B1E
S214402C600B630B6B9B07FCD4002ADCD0032ADAD01C
S214402C7043786CF3830343700B6B13F0420FD6D14B
S214402C80584B1946986A204398628B6A1C42FCD07F
S214402C90886A0EEB070320EA04049B008C62F01857
S214402CA0447CE50623D408B0BDE8F0810793079B33
S214402CB043F04F030793079B23F040030793079B7C
S214402CC00B630B6B13F04003FBD190F8018063F36A
S214402CD0830880F80180A6E713F04003B1D190F84E
S214402CE0018063F3830880F80180AAE77047F358B1
S214402CF06FF304144474002BD5D002F10C0051F845
S214402D0020107744490506EB870648BF42F080020C
S214402D10B1680120984708B0BDE8F0811970BFF34C
S214402D205F8F62B605067FF56DAF910001F14021D9
S214402D3001F540310B6BD80635D52AB3032A23D08C
S214402D400B6B0193019B43F04F030193019B23F0D0
S214402D5010030193019B0B630B6BDB06FCD40B6BE0
S214402D60DF06FCD40B6B0293029B43F04F030293A7
S214402D70029B43F010030293029B0B630B6BDE0631
S214402D80FCD50B6BDD06FCD50B6B0393039B43F026
S214402D904F030393039B23F010030393039B0B63A0
S214402DA00B6BD806FCD40B6B0493049B43F04F0389
S214402DB00493049B23F001030493049B0B630B6B67
S214402DC013F00103FBD1571E4FEA870E064E0EEB5B
S214402DD0070106EB8101487C63F3830048744FE7A4
S214402DE09002002000400340381200204FF4004379
S214402DF04360704708B5024B9847012008BD00BFA6
S214402E00490C400008B5024B9847C0B208BD00BF09
S214402E102908400008B5024B9847C0B208BD00BF1D
S214402E208108400000B583B002AB43F8040D184655
S214402E300121034B9847C0B203B05DF804FB00BFC6
S214402E40290B400008B50A46024B01460020984729
S214402E50C0B208BD050A400000487047F800002090
S214402E60024B5B6903B11847704700BFF80000206B
S214402E70024B9B6903B11847704700BFF80000201B
S214402E806F4B1B78002B60D02DE9F04FDFF8CCB1AC
S214402E9087B0DBF800C09CF81230012B6FD00024BE
S214402EA06746684DDFF8B88105F102093B199E7BFD
S214402EB0002E00F0B180B7F806E035F8021FBEF1EC
S214402EC0010FC1F30B0111D92A46AEF102039BB2A2
S214402ED0201D00EB830009EB400032F8083FC3F3A7
S214402EE00B0390421944F8D1B1FBFEF144F620633F
S214402EF042F2107003FB01F1A8FB0123C91A03EB51
S214402F005101A0EBD120504B98474BA3D3E9002367
S214402F10DFF850A1D047BF69324607F11C03CDE920
S214402F200001184649494A4B9847DBF8003087F875
S214402F301C0198690134036990F81C111C309847AD
S214402F40042C03D0DBF80070B0E77047DBF800C015
S214402F500221404ADCF818301088927898839A7795
S214402F6083F81C11DCF81800036990F81C111C301B
S214402F7098470023324A137007B0BDE8F08FBCF87C
S214402F800630012B4AD9DCF814301B68002BF0D0F1
S214402F900027BA46304EDFF8D0800024DFF8B8E08D
S214402FA002AF0CF10E0919F8013B13B3BCF80650FA
S214402FB00AEB040358199BB2984239680BDD04EBC0
S214402FC0830236F8122004339BB2C2F30B028342CC
S214402FD01144F4DB3960B1FBF5F1BEF80030013442
S214402FE003EA08030B43042C47F8041B2EF8023B65
S214402FF0D9D1DCF8183008211B6917489847DBF808
S21440300000C0BCF80630DCF814209A4413681FFA57
S2144030108AFA9A45C1D3ACE7BC4699E7DCF8142057
S214403020DCF8183011681B69490089B20A4898478D
S2144030309FE700BFAFF30080000000000088C34059
S21440304079120020E2120020D94F4000E497400059
S214403050A5524000E0974000E41200207C12002079
S214403060010110005D4D400000F0FFFF30B1044B01
S214403070044942690860436101201A60704700BFF6
S214403080F01A00207C1200202DE9F0411D20304B24
S214403090984710B10020BDE8F0812E4D03462E4CD7
S2144030A028462E4A2E49A04704460028F2D102461A
S2144030B003460F2128462B4EB04745F2555621462B
S2144030C02846294B9847294F2846B8472846012185
S2144030D0274B9847284622460321264B98470220EE
S2144030E004210622EB6CA84643F47F03EB64AE64EF
S2144030F02B6C214E43F080732B646B68307143F425
S21440310000036B60284671703470F470B2701B4DCB
S214403110B8471B4F2B6823449B7B013423B1F15C9B
S2144031204046B847042CF5D1164C4FF0805109481C
S214403130A0474FF000610748A04740214FF000529B
S214403140114B012083F81D131A60BDE8F08100BFC3
S214403150D948400000800340D11240000024F400CB
S2144031600090D00325134000051340004D13400047
S2144031706113400015134000741200207C1200209A
S214403180411340005513400000E100E02DE9F047B0
S2144031903B4D84B02B68002B6CD01720DFF82C8179
S2144031A0C047044620B10025284604B0BDE8F08755
S2144031B0344F4FF4D822344B3846214698472B6834
S2144031C0029403941B68314A9342ECD8B2FBF3F95D
S2144031D02F4E48460096314603AB02AADFF8F0A0D1
S2144031E0D0470028DFD07B68039A23F007031343B9
S2144031F07B60029B2748B6FBF3F3B3FBF9F35A0810
S2144032007A61254AFB613C619047244A1060002859
S214403210C9D02A68224B2349526919601568012192
S214403220214A5D609047214B984705460028BAD012
S2144032301E20C0471E481F4B984721461E4B1C4821
S214403240984722461D4B2146194898471C4E214612
S2144032501748B04701211648B04721461448194C34
S214403260A04701211248A0474FF48571164B1048DD
S214403270984799E70125284604B0BDE8F08700BF87
S2144032807C120020000001409549400040420F005B
S2144032900090D0030080034075134000E41A0020DD
S2144032A0EC1A0020E4120020D1474000893040004C
S2144032B000C003402947400031474000694740006E
S2144032C05147400099474000AD474000D94840002C
S2144032D0BD49400030B40C4B0C4D1C68627AA37A52
S2144032E0217A42EA820043EA8303E27A43EA0033E1
S2144032F041EA810143EA012342EA820243EA021399
S214403300AB6430BC704700BF7C1200200080034096
S214403310074B084A1B681B7B23B9536803F010030E
S21440332053607047536843F010035360704700BFC4
S2144033307C120020008003402DE9F047404884B0CE
S214403340404B9847C20004460BD53F4D2A78BAB941
S2144033503E4D3F4928683F4B9847286801213E4BE1
S2144033609847230109D501213C4B374A1B68117009
S2144033709B6902211B693A48984704B0BDE8F0872C
S2144033800026DFF8F480374B314640469847364FA4
S2144033904FF080512A48DFF8C490B8474FF000619C
S2144033A02748B847D9F80070304B2E703B600296DD
S2144033B003963D689D421FD94FF0160CD7F818E08B
S2144033C02B4D8EF81CC10FCDCEF81C00CEF8201029
S2144033D0CEF824202868A988AA79CEF82830CEF8D6
S2144033E02C00AEF830108EF83220B869036990F899
S2144033F01C111C309847B4E7B3FBF5F51D4F284623
S2144034000097394603AB02AADFF870A0D04798B1C0
S214403410D8F80430039A23F007031343C8F804305F
S214403420029BB7FBF3F3B3FBF5F35A08C8F8142036
S214403430C8F81C30C8F81060D9F80070BCE700BF68
S214403440008003405D13400079120020E41A0020FB
S214403450EC1A0020B9474000D14740007C120020BB
S21440346018020020B54940005913400040420F0062
S214403470CC9740000090D00300000140BD4940007A
S2144034800D4B70B50D489847C30713D50C4D0D4EE0
S21440349000210A48B0472B680B4C998B0748A04739
S2144034A001210648B0472B680448D98B2346BDE81F
S2144034B07040184770BD00BF4947400000C00340F9
S2144034C07C120020514740004D474000F0B5002692
S2144034D0154B85B01B68029603961D68134CA54293
S2144034E002D9002005B0F0BDB4FBF5F5104C2846D7
S2144034F00094214603AB02AA0E4FB8470028F0D0EE
S2144035000D4B03995A68012022F007020A435A607D
S214403510029AB4FBF2F4B4FBF5F424FA00F25A61D2
S214403520DC611E6105B0F0BD7C12002040420F00F9
S2144035300090D003BD4940000000014070B50B4DDF
S2144035400B4C28464FF08051A04728464FF000616C
S214403550A04740204FF00052064B002183F81D0341
S2144035601A600548054BBDE8704018470080034088
S2144035705513400000E100E000000140AD49400026
S21440358000210148014B184700000140B549400062
S21440359000487047812E4000704700BFF8B5164679
S2144035A01527094C094B98470FCCF061B4F804E056
S2144035B020683162F0627262B362A6F830E086F844
S2144035C01C710120F8BD00BFF89940003D35400011
S2144035D0F0B40468631EDBB2012B02D90020F0BCB5
S2144035E0704743689DB2B5F5806FF7D20089B0F555
S2144035F0805FF3D20125E4B204EB4427064E9BB22B
S21440360004EB47041C443388143421F8140028463D
S214403610938382F81C51E2E76C984000F8B5164652
S2144036201527094C094B98470FCCF061B4F804E0D5
S21440363020683162F0627262B362A6F830E086F8C3
S2144036401C710120F8BD00BF109A40008135400033
S2144036500368581EB0F57A7F02D300231846704799
S21440366010B51446CB801A46044904F11C00044B9E
S2144036709847012384F81C01184610BDD89840008E
S214403680A55240000368B3F57A7F02D90023184656
S214403690704710B514468B801A46054904F11C0045
S2144036A0044B9847012384F81C01184610BD00BF00
S2144036B044994000A552400010B503685C1EB4F51E
S2144036C0806F02D30023184610BD14464A69064947
S2144036D013600288054B04F11C009847012384F8C8
S2144036E01C01184610BD00BF0C994000A552400072
S2144036F0F8B503685C1E012C02D900231846F8BDB5
S2144037004FF6DC744668A642F7D840F606070C46E5
S214403710154607FB0313A3F82A680288064907FBE9
S214403720024405F11C00B4F82A38044CA047012393
S21440373085F81C011846F8BD3C984000A55240004C
S21440374030B51446B1F83038B1F82E28B1F83658AE
S214403750B1F83408B1F8321885B00295019000915E
S21440376004F11C000349044DA84784F81C01184680
S21440377005B030BDF8974000A5524000F8B5036844
S2144037805C1E012C02D900231846F8BD4668741EFC
S214403790B4F5806FF7D240F606070C46154607FB91
S2144037A00313A3F828680288064907FB024405F17C
S2144037B01C00B4F82838044CA047012385F81C01A7
S2144037C01846F8BD0C984000A552400070B50668F3
S2144037D0731E012B02D90023184670BD44F62064A0
S2144037E0436803F51C531033A342F4D805461446E9
S2144037F003EB830303EB83030C4A2433C3EB03330B
S214403800A2FB032301EB46065B0C7383084B9847E9
S214403810B5F904302A78074904F11C00064DA8473C
S214403820012384F81C01184670BD00BF83DE1B438D
S2144038308134400024994000A552400038B50368C2
S2144038405C1E032C02D84468022C01D9002038BDE7
S21440385015460B44DC71027890F90430054905F1B1
S2144038601C00054CA047054B85F81C0198470120D5
S21440387038BD00BF70984000A5524000D532400089
S214403880F8B50368012B01D90020F8BD14460B7328
S214403890CBB1164F02F11C0607F1200E3D460FCD68
S2144038A0754530607160B260F36007F1100706F14D
S2144038B01006F3D120233A78327084F81C310C4B32
S2144038C098470120F8BD0B4F02F11C0607F1200E69
S2144038D03D460FCD754530607160B260F36007F1CC
S2144038E0100706F11006F3D1E4E700BF90984000B9
S2144038F011334000B4984000F0B50368012B02D95C
S21440390000242046F0BD8B7404781546ACB1012CDB
S21440391010D14FF01F0E144E85F81CE10FCEE86113
S21440392029626A62AB620FCEE86229636A63AB6360
S2144039302046F0BD01242046F0BD0C4C1E270FCC7F
S214403940E86129626A62AB6207CCB4F800E0A3780B
S2144039500124E86229636A63A5F838E085F83A30BE
S21440396085F81C712046F0BD94994000749940003B
S21440397070B503680C485C1E844202D90024204679
S21440398070BD0B60094B16460D4698470446002806
S214403990F4D02A68064906F11C00064B984786F87C
S2144039A01C01204670BD00BF3F420F00CD34400092
S2144039B0B4994000A55240000368042B08D84368D9
S2144039C0042B05D88368042B02D8C368042B02D97D
S2144039D000231846704730B51446CB7B8A7B487C1C
S2144039E0097C83B00190009104F11C000449054D08
S2144039F0A847012384F81C01184603B030BD00BF19
S214403A00D4994000A55240000020704700207047DF
S214403A102DE9F041413888B00E461446132800F28E
S214403A207E83DFE810F043007200A100D000FF0064
S214403A302E016B019A01C901F80127025602850240
S214403A40C302F2027C037C0320034E0314000023CF
S214403A5054211D461F469846A14A0193029303935C
S214403A600493059306930793317072606368984792
S214403A700028FBD0A36898470D2800F080832C28A8
S214403A8000F0CD83082800F05584A0F13003DBB267
S214403A90092B01D92D28E9D108ABC7EBC7021A4438
S214403AA02A446B1C02F81C0CDDB2DFE700234121E0
S214403AB01D461F4698468B4A0193029303930493F0
S214403AC005930693079331707260636898470028A1
S214403AD0FBD0A36898470D2800F028832C2800F0D8
S214403AE0A683082800F04484A0F13003DBB2092BFB
S214403AF001D92D28E9D108ABC7EBC7021A442A449E
S214403B006B1C02F81C0CDDB2DFE7002342211D4689
S214403B101F469846744A0193029303930493059371
S214403B200693079331707260636898470028FBD00D
S214403B30A36898470D2800F0F9822C2800F04F83A0
S214403B40082800F0C484A0F13003DBB2092B01D969
S214403B502D28E9D108ABC7EBC7021A442A446B1C90
S214403B6002F81C0CDDB2DFE7002343211D461F464A
S214403B7098465E4A019302930393049305930693F3
S214403B80079331707260636898470028FBD0A3683B
S214403B9098470D2800F0CD822C2800F02483082872
S214403BA000F0AB83A0F13003DBB2092B01D92D28FE
S214403BB0E9D108ABC7EBC7021A442A446B1C02F88B
S214403BC01C0CDDB2DFE7002344211D461F46984605
S214403BD0474A0193029303930493059306930793EE
S214403BE031707260636898470028FBD0A368984796
S214403BF00D2800F09E822C2800F0F982082800F05C
S214403C00A284A0F13003DBB2092B01D92D28E9D1DB
S214403C1008ABC7EBC7021A442A446B1C02F81C0CBC
S214403C20DDB2DFE7002345211D461F469846314A50
S214403C30019302930393049305930693079331707D
S214403C407260636898470028FBD0A36898470D28A1
S214403C5000F085822C2800F0AE82082800F05584BB
S214403C60A0F13003DBB2092B01D92D28E9D108ABEE
S214403C70C7EBC7021A442A446B1C02F81C0CDDB280
S214403C80DFE7002346211D461F4698461A4A019301
S214403C9002930393049305930693079331707260DF
S214403CA0636898470028FBD0A36898470D2800F023
S214403CB03D822C2800F0A782082800F07783A0F1E8
S214403CC03003DBB2092B01D92D28E9D108ABC7EB6D
S214403CD0C7021A442A446B1C02F81C0CDDB2DFE70C
S214403CE01D36400051364000B9364000F13640009F
S214403CF0CD374000B9394000853640000023472183
S214403D001D461F469846A24A019302930393049386
S214403D10059306930793317072606368984700284E
S214403D20FBD0A36898470D2800F003822C2800F0AB
S214403D306282082800F08A82A0F13003DBB2092BA9
S214403D4001D92D28E9D108ABC7EBC7021A442A444B
S214403D506B1C02F81C0CDDB2DFE7002348211D4631
S214403D601F4698468B4A0193029303930493059308
S214403D700693079331707260636898470028FBD0BB
S214403D80A36898470D2800F0D1812C2800F03F8288
S214403D90082800F02883A0F13003DBB2092B01D9B4
S214403DA02D28E9D108ABC7EBC7021A442A446B1C3E
S214403DB002F81C0CDDB2DFE7002349211D461F46F2
S214403DC09846754A0193029303930493059306938A
S214403DD0079331707260636898470028FBD0A368E9
S214403DE098470D2800F0A5812C2800F0EC81082883
S214403DF000F00184A0F13003DBB2092B01D92D2855
S214403E00E9D108ABC7EBC7021A442A446B1C02F838
S214403E101C0CDDB2DFE700234A211D461F469846AC
S214403E205E4A019302930393049305930693079384
S214403E3031707260636898470028FBD0A368984743
S214403E400D2800F09E812C2800F0B981082800F04B
S214403E50E782A0F13003DBB2092B01D92D28E9D146
S214403E6008ABC7EBC7021A442A446B1C02F81C0C6A
S214403E70DDB2DFE700234B211D461F469846484AE1
S214403E80019302930393049305930693079331702B
S214403E907260636898470028FBD0A36898470D284F
S214403EA000F044812C2800F09681082800F0D58246
S214403EB0A0F13003DBB2092B01D92D28E9D108AB9C
S214403EC0C7EBC7021A442A446B1C02F81C0CDDB22E
S214403ED0DFE700234C211D461F469846314A019392
S214403EE0029303930493059306930793317072608D
S214403EF0636898470028FBD0A36898470D2800F0D1
S214403F0015812C2800F07B81082800F0BC81A0F1A8
S214403F103003DBB2092B01D92D28E9D108ABC7EB1A
S214403F20C7021A442A446B1C02F81C0CDDB2DFE7B9
S214403F3000234D211D461F4698461B4A0193029377
S214403F4003930493059306930793317072606368F6
S214403F5098470028FBD0A36898470D2800F0E680D5
S214403F602C2800F03481082800F00B83A0F13003A1
S214403F70DBB2092B01D92D28E9D108ABC7EBC70224
S214403F801A442A446B1C02F81C0CDDB2DFE700BF63
S214403F903D3840004137400099354000D13540001B
S214403FA0093A400081384000F938400000234E214D
S214403FB01D461F469846A04A0193029303930493D6
S214403FC0059306930793317072606368984700289C
S214403FD0FBD0A36898470D2800F0AB802C2800F053
S214403FE01A81082800F05682A0F13003DBB2092B74
S214403FF001D92D28E9D108ABC7EBC7021A442A4499
S2144040006B1C02F81C0CDDB2DFE700234F211D4677
S2144040101F469846894A0193029303930493059357
S2144040200693079331707260636898470028FBD008
S214404030A36898470D2879D02C2800F0B48008282B
S21440404000F0F782A0F13003DBB2092B01D92D280E
S214404050EAD108ABC7EBC7021A442A446B1C02F8E5
S2144040601C0CDDB2E0E7002352211D461F46984651
S214404070734A01930293039304930593069307931D
S21440408031707260636898470028FBD0A3689847F1
S2144040900D284BD02C2800F08A80082800F08E820D
S2144040A0A0F13003DBB2092B01D92D28EAD108ABA9
S2144040B0C7EBC7021A442A446B1C02F81C0CDDB23C
S2144040C0E0E7002353211D461F4698465D4A01936C
S2144040D0029303930493059306930793317072609B
S2144040E0636898470028FBD0A36898470D2846D0B9
S2144040F02C2800F09880082800F0E280A0F13003D9
S214404100DBB2092B01D92D28EAD108ABC7EBC70291
S2144041101A442A446B1C02F81C0CDDB2E0E700256A
S2144041200D704D60284608B0BDE8F0817FB100258F
S214404130F8E7012FFBD1002DF4D0434C01A8A0474F
S214404140B0600DF10B00A0473D46F060EAE7002D59
S214404150E8D001A83C4B98470125B060E2E7032F22
S214404160E5D1002DDED0384F341D01AD143628463B
S214404170B84744F8040FB44205F10705F7D10125C6
S214404180D0E7022FD3D1002DCCD02F4C01A8A0478A
S214404190B0600DF10B00A047F0600DF11200A04793
S2144041A001253061BEE70137FFB200253CE7013705
S2144041B0FFB2002566E70137FFB2002541E501372B
S2144041C0FFB2002536E67B1CDFB2002503E601374A
S2144041D0FFB20025BBE60137FFB2002559E601379E
S2144041E0FFB20025A0E47B1CDFB20025CBE47B1C9D
S2144041F0DFB20025F6E47B1CDFB200258DE50137F3
S214404200FFB2002574E60137FFB2002548E50137C6
S214404210FFB20025B0E57B1CDFB20025D5E60137AE
S214404220FFB2002522E40137FFB2002558E70137E8
S214404230FFB2002549E400BF7D3740000D3A4000FC
S214404240713940009D354000C5504000FA00D31BF0
S21440425008A90B442B4413F81D3C2C2B0BD0002DE7
S2144042603FF460AF6B1EDDB2D31B08AA13442B4449
S21440427003F81C8C51E5002FF1D07B1EDFB26B1C7F
S214404280DDB2FA00F0E7FA00D31B08A90B442B4432
S21440429013F81D3C2C2B0BD0002D3FF443AF6B1E68
S2144042A0DDB2D31B08AA13442B4403F81C8C1FE62C
S2144042B0002FF1D0013FFFB26B1CDDB2FA00F0E7F1
S2144042C0FA00D31B08A90B442B4413F81D3C2C2B97
S2144042D00BD0002D3FF426AF6B1EDDB2D31B08AAD1
S2144042E013442B4403F81C8CFAE6002FF1D0013F10
S2144042F0FFB26B1CDDB2FA00F0E7FA00D31B08A948
S2144043000B442B4413F81D3C2C2B0BD0002D3FF4B4
S21440431009AF6B1EDDB2D31B08AA13442B4403F827
S2144043201C8C30E4002FF1D07B1EDFB26B1CDDB25C
S214404330FA00F0E7FA00D31B08A90B442B4413F805
S2144043401D3C2C2B0CD0002D3FF4ECAE6B1EDDB28A
S214404350D31B08AA13442B4403F81C8CFFF786BBD8
S214404360002FF0D0013FFFB26B1CDDB2FA00EFE742
S214404370FA00D31B08A90B442B4413F81D3C2C2BE6
S2144043800CD0002D3FF4CEAE6B1EDDB2D31B08AA78
S21440439013442B4403F81C8CFFF797BB002FF0D038
S2144043A0013FFFB26B1CDDB2FA00EFE7FA00D31B09
S2144043B008A90B442B4413F81D3C2C2B0BD0002D86
S2144043C03FF4B0AE6B1EDDB2D31B08AA13442B4499
S2144043D003F81C8C64E4002FF1D0013FFFB26B1C45
S2144043E0DDB2FA00F0E7FA00D31B08A90B442B44D1
S2144043F013F81D3C2C2B0BD0002D3FF493AE6B1EB8
S214404400DDB2D31B08AA13442B4403F81C8CB3E438
S214404410002FF1D0013FFFB26B1CDDB2FA00F0E78F
S214404420FA00D31B08A90B442B4413F81D3C2C2B35
S2144044300BD0002D3FF476AE6B1EDDB2D31B08AA20
S21440444013442B4403F81C8CF4E4002FF1D0013FB6
S214404450FFB26B1CDDB2FA00F0E7FA00D31B08A9E6
S2144044600B442B4413F81D3C2C2B0BD0002D3FF453
S21440447059AE6B1EDDB2D31B08AA13442B4403F877
S2144044801C8C06E5002FF1D0013FFFB26B1CDDB25D
S214404490FA00F0E7FA00D31B08A90B442B4413F8A4
S2144044A01D3C2C2B0BD0002D3FF43CAE6B1EDDB2DA
S2144044B0D31B08AA13442B4403F81C8C85E5002F15
S2144044C0F1D07B1EDFB26B1CDDB2FA00F0E7FA00DB
S2144044D0D31B08A90B442B4413F81D3C2C2B0CD0A3
S2144044E0002D3FF41FAE6B1EDDB2D31B08AA13444B
S2144044F02B4403F81C8CFFF717BB002FF0D0013F6E
S214404500FFB26B1CDDB2FA00EFE7FA00D31B08A936
S2144045100B442B4413F81D3C2C2B0CD0002D3FF4A1
S21440452001AE6B1EDDB2D31B08AA13442B4403F81E
S2144045301C8CFFF786BB002FF0D0013FFFB26B1CF0
S214404540DDB2FA00EFE7FA00D31B08A90B442B4470
S21440455013F81D3C2C2B0CD0002D3FF4E3AD6B1E06
S214404560DDB2D31B08AA13442B4403F81C8CFFF778
S21440457039BB002FF0D07B1EDFB26B1CDDB2FA00D9
S214404580EFE7FA00D31B08A90B442B4413F81D3C55
S2144045902C2B0BD0002D3FF4C5AD6B1EDDB2D31BCC
S2144045A008AA13442B4403F81C8CD0E4002FF1D007
S2144045B0013FFFB26B1CDDB2FA00F0E7FA00D31BF6
S2144045C008A90B442B4413F81D3C2C2B0BD0002D74
S2144045D03FF4A8AD6B1EDDB2D31B08AA13442B4490
S2144045E003F81C8C4EE5002FF1D0013FFFB26B1C48
S2144045F0DDB2FA00F0E7FA00D31B08A90B442B44BF
S21440460013F81D3C2C2B0CD0002D3FF48BAD6B1EAD
S214404610DDB2D31B08AA13442B4403F81C8CFFF7C7
S214404620DABB002FF0D07B1EDFB26B1CDDB2FA0087
S214404630EFE7FA00D31B08A90B442B4413F81D3CA4
S2144046402C2B0BD0002D3FF46DAD6B1EDDB2D31B73
S21440465008AA13442B4403F81C8CE5E4002FF1D041
S214404660013FFFB26B1CDDB2FA00F0E710B53E2109
S21440467000200B4B98470B4CA0470028FCD00A4B19
S21440468098470A4B0A4A0B4CDA62A0470028FCD0EF
S214404690094B01209847BDE81040084B184700BF1B
S2144046A03D4840008D484000BD48400000040E4054
S2144046B0033F1100C9484000614940007549400029
S2144046C070B50F480F4DA8473E2100200E4B984727
S2144046D00E4CA0470028FCD00D4B98470D4B0E4A79
S2144046E00E4C9A62A0470028FCD00D4B10209847ED
S2144046F00C4B98472B46BDE870400148184700BF12
S2144047000090D003890000203D4840008D4840007E
S2144047109D48400000040E40033F1720AD4840002F
S214404720E5474000E14A400001230360704700BF70
S214404730436821B923F0100343600020704743F0DC
S2144047401003436000207047006B7047016270475B
S2144047500129436801D90120704723F4981343EA9E
S2144047600141416000207047436849B143F020034F
S2144047704360436852B923F04003436000207047CB
S21440478023F0200343604368002AF4D043F04003FC
S21440479043600020704700BF012901D901207047BF
S2144047A0012303FA01F1016100207047034600200F
S2144047B0C3F89410704700BF19B10B6803604B688C
S2144047C043601AB11368036153684361704700BF82
S2144047D040F2011319400162704700BFC06C704739
S2144047E0806C704714490B6B23F0700318430863C2
S2144047F08B6E180758BF4FF4006302D504E0013BA8
S21440480017D08A6E1207FAD50B490B6B23F00303B9
S21440481043F002030B638B6E180758BF4FF40063D8
S21440482002D504E0013B04D08A6E1207FAD5002078
S21440483070470120704700BF00040E40C0B91048C2
S21440484009020246036A89B223F45C1323F0030389
S21440485043F45C1343F001030B430362936EDB07A0
S214404860FCD5136A43F09B7343F48033136270475E
S2144048700349044A086A044B024013430B627047DC
S21440488000040E40FCFFC8FE02003701024B986E43
S21440489000F48030704700BF00040E404FF00052D6
S2144048A0014B9A62704700BF00040E40024B986E60
S2144048B000F00200704700BF00040E400022014B8B
S2144048C0DA62704700040E40024B986E00F0040017
S2144048D0704700BF00040E40222819D81F284FF00A
S2144048E001030D4A08D803FA00F0936930EA03033F
S2144048F010D01061002070472038D2F8081103FA13
S21440490000F030EA010305D0C2F8000100207047ED
S214404910012070470020704700040E40222818D817
S2144049201F284FF001030D4A07D803FA00F0936999
S21440493030EA03030FD0002070472038D2F8081121
S21440494003FA00F030EA0103F5D1C2F80401002072
S21440495070470120704750610020704700040E40A9
S214404960000200F47060024B40F00100986370470C
S21440497000040E408022014B1A60704700040E402F
S214404980034BC0F312001A6F10431867704700BFFE
S21440499000040E4030B402254FF0FF34890143181E
S2144049A045509C62196A5A6030BC7047052389019D
S2144049B043507047022389014350704730B4B0EBF0
S2144049C0510F029C20D84D0CA84220D2B0EBD10FFC
S2144049D04FEAD14518D8A84224D2B0EB511F4FEA2F
S2144049E0515511D8A84220D2B0EBD11F4FEAD1552D
S2144049F00AD8A8421CD2E40BB1FBF4F181424FEA3C
S214404A00114501D3854216D9002030BC704700219D
S214404A10022402B114601BB130BC012019607047FB
S214404A200120F2E701210824F3E702212024F0E7E1
S214404A3003218024EDE70421EBE700BF024B187802
S214404A4080F00100704700BF80120020704700BF12
S214404A50FEE700BF1749184808B5814209D0174BF2
S214404A60984206D2C2431A4422F003020432144B40
S214404A7098471448144B984207D2C2431A4422F02F
S214404A80030204320021114B9847114B114A23F080
S214404A90604103F1604321F07F01B3F5804F9160A0
S214404AA003D2936843F0005393600B4B98470B4BED
S214404AB09847FEE70C9D400000000020480C002070
S214404AC01D514000480C0020582B00200952400041
S214404AD00000400000ED00E0CD504000AD4C4000EE
S214404AE0324A136B03F00303012B3AD023D3136AE5
S214404AF0D90146D52E492F4B0B602C4A106B00F03F
S214404B00030002280ABF906AD06A926AC0F30A403D
S214404B1000FB033318BFD26A2448D2B2B3FBF2F389
S214404B20026B02F07002702A15D1234AA2FB0323BF
S214404B305B080B607047214B1D495B6913F0800F83
S214404B4014BF4FF400434FF4FA431848026B02F088
S214404B507002702AE9D0026BC2F30212D3400B6097
S214404B607047136ADB0119D4114915480860126A68
S214404B7002F07002102A17D00E4B202A18BF0346A8
S214404B80E3E70B490E4B0B60126A02F07002102AE4
S214404B9007D0202AB1D1074B0B60AEE7054B04493E
S214404BA0D3E7084B0B60A8E7064BCEE700040E4061
S214404BB094020020001BB700ABAAAAAA10140E400D
S214404BC000093D0000127A000B4A0C4913683BB1BD
S214404BD018448142A6BF106018464FF0FF30704719
S214404BE010B4074C204481421460AABF10604FF0B6
S214404BF0FF30204610BC704784120020FCBF0020C7
S214404C00584B0020F0B5244C87B023685B68984723
S214404C1008B907B0F0BD23689B6898472268694684
S214404C201E4B984758B1019B22681D4902A89847D9
S214404C3000B3266806F11C0496F81C7114E04FF089
S214404C40160E77462668174D06F11C040FCDF06108
S214404C50316228687262A988AA79B362F0623186A6
S214404C6086F8322086F81CE1336939462046984754
S214404C7007B0F0BD4FF0170E26680B4D06F11C042A
S214404C800FCD7746F0616160A26003CDE36020619E
S214404C90616186F81CE1E7E7F81A0020113A400007
S214404CA0FC1A0020409A4000289A400080B51D48D3
S214404CB01D4B98471D4B98471D4B98471D4B984793
S214404CC01D4B1E4C43611E4B05462060984723688B
S214404CD0A8611B68002098476FF0F8270021042041
S214404CE001224FF0030E02251026164B24685874F6
S214404CF09C61154C18461C60DF615960134C83F864
S214404D0010E05E61997419739A731A725A729A72A5
S214404D10DA7283F82020DD7383F82150A0470C4BCD
S214404D209847FEE750140E40ED2D4000C146400027
S214404D304D4A4000592E4000054C4000F81A0020CD
S214404D4091354000FC1A002040420F006D30400074
S214404D508D31400081F0004102E000BF83F0004307
S214404D6030B54FEA41044FEA430594EA050F08BFC1
S214404D7090EA020F1FBF54EA000C55EA020C7FEA85
S214404D80645C7FEA655C00F0E2804FEA5454D4EB02
S214404D905555B8BF6D420CDD2C4480EA020281EACC
S214404DA0030382EA000083EA010180EA020281EA04
S214404DB00303362D88BF30BD11F0004F4FEA013156
S214404DC04FF4801C4CEA113102D0404261EB410165
S214404DD013F0004F4FEA03334CEA133302D05242EB
S214404DE063EB430394EA050F00F0A780A4F10104A7
S214404DF0D5F1200E0DDB02FA0EFC22FA05F28018E1
S214404E0041F1000103FA0EF2801843FA05F35941C6
S214404E100EE0A5F120050EF1200E012A03FA0EFC45
S214404E2028BF4CF0020C43FA05F3C01851EBE3716F
S214404E3001F0004507D54FF0000EDCF1000C7EEB8C
S214404E4000006EEB0101B1F5801F1BD3B1F5001FCA
S214404E500CD349085FEA30004FEA3C0C04F10104E9
S214404E604FEA445212F5800F80F09A80BCF1004F12
S214404E7008BF5FEA500C50F1000041EB045141EA94
S214404E80050130BD5FEA4C0C404141EB010111F495
S214404E90801FA4F10104E9D191F0000F04BF014640
S214404EA00020B1FA81F308BF2033A3F10B03B3F11E
S214404EB020020CDA0C3208DD02F1140CC2F10C02AE
S214404EC001FA0CF021FA02F10CE002F11402D8BF0C
S214404ED0C2F1200C01FA02F120FA0CFCDCBF41EAD8
S214404EE00C019040E41AA2BF01EB0451294330BDA7
S214404EF06FEA04041F3C1CDA0C340EDC04F1140484
S214404F00C4F1200220FA04F001FA02F340EA03005A
S214404F1021FA04F345EA030130BDC4F10C04C4F1A0
S214404F20200220FA02F001FA04F340EA0300294680
S214404F3030BD21FA04F0294630BD94F0000F83F4CA
S214404F40801306BF81F480110134013D4EE77FEAAD
S214404F50645C18BF7FEA655C29D094EA050F08BFF9
S214404F6090EA020F05D054EA000C04BF19461046DA
S214404F7030BD91EA030F1EBF0021002030BD5FEA1E
S214404F80545C05D14000494128BF41F0004130BD46
S214404F9014F580043CBF01F5801130BD01F000459A
S214404FA045F0FE4141F470014FF0000030BD7FEA0D
S214404FB0645C1ABF194610467FEA655C1CBF0B4608
S214404FC0024650EA013406BF52EA033591EA030F1F
S214404FD041F4002130BD00BF90F0000F04BF002117
S214404FE0704730B54FF4806404F132044FF000054A
S214404FF04FF0000150E700BF90F0000F04BF0021C3
S214405000704730B54FF4806404F1320410F0004528
S21440501048BF40424FF000013EE700BF42004FEA23
S214405020E2014FEA31014FEA02701FBF12F07F43A0
S21440503093F07F4F81F06051704792F0000F14BF9D
S21440504093F07F4F704730B54FF4607401F00045E1
S21440505021F0004120E700BF50EA010208BF704738
S21440506030B54FF000050AE050EA010208BF70472D
S21440507030B511F0004502D5404261EB41014FF496
S214405080806404F132045FEA915C3FF4DCAE4FF09A
S21440509003025FEADC0C18BF03325FEADC0C18BF81
S2144050A0033202EBDC02C2F1200300FA03FC20FAD2
S2144050B002F001FA03FE40EA0E0021FA02F114441F
S2144050C0C1E600BF0A22002100F00EBA70B50F4EAE
S2144050D00F4D761BB61018BF002405D0013455F886
S2144050E0043B9847A642F9D10A4E0B4D04F0F8FD12
S2144050F0761BB61018BF002406D0013455F8043B82
S2144051009847A642F9D170BD70BD00BFEC9C4000E8
S214405110EC9C4000F49C4000EC9C4000844641EAF5
S214405120000313F0030349D1403A23D30B680360CE
S2144051304B6843608B688360CB68C3600B690361D0
S2144051404B6943618B698361CB69C3610B6A0362B8
S2144051504B6A43628B6A8362CB6AC3620B6B0363A0
S2144051604B6B43638B6B8363CB6BC3634030403185
S214405170403ADBD230320BD30B6803604B68436057
S2144051808B688360CB68C36010301031103AF3D21E
S2144051900C3205D351F8043B40F8043B043AF9D2AC
S2144051A0043208D0D2071CBF11F8013B00F8013B7F
S2144051B001D30B8803806046704700BF082A13D38C
S2144051C08B07B1D010F00303AED0C3F10403D21A5C
S2144051D0DB071CBF11F8013B00F8013BA4D331F8B4
S2144051E0023B20F8023B9FE7043AD9D3013A11F834
S2144051F0013B00F8013BF9D20B7803704B784370C3
S2144052008B7883706046704770B4860746D0541ECD
S214405210002A41D0CAB2034602E014F1FF343BD321
S21440522003F8012B9D07F8D1032C2ED9CDB245EAC1
S21440523005250F2C45EA054519D9264603F11002E7
S214405240103E0F2E42F8105C42F80C5C42F8085CA8
S21440525042F8045C02F11002F2D8A4F1100222F0E7
S2144052600F0204F00F041032032C13440DD91E46CF
S2144052702246043A032A46F8045BFAD8221F22F054
S21440528003020432134404F003042CB1C9B21C4494
S21440529003F8011B9C42FBD170BC70471446034682
S2144052A0C2E700BF0EB40146F0B56FF000454FF4BC
S2144052B002774FF6FF769CB021AC54F8042B0B4B8C
S2144052C002910691186802A923460194ADF814701D
S2144052D004950795ADF8166000F01CF90022029B75
S2144052E01A701CB0BDE8F04003B07047980200202A
S2144052F020F0030110F00300C0F1000051F8043B19
S21440530000F1040C4FEACC0C6FF000021CBF22FAEE
S2144053100CF213434FF0010C4CEA0C2C4CEA0C4CAC
S214405320A3EB0C0222EA030212EACC1204BF51F8A5
S214405330043B0430F4D0C2F1000102EA0102B2FAA2
S21440534082F2C2F11F0200EBD20070472DE9F04F07
S21440535085B00291039000921E4688460E9F00E05C
S214405360A8464546384615F8014B02F06BFC2044EB
S214405370437813F00803F3D12D2C00F081802B2CBA
S21440538003BF2C78019308F10205019366B1102EF5
S21440539000F08880019BB0464FEAE6797BB94FF033
S2144053A0FF3A6FF000470EE0302C00F08A804FF056
S2144053B00A084FF000090A26019B002BEFD04FF059
S2144053C0000A4FF0004742464B465046394604F0E6
S2144053D075F84B46934650464246394604F06EF8BA
S2144053E04FF0000E002200230FE044D04FF0010E95
S2144053F002FB09F408FB0344A2FB0823234412EBF8
S2144054000C0243EBEC7315F8014BA4F1300CBCF1E5
S214405410090F06D9A4F1410CBCF1190F0DD8A4F11F
S214405420370C664512DDBEF1FF3FECD0994208BF0F
S2144054309042DAD24FF0FF3EE5E7A4F1610CBCF1B2
S214405440190F03D8A4F1570C6645ECDCBEF1FF3FBC
S2144054501CD0019911B1524263EB4303009929B124
S214405460BEF1000F1BD1029D00990D6010461946F3
S21440547005B0BDE8F08FE345B8DA4FF0FF3EC2E72F
S21440548001232C78019308F102057FE72223039A33
S2144054901360009B2BB35246013D3B46E4E79246E1
S2144054A01F46F8E7302C17D12B7803F0DF03582B34
S2144054B012D16C784FF010084FF0000902351026D4
S2144054C07AE72B7803F0DF03582BF2D04FF008082A
S2144054D04FF0000908266FE74FF010084FF000091C
S2144054E06AE752463B46C1E7084B70B51D68084E12
S2144054F06C6B82B0002C08BF3446134600940A46B4
S21440550001462846FFF722FF02B070BD98020020F1
S214405510CC0600202DE9F04FC3B00C460B919246C6
S2144055200F930C9002F092FB036818461A93FFF70D
S214405530DFFEA3891990190603D52369002B01F0D5
S214405540358000230DF1C809C8461593139314936C
S21440555018931B9309931693179327932693CDF886
S21440556094909AF800305446EBB1252B02D11AE0BD
S214405570252B03D014F8013F002BF9D1A4EB0A05E4
S2144055808DB1269B279A01332A44072BC8F800A0E2
S214405590C8F804502792269300F38A8008F108083A
S2144055A0099B2B4409932378002B00F08980002325
S2144055B04FF0FF301A468DF8773019460D939B46CC
S2144055C0637804F1010A0A900AF1010AA3F1200067
S2144055D0582800F2B783DFE810F04C03B503B50354
S2144055E05403B503B503B503B503B503B503590076
S2144055F05903B50366001402B5032F02A503A5039D
S214405600A503A503A503A503A503A503A503B50305
S214405610B503B503B503B503B503B503B503B50385
S214405620B5038B02D302B503D302B503B503B50366
S214405630B5031B03B503B5032003B503B503B50394
S214405640B503B5033402B503B5034B02B503B50342
S214405650B503B503B503B503B503B503B503B50345
S21440566076029E03D302D302D30263039E03B5039E
S214405670B5036803B5037503DD018C035E03B5030C
S214405680F201B5038700B503B50332030F9C2368C8
S21440569018460D932346002803F104030F9304DABB
S2144056A00D9B5B420D934BF0040B9AF800308BE752
S2144056B025AA0B990C9803F00DFB40B9C8466FE736
S2144056C0279B23B10C9825AA0B9903F003FB0B9B51
S2144056D09B8913F0400F099B18BF4FF0FF33099387
S2144056E0099843B0BDE8F08F1BF0200F119340F0AF
S2144056F0AF810F9A1BF0100F134640F09A851BF0AF
S214405700400F00F0968500250123148804320F923E
S214405710002217468DF877200A994A1C00F010821E
S2144057202BF08002079254EA050240F00F820029CF
S21440573040F03184002B40F039851BF001030E9376
S21440574000F06286302342AE06F8413D0A9B0E9A30
S2144057509342B8BF134608930023129317B1089B91
S21440576001330893079B13F00203109302D0089B63
S21440577002330893079B13F0840540F010830D9B7B
S214405780089AA3EB020BBBF1000F40F30883BBF172
S214405790100F40F3B287279C43462146A846102761
S2144057A0269A0C9C0B9D06E0ABF1100BBBF1100F3C
S2144057B003F1080318DD0132AB481031072A279160
S2144057C0269283E88100EFDD25AA2946204603F08D
S2144057D081FA00287FF47BAFABF1100BBBF1100FC2
S2144057E04B462799269AE6DC45460C4698460132B3
S2144057F09D4B5C44072A2794269288E8080800F3C5
S214405800C3829DF8777008F1080887B10121269B6E
S2144058100C440B440DF17702072B27942693C8F8C7
S2144058200410C8F8002000F3CD8308F10808109B48
S2144058307BB10221269B0C4401331EAA072B2794DA
S2144058402693C8F80410C8F8002000F3118408F125
S2144058500808802D00F004830A9B0E9A9F1A002F9A
S21440586037DD102F40F37986804D42462146B046BC
S2144058704FF0100B2E46269B0C9C0B9D04E0103FD1
S214405880102F02F1080215DD01331031072B279146
S214405890269382E84008F2DD25AA2946204603F0F2
S2144058A019FA00287FF413AF103F102F4A46279965
S2144058B0269BE9DC35460C464646904601333C443A
S2144058C0072B2794269388E8A00000F3708308F1FE
